{
  "_format": "hh-sol-artifact-1",
  "contractName": "Alwrite",
  "sourceName": "contracts/Alwrite.sol",
  "abi": [
    {
      "inputs": [],
      "stateMutability": "nonpayable",
      "type": "constructor"
    },
    {
      "anonymous": false,
      "inputs": [
        {
          "indexed": true,
          "internalType": "address",
          "name": "account",
          "type": "address"
        },
        {
          "indexed": true,
          "internalType": "address",
          "name": "operator",
          "type": "address"
        },
        {
          "indexed": false,
          "internalType": "bool",
          "name": "approved",
          "type": "bool"
        }
      ],
      "name": "ApprovalForAll",
      "type": "event"
    },
    {
      "anonymous": false,
      "inputs": [
        {
          "indexed": true,
          "internalType": "address",
          "name": "previousOwner",
          "type": "address"
        },
        {
          "indexed": true,
          "internalType": "address",
          "name": "newOwner",
          "type": "address"
        }
      ],
      "name": "OwnershipTransferred",
      "type": "event"
    },
    {
      "anonymous": false,
      "inputs": [
        {
          "indexed": true,
          "internalType": "address",
          "name": "operator",
          "type": "address"
        },
        {
          "indexed": true,
          "internalType": "address",
          "name": "from",
          "type": "address"
        },
        {
          "indexed": true,
          "internalType": "address",
          "name": "to",
          "type": "address"
        },
        {
          "indexed": false,
          "internalType": "uint256[]",
          "name": "ids",
          "type": "uint256[]"
        },
        {
          "indexed": false,
          "internalType": "uint256[]",
          "name": "values",
          "type": "uint256[]"
        }
      ],
      "name": "TransferBatch",
      "type": "event"
    },
    {
      "anonymous": false,
      "inputs": [
        {
          "indexed": true,
          "internalType": "address",
          "name": "operator",
          "type": "address"
        },
        {
          "indexed": true,
          "internalType": "address",
          "name": "from",
          "type": "address"
        },
        {
          "indexed": true,
          "internalType": "address",
          "name": "to",
          "type": "address"
        },
        {
          "indexed": false,
          "internalType": "uint256",
          "name": "id",
          "type": "uint256"
        },
        {
          "indexed": false,
          "internalType": "uint256",
          "name": "value",
          "type": "uint256"
        }
      ],
      "name": "TransferSingle",
      "type": "event"
    },
    {
      "anonymous": false,
      "inputs": [
        {
          "indexed": false,
          "internalType": "string",
          "name": "value",
          "type": "string"
        },
        {
          "indexed": true,
          "internalType": "uint256",
          "name": "id",
          "type": "uint256"
        }
      ],
      "name": "URI",
      "type": "event"
    },
    {
      "inputs": [
        {
          "internalType": "address",
          "name": "_coauthor",
          "type": "address"
        },
        {
          "internalType": "uint256",
          "name": "_token",
          "type": "uint256"
        }
      ],
      "name": "addAuthor",
      "outputs": [],
      "stateMutability": "nonpayable",
      "type": "function"
    },
    {
      "inputs": [
        {
          "internalType": "address",
          "name": "account",
          "type": "address"
        },
        {
          "internalType": "uint256",
          "name": "id",
          "type": "uint256"
        }
      ],
      "name": "balanceOf",
      "outputs": [
        {
          "internalType": "uint256",
          "name": "",
          "type": "uint256"
        }
      ],
      "stateMutability": "view",
      "type": "function"
    },
    {
      "inputs": [
        {
          "internalType": "address[]",
          "name": "accounts",
          "type": "address[]"
        },
        {
          "internalType": "uint256[]",
          "name": "ids",
          "type": "uint256[]"
        }
      ],
      "name": "balanceOfBatch",
      "outputs": [
        {
          "internalType": "uint256[]",
          "name": "",
          "type": "uint256[]"
        }
      ],
      "stateMutability": "view",
      "type": "function"
    },
    {
      "inputs": [
        {
          "internalType": "uint256",
          "name": "_token",
          "type": "uint256"
        }
      ],
      "name": "getAuthors",
      "outputs": [
        {
          "internalType": "address[]",
          "name": "",
          "type": "address[]"
        }
      ],
      "stateMutability": "view",
      "type": "function"
    },
    {
      "inputs": [
        {
          "internalType": "address",
          "name": "account",
          "type": "address"
        },
        {
          "internalType": "address",
          "name": "operator",
          "type": "address"
        }
      ],
      "name": "isApprovedForAll",
      "outputs": [
        {
          "internalType": "bool",
          "name": "",
          "type": "bool"
        }
      ],
      "stateMutability": "view",
      "type": "function"
    },
    {
      "inputs": [
        {
          "internalType": "uint256",
          "name": "_tokenId",
          "type": "uint256"
        },
        {
          "internalType": "string",
          "name": "_tokenURI",
          "type": "string"
        },
        {
          "internalType": "address",
          "name": "_owner",
          "type": "address"
        }
      ],
      "name": "mint",
      "outputs": [],
      "stateMutability": "payable",
      "type": "function"
    },
    {
      "inputs": [],
      "name": "owner",
      "outputs": [
        {
          "internalType": "address",
          "name": "",
          "type": "address"
        }
      ],
      "stateMutability": "view",
      "type": "function"
    },
    {
      "inputs": [
        {
          "internalType": "address",
          "name": "",
          "type": "address"
        }
      ],
      "name": "pendingWallets",
      "outputs": [
        {
          "internalType": "uint256",
          "name": "",
          "type": "uint256"
        }
      ],
      "stateMutability": "view",
      "type": "function"
    },
    {
      "inputs": [
        {
          "internalType": "uint256",
          "name": "",
          "type": "uint256"
        }
      ],
      "name": "posts",
      "outputs": [
        {
          "internalType": "uint256",
          "name": "minted",
          "type": "uint256"
        },
        {
          "internalType": "address",
          "name": "owner",
          "type": "address"
        }
      ],
      "stateMutability": "view",
      "type": "function"
    },
    {
      "inputs": [],
      "name": "price",
      "outputs": [
        {
          "internalType": "uint256",
          "name": "",
          "type": "uint256"
        }
      ],
      "stateMutability": "view",
      "type": "function"
    },
    {
      "inputs": [],
      "name": "renounceOwnership",
      "outputs": [],
      "stateMutability": "nonpayable",
      "type": "function"
    },
    {
      "inputs": [
        {
          "internalType": "address",
          "name": "from",
          "type": "address"
        },
        {
          "internalType": "address",
          "name": "to",
          "type": "address"
        },
        {
          "internalType": "uint256[]",
          "name": "ids",
          "type": "uint256[]"
        },
        {
          "internalType": "uint256[]",
          "name": "amounts",
          "type": "uint256[]"
        },
        {
          "internalType": "bytes",
          "name": "data",
          "type": "bytes"
        }
      ],
      "name": "safeBatchTransferFrom",
      "outputs": [],
      "stateMutability": "nonpayable",
      "type": "function"
    },
    {
      "inputs": [
        {
          "internalType": "address",
          "name": "from",
          "type": "address"
        },
        {
          "internalType": "address",
          "name": "to",
          "type": "address"
        },
        {
          "internalType": "uint256",
          "name": "id",
          "type": "uint256"
        },
        {
          "internalType": "uint256",
          "name": "amount",
          "type": "uint256"
        },
        {
          "internalType": "bytes",
          "name": "data",
          "type": "bytes"
        }
      ],
      "name": "safeTransferFrom",
      "outputs": [],
      "stateMutability": "nonpayable",
      "type": "function"
    },
    {
      "inputs": [
        {
          "internalType": "address",
          "name": "operator",
          "type": "address"
        },
        {
          "internalType": "bool",
          "name": "approved",
          "type": "bool"
        }
      ],
      "name": "setApprovalForAll",
      "outputs": [],
      "stateMutability": "nonpayable",
      "type": "function"
    },
    {
      "inputs": [
        {
          "internalType": "uint256",
          "name": "_price",
          "type": "uint256"
        }
      ],
      "name": "setPrice",
      "outputs": [],
      "stateMutability": "nonpayable",
      "type": "function"
    },
    {
      "inputs": [
        {
          "internalType": "bytes4",
          "name": "interfaceId",
          "type": "bytes4"
        }
      ],
      "name": "supportsInterface",
      "outputs": [
        {
          "internalType": "bool",
          "name": "",
          "type": "bool"
        }
      ],
      "stateMutability": "view",
      "type": "function"
    },
    {
      "inputs": [
        {
          "internalType": "address",
          "name": "newOwner",
          "type": "address"
        }
      ],
      "name": "transferOwnership",
      "outputs": [],
      "stateMutability": "nonpayable",
      "type": "function"
    },
    {
      "inputs": [
        {
          "internalType": "uint256",
          "name": "tokenId",
          "type": "uint256"
        }
      ],
      "name": "uri",
      "outputs": [
        {
          "internalType": "string",
          "name": "",
          "type": "string"
        }
      ],
      "stateMutability": "view",
      "type": "function"
    },
    {
      "inputs": [],
      "name": "withdraw",
      "outputs": [],
      "stateMutability": "nonpayable",
      "type": "function"
    }
  ],
  "bytecode": "0x60806040523480156200001157600080fd5b506040518060200160405280600081525062000033816200005a60201b60201c565b5062000054620000486200006f60201b60201c565b6200007760201b60201c565b6200049e565b80600290816200006b9190620003b7565b5050565b600033905090565b6000600360009054906101000a900473ffffffffffffffffffffffffffffffffffffffff16905081600360006101000a81548173ffffffffffffffffffffffffffffffffffffffff021916908373ffffffffffffffffffffffffffffffffffffffff1602179055508173ffffffffffffffffffffffffffffffffffffffff168173ffffffffffffffffffffffffffffffffffffffff167f8be0079c531659141344cd1fd0a4f28419497f9722a3daafe3b4186f6b6457e060405160405180910390a35050565b600081519050919050565b7f4e487b7100000000000000000000000000000000000000000000000000000000600052604160045260246000fd5b7f4e487b7100000000000000000000000000000000000000000000000000000000600052602260045260246000fd5b60006002820490506001821680620001bf57607f821691505b602082108103620001d557620001d462000177565b5b50919050565b60008190508160005260206000209050919050565b60006020601f8301049050919050565b600082821b905092915050565b6000600883026200023f7fffffffffffffffffffffffffffffffffffffffffffffffffffffffffffffffff8262000200565b6200024b868362000200565b95508019841693508086168417925050509392505050565b6000819050919050565b6000819050919050565b600062000298620002926200028c8462000263565b6200026d565b62000263565b9050919050565b6000819050919050565b620002b48362000277565b620002cc620002c3826200029f565b8484546200020d565b825550505050565b600090565b620002e3620002d4565b620002f0818484620002a9565b505050565b5b8181101562000318576200030c600082620002d9565b600181019050620002f6565b5050565b601f82111562000367576200033181620001db565b6200033c84620001f0565b810160208510156200034c578190505b620003646200035b85620001f0565b830182620002f5565b50505b505050565b600082821c905092915050565b60006200038c600019846008026200036c565b1980831691505092915050565b6000620003a7838362000379565b9150826002028217905092915050565b620003c2826200013d565b67ffffffffffffffff811115620003de57620003dd62000148565b5b620003ea8254620001a6565b620003f78282856200031c565b600060209050601f8311600181146200042f57600084156200041a578287015190505b62000426858262000399565b86555062000496565b601f1984166200043f86620001db565b60005b82811015620004695784890151825560018201915060208501945060208101905062000442565b8683101562000489578489015162000485601f89168262000379565b8355505b6001600288020188555050505b505050505050565b613e4480620004ae6000396000f3fe6080604052600436106101135760003560e01c806353424dd0116100a0578063a22cb46511610064578063a22cb465146103b6578063b8ea357a146103df578063e985e9c514610408578063f242432a14610445578063f2fde38b1461046e57610113565b806353424dd0146102e3578063715018a6146103205780638da5cb5b1461033757806391b7f5ed14610362578063a035b1fe1461038b57610113565b80630e89341c116100e75780630e89341c1461020d5780631ac429b21461024a5780632eb2c2d6146102665780633ccfd60b1461028f5780634e1273f4146102a657610113565b8062fdd58e1461011857806301ffc9a7146101555780630a2065d0146101925780630b1e7f83146101cf575b600080fd5b34801561012457600080fd5b5061013f600480360381019061013a9190612203565b610497565b60405161014c9190612252565b60405180910390f35b34801561016157600080fd5b5061017c600480360381019061017791906122c5565b61055f565b604051610189919061230d565b60405180910390f35b34801561019e57600080fd5b506101b960048036038101906101b49190612328565b610641565b6040516101c69190612252565b60405180910390f35b3480156101db57600080fd5b506101f660048036038101906101f19190612355565b610659565b604051610204929190612391565b60405180910390f35b34801561021957600080fd5b50610234600480360381019061022f9190612355565b61069d565b604051610241919061244a565b60405180910390f35b610264600480360381019061025f91906125a1565b610742565b005b34801561027257600080fd5b5061028d60048036038101906102889190612779565b610abb565b005b34801561029b57600080fd5b506102a4610b5c565b005b3480156102b257600080fd5b506102cd60048036038101906102c8919061290b565b610cde565b6040516102da9190612a41565b60405180910390f35b3480156102ef57600080fd5b5061030a60048036038101906103059190612355565b610df7565b6040516103179190612b21565b60405180910390f35b34801561032c57600080fd5b50610335610e9b565b005b34801561034357600080fd5b5061034c610eaf565b6040516103599190612b43565b60405180910390f35b34801561036e57600080fd5b5061038960048036038101906103849190612355565b610ed9565b005b34801561039757600080fd5b506103a0610eeb565b6040516103ad9190612252565b60405180910390f35b3480156103c257600080fd5b506103dd60048036038101906103d89190612b8a565b610ef1565b005b3480156103eb57600080fd5b5061040660048036038101906104019190612203565b610f07565b005b34801561041457600080fd5b5061042f600480360381019061042a9190612bca565b611095565b60405161043c919061230d565b60405180910390f35b34801561045157600080fd5b5061046c60048036038101906104679190612c0a565b611129565b005b34801561047a57600080fd5b5061049560048036038101906104909190612328565b6111ca565b005b60008073ffffffffffffffffffffffffffffffffffffffff168373ffffffffffffffffffffffffffffffffffffffff1603610507576040517f08c379a00000000000000000000000000000000000000000000000000000000081526004016104fe90612d13565b60405180910390fd5b60008083815260200190815260200160002060008473ffffffffffffffffffffffffffffffffffffffff1673ffffffffffffffffffffffffffffffffffffffff16815260200190815260200160002054905092915050565b60007fd9b67a26000000000000000000000000000000000000000000000000000000007bffffffffffffffffffffffffffffffffffffffffffffffffffffffff1916827bffffffffffffffffffffffffffffffffffffffffffffffffffffffff1916148061062a57507f0e89341c000000000000000000000000000000000000000000000000000000007bffffffffffffffffffffffffffffffffffffffffffffffffffffffff1916827bffffffffffffffffffffffffffffffffffffffffffffffffffffffff1916145b8061063a57506106398261124d565b5b9050919050565b60066020528060005260406000206000915090505481565b60046020528060005260406000206000915090508060000154908060020160009054906101000a900473ffffffffffffffffffffffffffffffffffffffff16905082565b60606005600083815260200190815260200160002080546106bd90612d62565b80601f01602080910402602001604051908101604052809291908181526020018280546106e990612d62565b80156107365780601f1061070b57610100808354040283529160200191610736565b820191906000526020600020905b81548152906001019060200180831161071957829003601f168201915b50505050509050919050565b600073ffffffffffffffffffffffffffffffffffffffff168173ffffffffffffffffffffffffffffffffffffffff16036107b1576040517f08c379a00000000000000000000000000000000000000000000000000000000081526004016107a890612ddf565b60405180910390fd5b60006004600085815260200190815260200160002090506000816000015411156108fe57826040516020016107e69190612e3b565b604051602081830303815290604052805190602001206108058561069d565b6040516020016108159190612e3b565b604051602081830303815290604052805190602001201461086b576040517f08c379a000000000000000000000000000000000000000000000000000000000815260040161086290612e9e565b60405180910390fd5b8173ffffffffffffffffffffffffffffffffffffffff168160020160009054906101000a900473ffffffffffffffffffffffffffffffffffffffff1673ffffffffffffffffffffffffffffffffffffffff16146108fd576040517f08c379a00000000000000000000000000000000000000000000000000000000081526004016108f490612f0a565b60405180910390fd5b5b6064816000015410610945576040517f08c379a000000000000000000000000000000000000000000000000000000000815260040161093c90612f76565b60405180910390fd5b60075434101561098a576040517f08c379a000000000000000000000000000000000000000000000000000000000815260040161098190612fe2565b60405180910390fd5b6109a633856001604051806020016040528060008152506112b7565b6109b08484611467565b6000816000015403610a1e57818160020160006101000a81548173ffffffffffffffffffffffffffffffffffffffff021916908373ffffffffffffffffffffffffffffffffffffffff160217905550806000016000815480929190610a1490613031565b9190505550610a39565b806000016000815480929190610a3390613031565b91905055505b600754600660008360020160009054906101000a900473ffffffffffffffffffffffffffffffffffffffff1673ffffffffffffffffffffffffffffffffffffffff1673ffffffffffffffffffffffffffffffffffffffff1681526020019081526020016000206000828254610aae9190613079565b9250508190555050505050565b610ac361148c565b73ffffffffffffffffffffffffffffffffffffffff168573ffffffffffffffffffffffffffffffffffffffff161480610b095750610b0885610b0361148c565b611095565b5b610b48576040517f08c379a0000000000000000000000000000000000000000000000000000000008152600401610b3f9061311f565b60405180910390fd5b610b558585858585611494565b5050505050565b60003390506000600660008373ffffffffffffffffffffffffffffffffffffffff1673ffffffffffffffffffffffffffffffffffffffff16815260200190815260200160002054905060008111610be8576040517f08c379a0000000000000000000000000000000000000000000000000000000008152600401610bdf9061318b565b60405180910390fd5b6000600660008473ffffffffffffffffffffffffffffffffffffffff1673ffffffffffffffffffffffffffffffffffffffff1681526020019081526020016000208190555060008273ffffffffffffffffffffffffffffffffffffffff1682604051610c53906131dc565b60006040518083038185875af1925050503d8060008114610c90576040519150601f19603f3d011682016040523d82523d6000602084013e610c95565b606091505b5050905080610cd9576040517f08c379a0000000000000000000000000000000000000000000000000000000008152600401610cd09061323d565b60405180910390fd5b505050565b60608151835114610d24576040517f08c379a0000000000000000000000000000000000000000000000000000000008152600401610d1b906132cf565b60405180910390fd5b6000835167ffffffffffffffff811115610d4157610d40612476565b5b604051908082528060200260200182016040528015610d6f5781602001602082028036833780820191505090505b50905060005b8451811015610dec57610dbc858281518110610d9457610d936132ef565b5b6020026020010151858381518110610daf57610dae6132ef565b5b6020026020010151610497565b828281518110610dcf57610dce6132ef565b5b60200260200101818152505080610de590613031565b9050610d75565b508091505092915050565b606060046000838152602001908152602001600020600101805480602002602001604051908101604052809291908181526020018280548015610e8f57602002820191906000526020600020905b8160009054906101000a900473ffffffffffffffffffffffffffffffffffffffff1673ffffffffffffffffffffffffffffffffffffffff1681526020019060010190808311610e45575b50505050509050919050565b610ea36117b5565b610ead6000611833565b565b6000600360009054906101000a900473ffffffffffffffffffffffffffffffffffffffff16905090565b610ee16117b5565b8060078190555050565b60075481565b610f03610efc61148c565b83836118f9565b5050565b600073ffffffffffffffffffffffffffffffffffffffff168273ffffffffffffffffffffffffffffffffffffffff1603610f76576040517f08c379a0000000000000000000000000000000000000000000000000000000008152600401610f6d9061336a565b60405180910390fd5b3373ffffffffffffffffffffffffffffffffffffffff166004600083815260200190815260200160002060020160009054906101000a900473ffffffffffffffffffffffffffffffffffffffff1673ffffffffffffffffffffffffffffffffffffffff161461101a576040517f08c379a0000000000000000000000000000000000000000000000000000000008152600401611011906133fc565b60405180910390fd5b60046000828152602001908152602001600020600101829080600181540180825580915050600190039060005260206000200160009091909190916101000a81548173ffffffffffffffffffffffffffffffffffffffff021916908373ffffffffffffffffffffffffffffffffffffffff1602179055505050565b6000600160008473ffffffffffffffffffffffffffffffffffffffff1673ffffffffffffffffffffffffffffffffffffffff16815260200190815260200160002060008373ffffffffffffffffffffffffffffffffffffffff1673ffffffffffffffffffffffffffffffffffffffff16815260200190815260200160002060009054906101000a900460ff16905092915050565b61113161148c565b73ffffffffffffffffffffffffffffffffffffffff168573ffffffffffffffffffffffffffffffffffffffff16148061117757506111768561117161148c565b611095565b5b6111b6576040517f08c379a00000000000000000000000000000000000000000000000000000000081526004016111ad9061311f565b60405180910390fd5b6111c38585858585611a65565b5050505050565b6111d26117b5565b600073ffffffffffffffffffffffffffffffffffffffff168173ffffffffffffffffffffffffffffffffffffffff1603611241576040517f08c379a00000000000000000000000000000000000000000000000000000000081526004016112389061348e565b60405180910390fd5b61124a81611833565b50565b60007f01ffc9a7000000000000000000000000000000000000000000000000000000007bffffffffffffffffffffffffffffffffffffffffffffffffffffffff1916827bffffffffffffffffffffffffffffffffffffffffffffffffffffffff1916149050919050565b600073ffffffffffffffffffffffffffffffffffffffff168473ffffffffffffffffffffffffffffffffffffffff1603611326576040517f08c379a000000000000000000000000000000000000000000000000000000000815260040161131d90613520565b60405180910390fd5b600061133061148c565b9050600061133d85611d00565b9050600061134a85611d00565b905061135b83600089858589611d7a565b8460008088815260200190815260200160002060008973ffffffffffffffffffffffffffffffffffffffff1673ffffffffffffffffffffffffffffffffffffffff16815260200190815260200160002060008282546113ba9190613079565b925050819055508673ffffffffffffffffffffffffffffffffffffffff16600073ffffffffffffffffffffffffffffffffffffffff168473ffffffffffffffffffffffffffffffffffffffff167fc3d58168c5ae7397731d063d5bbf3d657854427343f4c083240f7aacaa2d0f628989604051611438929190613540565b60405180910390a461144f83600089858589611d82565b61145e83600089898989611d8a565b50505050505050565b806005600084815260200190815260200160002090816114879190613715565b505050565b600033905090565b81518351146114d8576040517f08c379a00000000000000000000000000000000000000000000000000000000081526004016114cf90613859565b60405180910390fd5b600073ffffffffffffffffffffffffffffffffffffffff168473ffffffffffffffffffffffffffffffffffffffff1603611547576040517f08c379a000000000000000000000000000000000000000000000000000000000815260040161153e906138eb565b60405180910390fd5b600061155161148c565b9050611561818787878787611d7a565b60005b8451811015611712576000858281518110611582576115816132ef565b5b6020026020010151905060008583815181106115a1576115a06132ef565b5b60200260200101519050600080600084815260200190815260200160002060008b73ffffffffffffffffffffffffffffffffffffffff1673ffffffffffffffffffffffffffffffffffffffff16815260200190815260200160002054905081811015611642576040517f08c379a00000000000000000000000000000000000000000000000000000000081526004016116399061397d565b60405180910390fd5b81810360008085815260200190815260200160002060008c73ffffffffffffffffffffffffffffffffffffffff1673ffffffffffffffffffffffffffffffffffffffff168152602001908152602001600020819055508160008085815260200190815260200160002060008b73ffffffffffffffffffffffffffffffffffffffff1673ffffffffffffffffffffffffffffffffffffffff16815260200190815260200160002060008282546116f79190613079565b925050819055505050508061170b90613031565b9050611564565b508473ffffffffffffffffffffffffffffffffffffffff168673ffffffffffffffffffffffffffffffffffffffff168273ffffffffffffffffffffffffffffffffffffffff167f4a39dc06d4c0dbc64b70af90fd698a233a518aa5d07e595d983b8c0526c8f7fb878760405161178992919061399d565b60405180910390a461179f818787878787611d82565b6117ad818787878787611f61565b505050505050565b6117bd61148c565b73ffffffffffffffffffffffffffffffffffffffff166117db610eaf565b73ffffffffffffffffffffffffffffffffffffffff1614611831576040517f08c379a000000000000000000000000000000000000000000000000000000000815260040161182890613a20565b60405180910390fd5b565b6000600360009054906101000a900473ffffffffffffffffffffffffffffffffffffffff16905081600360006101000a81548173ffffffffffffffffffffffffffffffffffffffff021916908373ffffffffffffffffffffffffffffffffffffffff1602179055508173ffffffffffffffffffffffffffffffffffffffff168173ffffffffffffffffffffffffffffffffffffffff167f8be0079c531659141344cd1fd0a4f28419497f9722a3daafe3b4186f6b6457e060405160405180910390a35050565b8173ffffffffffffffffffffffffffffffffffffffff168373ffffffffffffffffffffffffffffffffffffffff1603611967576040517f08c379a000000000000000000000000000000000000000000000000000000000815260040161195e90613ab2565b60405180910390fd5b80600160008573ffffffffffffffffffffffffffffffffffffffff1673ffffffffffffffffffffffffffffffffffffffff16815260200190815260200160002060008473ffffffffffffffffffffffffffffffffffffffff1673ffffffffffffffffffffffffffffffffffffffff16815260200190815260200160002060006101000a81548160ff0219169083151502179055508173ffffffffffffffffffffffffffffffffffffffff168373ffffffffffffffffffffffffffffffffffffffff167f17307eab39ab6107e8899845ad3d59bd9653f200f220920489ca2b5937696c3183604051611a58919061230d565b60405180910390a3505050565b600073ffffffffffffffffffffffffffffffffffffffff168473ffffffffffffffffffffffffffffffffffffffff1603611ad4576040517f08c379a0000000000000000000000000000000000000000000000000000000008152600401611acb906138eb565b60405180910390fd5b6000611ade61148c565b90506000611aeb85611d00565b90506000611af885611d00565b9050611b08838989858589611d7a565b600080600088815260200190815260200160002060008a73ffffffffffffffffffffffffffffffffffffffff1673ffffffffffffffffffffffffffffffffffffffff16815260200190815260200160002054905085811015611b9f576040517f08c379a0000000000000000000000000000000000000000000000000000000008152600401611b969061397d565b60405180910390fd5b85810360008089815260200190815260200160002060008b73ffffffffffffffffffffffffffffffffffffffff1673ffffffffffffffffffffffffffffffffffffffff168152602001908152602001600020819055508560008089815260200190815260200160002060008a73ffffffffffffffffffffffffffffffffffffffff1673ffffffffffffffffffffffffffffffffffffffff1681526020019081526020016000206000828254611c549190613079565b925050819055508773ffffffffffffffffffffffffffffffffffffffff168973ffffffffffffffffffffffffffffffffffffffff168573ffffffffffffffffffffffffffffffffffffffff167fc3d58168c5ae7397731d063d5bbf3d657854427343f4c083240f7aacaa2d0f628a8a604051611cd1929190613540565b60405180910390a4611ce7848a8a86868a611d82565b611cf5848a8a8a8a8a611d8a565b505050505050505050565b60606000600167ffffffffffffffff811115611d1f57611d1e612476565b5b604051908082528060200260200182016040528015611d4d5781602001602082028036833780820191505090505b5090508281600081518110611d6557611d646132ef565b5b60200260200101818152505080915050919050565b505050505050565b505050505050565b611da98473ffffffffffffffffffffffffffffffffffffffff16612138565b15611f59578373ffffffffffffffffffffffffffffffffffffffff1663f23a6e6187878686866040518663ffffffff1660e01b8152600401611def959493929190613b27565b6020604051808303816000875af1925050508015611e2b57506040513d601f19601f82011682018060405250810190611e289190613b96565b60015b611ed057611e37613bd0565b806308c379a003611e935750611e4b613bf2565b80611e565750611e95565b806040517f08c379a0000000000000000000000000000000000000000000000000000000008152600401611e8a919061244a565b60405180910390fd5b505b6040517f08c379a0000000000000000000000000000000000000000000000000000000008152600401611ec790613cf4565b60405180910390fd5b63f23a6e6160e01b7bffffffffffffffffffffffffffffffffffffffffffffffffffffffff1916817bffffffffffffffffffffffffffffffffffffffffffffffffffffffff191614611f57576040517f08c379a0000000000000000000000000000000000000000000000000000000008152600401611f4e90613d86565b60405180910390fd5b505b505050505050565b611f808473ffffffffffffffffffffffffffffffffffffffff16612138565b15612130578373ffffffffffffffffffffffffffffffffffffffff1663bc197c8187878686866040518663ffffffff1660e01b8152600401611fc6959493929190613da6565b6020604051808303816000875af192505050801561200257506040513d601f19601f82011682018060405250810190611fff9190613b96565b60015b6120a75761200e613bd0565b806308c379a00361206a5750612022613bf2565b8061202d575061206c565b806040517f08c379a0000000000000000000000000000000000000000000000000000000008152600401612061919061244a565b60405180910390fd5b505b6040517f08c379a000000000000000000000000000000000000000000000000000000000815260040161209e90613cf4565b60405180910390fd5b63bc197c8160e01b7bffffffffffffffffffffffffffffffffffffffffffffffffffffffff1916817bffffffffffffffffffffffffffffffffffffffffffffffffffffffff19161461212e576040517f08c379a000000000000000000000000000000000000000000000000000000000815260040161212590613d86565b60405180910390fd5b505b505050505050565b6000808273ffffffffffffffffffffffffffffffffffffffff163b119050919050565b6000604051905090565b600080fd5b600080fd5b600073ffffffffffffffffffffffffffffffffffffffff82169050919050565b600061219a8261216f565b9050919050565b6121aa8161218f565b81146121b557600080fd5b50565b6000813590506121c7816121a1565b92915050565b6000819050919050565b6121e0816121cd565b81146121eb57600080fd5b50565b6000813590506121fd816121d7565b92915050565b6000806040838503121561221a57612219612165565b5b6000612228858286016121b8565b9250506020612239858286016121ee565b9150509250929050565b61224c816121cd565b82525050565b60006020820190506122676000830184612243565b92915050565b60007fffffffff0000000000000000000000000000000000000000000000000000000082169050919050565b6122a28161226d565b81146122ad57600080fd5b50565b6000813590506122bf81612299565b92915050565b6000602082840312156122db576122da612165565b5b60006122e9848285016122b0565b91505092915050565b60008115159050919050565b612307816122f2565b82525050565b600060208201905061232260008301846122fe565b92915050565b60006020828403121561233e5761233d612165565b5b600061234c848285016121b8565b91505092915050565b60006020828403121561236b5761236a612165565b5b6000612379848285016121ee565b91505092915050565b61238b8161218f565b82525050565b60006040820190506123a66000830185612243565b6123b36020830184612382565b9392505050565b600081519050919050565b600082825260208201905092915050565b60005b838110156123f45780820151818401526020810190506123d9565b60008484015250505050565b6000601f19601f8301169050919050565b600061241c826123ba565b61242681856123c5565b93506124368185602086016123d6565b61243f81612400565b840191505092915050565b600060208201905081810360008301526124648184612411565b905092915050565b600080fd5b600080fd5b7f4e487b7100000000000000000000000000000000000000000000000000000000600052604160045260246000fd5b6124ae82612400565b810181811067ffffffffffffffff821117156124cd576124cc612476565b5b80604052505050565b60006124e061215b565b90506124ec82826124a5565b919050565b600067ffffffffffffffff82111561250c5761250b612476565b5b61251582612400565b9050602081019050919050565b82818337600083830152505050565b600061254461253f846124f1565b6124d6565b9050828152602081018484840111156125605761255f612471565b5b61256b848285612522565b509392505050565b600082601f8301126125885761258761246c565b5b8135612598848260208601612531565b91505092915050565b6000806000606084860312156125ba576125b9612165565b5b60006125c8868287016121ee565b935050602084013567ffffffffffffffff8111156125e9576125e861216a565b5b6125f586828701612573565b9250506040612606868287016121b8565b9150509250925092565b600067ffffffffffffffff82111561262b5761262a612476565b5b602082029050602081019050919050565b600080fd5b600061265461264f84612610565b6124d6565b905080838252602082019050602084028301858111156126775761267661263c565b5b835b818110156126a0578061268c88826121ee565b845260208401935050602081019050612679565b5050509392505050565b600082601f8301126126bf576126be61246c565b5b81356126cf848260208601612641565b91505092915050565b600067ffffffffffffffff8211156126f3576126f2612476565b5b6126fc82612400565b9050602081019050919050565b600061271c612717846126d8565b6124d6565b90508281526020810184848401111561273857612737612471565b5b612743848285612522565b509392505050565b600082601f8301126127605761275f61246c565b5b8135612770848260208601612709565b91505092915050565b600080600080600060a0868803121561279557612794612165565b5b60006127a3888289016121b8565b95505060206127b4888289016121b8565b945050604086013567ffffffffffffffff8111156127d5576127d461216a565b5b6127e1888289016126aa565b935050606086013567ffffffffffffffff8111156128025761280161216a565b5b61280e888289016126aa565b925050608086013567ffffffffffffffff81111561282f5761282e61216a565b5b61283b8882890161274b565b9150509295509295909350565b600067ffffffffffffffff82111561286357612862612476565b5b602082029050602081019050919050565b600061288761288284612848565b6124d6565b905080838252602082019050602084028301858111156128aa576128a961263c565b5b835b818110156128d357806128bf88826121b8565b8452602084019350506020810190506128ac565b5050509392505050565b600082601f8301126128f2576128f161246c565b5b8135612902848260208601612874565b91505092915050565b6000806040838503121561292257612921612165565b5b600083013567ffffffffffffffff8111156129405761293f61216a565b5b61294c858286016128dd565b925050602083013567ffffffffffffffff81111561296d5761296c61216a565b5b612979858286016126aa565b9150509250929050565b600081519050919050565b600082825260208201905092915050565b6000819050602082019050919050565b6129b8816121cd565b82525050565b60006129ca83836129af565b60208301905092915050565b6000602082019050919050565b60006129ee82612983565b6129f8818561298e565b9350612a038361299f565b8060005b83811015612a34578151612a1b88826129be565b9750612a26836129d6565b925050600181019050612a07565b5085935050505092915050565b60006020820190508181036000830152612a5b81846129e3565b905092915050565b600081519050919050565b600082825260208201905092915050565b6000819050602082019050919050565b612a988161218f565b82525050565b6000612aaa8383612a8f565b60208301905092915050565b6000602082019050919050565b6000612ace82612a63565b612ad88185612a6e565b9350612ae383612a7f565b8060005b83811015612b14578151612afb8882612a9e565b9750612b0683612ab6565b925050600181019050612ae7565b5085935050505092915050565b60006020820190508181036000830152612b3b8184612ac3565b905092915050565b6000602082019050612b586000830184612382565b92915050565b612b67816122f2565b8114612b7257600080fd5b50565b600081359050612b8481612b5e565b92915050565b60008060408385031215612ba157612ba0612165565b5b6000612baf858286016121b8565b9250506020612bc085828601612b75565b9150509250929050565b60008060408385031215612be157612be0612165565b5b6000612bef858286016121b8565b9250506020612c00858286016121b8565b9150509250929050565b600080600080600060a08688031215612c2657612c25612165565b5b6000612c34888289016121b8565b9550506020612c45888289016121b8565b9450506040612c56888289016121ee565b9350506060612c67888289016121ee565b925050608086013567ffffffffffffffff811115612c8857612c8761216a565b5b612c948882890161274b565b9150509295509295909350565b7f455243313135353a2061646472657373207a65726f206973206e6f742061207660008201527f616c6964206f776e657200000000000000000000000000000000000000000000602082015250565b6000612cfd602a836123c5565b9150612d0882612ca1565b604082019050919050565b60006020820190508181036000830152612d2c81612cf0565b9050919050565b7f4e487b7100000000000000000000000000000000000000000000000000000000600052602260045260246000fd5b60006002820490506001821680612d7a57607f821691505b602082108103612d8d57612d8c612d33565b5b50919050565b7f496e76616c6964206f776e657220616464726573730000000000000000000000600082015250565b6000612dc96015836123c5565b9150612dd482612d93565b602082019050919050565b60006020820190508181036000830152612df881612dbc565b9050919050565b600081905092915050565b6000612e15826123ba565b612e1f8185612dff565b9350612e2f8185602086016123d6565b80840191505092915050565b6000612e478284612e0a565b915081905092915050565b7f57726f6e67207572690000000000000000000000000000000000000000000000600082015250565b6000612e886009836123c5565b9150612e9382612e52565b602082019050919050565b60006020820190508181036000830152612eb781612e7b565b9050919050565b7f57726f6e67206f776e6572000000000000000000000000000000000000000000600082015250565b6000612ef4600b836123c5565b9150612eff82612ebe565b602082019050919050565b60006020820190508181036000830152612f2381612ee7565b9050919050565b7f536f6c64206f7574000000000000000000000000000000000000000000000000600082015250565b6000612f606008836123c5565b9150612f6b82612f2a565b602082019050919050565b60006020820190508181036000830152612f8f81612f53565b9050919050565b7f496e636f7272656374207061796d656e7420616d6f756e740000000000000000600082015250565b6000612fcc6018836123c5565b9150612fd782612f96565b602082019050919050565b60006020820190508181036000830152612ffb81612fbf565b9050919050565b7f4e487b7100000000000000000000000000000000000000000000000000000000600052601160045260246000fd5b600061303c826121cd565b91507fffffffffffffffffffffffffffffffffffffffffffffffffffffffffffffffff820361306e5761306d613002565b5b600182019050919050565b6000613084826121cd565b915061308f836121cd565b92508282019050808211156130a7576130a6613002565b5b92915050565b7f455243313135353a2063616c6c6572206973206e6f7420746f6b656e206f776e60008201527f6572206e6f7220617070726f7665640000000000000000000000000000000000602082015250565b6000613109602f836123c5565b9150613114826130ad565b604082019050919050565b60006020820190508181036000830152613138816130fc565b9050919050565b7f4e6f2070656e64696e67207769746864726177616c7300000000000000000000600082015250565b60006131756016836123c5565b91506131808261313f565b602082019050919050565b600060208201905081810360008301526131a481613168565b9050919050565b600081905092915050565b50565b60006131c66000836131ab565b91506131d1826131b6565b600082019050919050565b60006131e7826131b9565b9150819050919050565b7f5769746864726177616c206661696c6564000000000000000000000000000000600082015250565b60006132276011836123c5565b9150613232826131f1565b602082019050919050565b600060208201905081810360008301526132568161321a565b9050919050565b7f455243313135353a206163636f756e747320616e6420696473206c656e67746860008201527f206d69736d617463680000000000000000000000000000000000000000000000602082015250565b60006132b96029836123c5565b91506132c48261325d565b604082019050919050565b600060208201905081810360008301526132e8816132ac565b9050919050565b7f4e487b7100000000000000000000000000000000000000000000000000000000600052603260045260246000fd5b7f496e76616c696420636f617574686f7220616464726573730000000000000000600082015250565b60006133546018836123c5565b915061335f8261331e565b602082019050919050565b6000602082019050818103600083015261338381613347565b9050919050565b7f596f7520617265206e6f7420746865206f776e6572206f66207468697320626c60008201527f6f67000000000000000000000000000000000000000000000000000000000000602082015250565b60006133e66022836123c5565b91506133f18261338a565b604082019050919050565b60006020820190508181036000830152613415816133d9565b9050919050565b7f4f776e61626c653a206e6577206f776e657220697320746865207a65726f206160008201527f6464726573730000000000000000000000000000000000000000000000000000602082015250565b60006134786026836123c5565b91506134838261341c565b604082019050919050565b600060208201905081810360008301526134a78161346b565b9050919050565b7f455243313135353a206d696e7420746f20746865207a65726f2061646472657360008201527f7300000000000000000000000000000000000000000000000000000000000000602082015250565b600061350a6021836123c5565b9150613515826134ae565b604082019050919050565b60006020820190508181036000830152613539816134fd565b9050919050565b60006040820190506135556000830185612243565b6135626020830184612243565b9392505050565b60008190508160005260206000209050919050565b60006020601f8301049050919050565b600082821b905092915050565b6000600883026135cb7fffffffffffffffffffffffffffffffffffffffffffffffffffffffffffffffff8261358e565b6135d5868361358e565b95508019841693508086168417925050509392505050565b6000819050919050565b600061361261360d613608846121cd565b6135ed565b6121cd565b9050919050565b6000819050919050565b61362c836135f7565b61364061363882613619565b84845461359b565b825550505050565b600090565b613655613648565b613660818484613623565b505050565b5b818110156136845761367960008261364d565b600181019050613666565b5050565b601f8211156136c95761369a81613569565b6136a38461357e565b810160208510156136b2578190505b6136c66136be8561357e565b830182613665565b50505b505050565b600082821c905092915050565b60006136ec600019846008026136ce565b1980831691505092915050565b600061370583836136db565b9150826002028217905092915050565b61371e826123ba565b67ffffffffffffffff81111561373757613736612476565b5b6137418254612d62565b61374c828285613688565b600060209050601f83116001811461377f576000841561376d578287015190505b61377785826136f9565b8655506137df565b601f19841661378d86613569565b60005b828110156137b557848901518255600182019150602085019450602081019050613790565b868310156137d257848901516137ce601f8916826136db565b8355505b6001600288020188555050505b505050505050565b7f455243313135353a2069647320616e6420616d6f756e7473206c656e6774682060008201527f6d69736d61746368000000000000000000000000000000000000000000000000602082015250565b60006138436028836123c5565b915061384e826137e7565b604082019050919050565b6000602082019050818103600083015261387281613836565b9050919050565b7f455243313135353a207472616e7366657220746f20746865207a65726f20616460008201527f6472657373000000000000000000000000000000000000000000000000000000602082015250565b60006138d56025836123c5565b91506138e082613879565b604082019050919050565b60006020820190508181036000830152613904816138c8565b9050919050565b7f455243313135353a20696e73756666696369656e742062616c616e636520666f60008201527f72207472616e7366657200000000000000000000000000000000000000000000602082015250565b6000613967602a836123c5565b91506139728261390b565b604082019050919050565b600060208201905081810360008301526139968161395a565b9050919050565b600060408201905081810360008301526139b781856129e3565b905081810360208301526139cb81846129e3565b90509392505050565b7f4f776e61626c653a2063616c6c6572206973206e6f7420746865206f776e6572600082015250565b6000613a0a6020836123c5565b9150613a15826139d4565b602082019050919050565b60006020820190508181036000830152613a39816139fd565b9050919050565b7f455243313135353a2073657474696e6720617070726f76616c2073746174757360008201527f20666f722073656c660000000000000000000000000000000000000000000000602082015250565b6000613a9c6029836123c5565b9150613aa782613a40565b604082019050919050565b60006020820190508181036000830152613acb81613a8f565b9050919050565b600081519050919050565b600082825260208201905092915050565b6000613af982613ad2565b613b038185613add565b9350613b138185602086016123d6565b613b1c81612400565b840191505092915050565b600060a082019050613b3c6000830188612382565b613b496020830187612382565b613b566040830186612243565b613b636060830185612243565b8181036080830152613b758184613aee565b90509695505050505050565b600081519050613b9081612299565b92915050565b600060208284031215613bac57613bab612165565b5b6000613bba84828501613b81565b91505092915050565b60008160e01c9050919050565b600060033d1115613bef5760046000803e613bec600051613bc3565b90505b90565b600060443d10613c7f57613c0461215b565b60043d036004823e80513d602482011167ffffffffffffffff82111715613c2c575050613c7f565b808201805167ffffffffffffffff811115613c4a5750505050613c7f565b80602083010160043d038501811115613c67575050505050613c7f565b613c76826020018501866124a5565b82955050505050505b90565b7f455243313135353a207472616e7366657220746f206e6f6e204552433131353560008201527f526563656976657220696d706c656d656e746572000000000000000000000000602082015250565b6000613cde6034836123c5565b9150613ce982613c82565b604082019050919050565b60006020820190508181036000830152613d0d81613cd1565b9050919050565b7f455243313135353a204552433131353552656365697665722072656a6563746560008201527f6420746f6b656e73000000000000000000000000000000000000000000000000602082015250565b6000613d706028836123c5565b9150613d7b82613d14565b604082019050919050565b60006020820190508181036000830152613d9f81613d63565b9050919050565b600060a082019050613dbb6000830188612382565b613dc86020830187612382565b8181036040830152613dda81866129e3565b90508181036060830152613dee81856129e3565b90508181036080830152613e028184613aee565b9050969550505050505056fea2646970667358221220c21f41732b8cbff11d72c74197f9ba288680ca8160bc83052e931e8d61b685b264736f6c63430008110033",
  "linkReferences": {},
  "deployedLinkReferences": {}
}