{
  "_format": "hh-sol-artifact-1",
  "contractName": "AlwriteContract",
  "sourceName": "contracts/AlwriteContract.sol",
  "abi": [
    {
      "inputs": [],
      "stateMutability": "nonpayable",
      "type": "constructor"
    },
    {
      "inputs": [],
      "name": "EmptySpace",
      "type": "error"
    },
    {
      "anonymous": false,
      "inputs": [
        {
          "indexed": true,
          "internalType": "address",
          "name": "account",
          "type": "address"
        },
        {
          "indexed": true,
          "internalType": "address",
          "name": "operator",
          "type": "address"
        },
        {
          "indexed": false,
          "internalType": "bool",
          "name": "approved",
          "type": "bool"
        }
      ],
      "name": "ApprovalForAll",
      "type": "event"
    },
    {
      "anonymous": false,
      "inputs": [
        {
          "indexed": true,
          "internalType": "address",
          "name": "previousOwner",
          "type": "address"
        },
        {
          "indexed": true,
          "internalType": "address",
          "name": "newOwner",
          "type": "address"
        }
      ],
      "name": "OwnershipTransferred",
      "type": "event"
    },
    {
      "anonymous": false,
      "inputs": [
        {
          "indexed": true,
          "internalType": "address",
          "name": "operator",
          "type": "address"
        },
        {
          "indexed": true,
          "internalType": "address",
          "name": "from",
          "type": "address"
        },
        {
          "indexed": true,
          "internalType": "address",
          "name": "to",
          "type": "address"
        },
        {
          "indexed": false,
          "internalType": "uint256[]",
          "name": "ids",
          "type": "uint256[]"
        },
        {
          "indexed": false,
          "internalType": "uint256[]",
          "name": "values",
          "type": "uint256[]"
        }
      ],
      "name": "TransferBatch",
      "type": "event"
    },
    {
      "anonymous": false,
      "inputs": [
        {
          "indexed": true,
          "internalType": "address",
          "name": "operator",
          "type": "address"
        },
        {
          "indexed": true,
          "internalType": "address",
          "name": "from",
          "type": "address"
        },
        {
          "indexed": true,
          "internalType": "address",
          "name": "to",
          "type": "address"
        },
        {
          "indexed": false,
          "internalType": "uint256",
          "name": "id",
          "type": "uint256"
        },
        {
          "indexed": false,
          "internalType": "uint256",
          "name": "value",
          "type": "uint256"
        }
      ],
      "name": "TransferSingle",
      "type": "event"
    },
    {
      "anonymous": false,
      "inputs": [
        {
          "indexed": false,
          "internalType": "string",
          "name": "value",
          "type": "string"
        },
        {
          "indexed": true,
          "internalType": "uint256",
          "name": "id",
          "type": "uint256"
        }
      ],
      "name": "URI",
      "type": "event"
    },
    {
      "inputs": [],
      "name": "LENGTH",
      "outputs": [
        {
          "internalType": "uint256",
          "name": "",
          "type": "uint256"
        }
      ],
      "stateMutability": "view",
      "type": "function"
    },
    {
      "inputs": [],
      "name": "LENGTH_DEPLOYMENT",
      "outputs": [
        {
          "internalType": "uint256",
          "name": "",
          "type": "uint256"
        }
      ],
      "stateMutability": "view",
      "type": "function"
    },
    {
      "inputs": [
        {
          "internalType": "uint256",
          "name": "_postId",
          "type": "uint256"
        },
        {
          "internalType": "address",
          "name": "_coowner",
          "type": "address"
        }
      ],
      "name": "addCoOwner",
      "outputs": [],
      "stateMutability": "nonpayable",
      "type": "function"
    },
    {
      "inputs": [
        {
          "internalType": "address",
          "name": "account",
          "type": "address"
        },
        {
          "internalType": "uint256",
          "name": "id",
          "type": "uint256"
        }
      ],
      "name": "balanceOf",
      "outputs": [
        {
          "internalType": "uint256",
          "name": "",
          "type": "uint256"
        }
      ],
      "stateMutability": "view",
      "type": "function"
    },
    {
      "inputs": [
        {
          "internalType": "address[]",
          "name": "accounts",
          "type": "address[]"
        },
        {
          "internalType": "uint256[]",
          "name": "ids",
          "type": "uint256[]"
        }
      ],
      "name": "balanceOfBatch",
      "outputs": [
        {
          "internalType": "uint256[]",
          "name": "",
          "type": "uint256[]"
        }
      ],
      "stateMutability": "view",
      "type": "function"
    },
    {
      "inputs": [
        {
          "internalType": "address",
          "name": "_owner",
          "type": "address"
        },
        {
          "internalType": "uint256",
          "name": "_postId",
          "type": "uint256"
        },
        {
          "internalType": "string",
          "name": "_uri",
          "type": "string"
        },
        {
          "internalType": "string",
          "name": "_uriTwo",
          "type": "string"
        },
        {
          "internalType": "string",
          "name": "_uriThree",
          "type": "string"
        },
        {
          "internalType": "uint256",
          "name": "_nftId",
          "type": "uint256"
        }
      ],
      "name": "basic",
      "outputs": [],
      "stateMutability": "payable",
      "type": "function"
    },
    {
      "inputs": [
        {
          "internalType": "address",
          "name": "",
          "type": "address"
        }
      ],
      "name": "bonus",
      "outputs": [
        {
          "internalType": "uint256",
          "name": "",
          "type": "uint256"
        }
      ],
      "stateMutability": "view",
      "type": "function"
    },
    {
      "inputs": [
        {
          "internalType": "uint256",
          "name": "",
          "type": "uint256"
        }
      ],
      "name": "idAvailability",
      "outputs": [
        {
          "internalType": "bool",
          "name": "",
          "type": "bool"
        }
      ],
      "stateMutability": "view",
      "type": "function"
    },
    {
      "inputs": [
        {
          "internalType": "address",
          "name": "account",
          "type": "address"
        },
        {
          "internalType": "address",
          "name": "operator",
          "type": "address"
        }
      ],
      "name": "isApprovedForAll",
      "outputs": [
        {
          "internalType": "bool",
          "name": "",
          "type": "bool"
        }
      ],
      "stateMutability": "view",
      "type": "function"
    },
    {
      "inputs": [
        {
          "internalType": "address",
          "name": "_owner",
          "type": "address"
        },
        {
          "internalType": "uint256",
          "name": "_postId",
          "type": "uint256"
        },
        {
          "internalType": "string",
          "name": "_uri",
          "type": "string"
        },
        {
          "internalType": "string",
          "name": "_uriTwo",
          "type": "string"
        },
        {
          "internalType": "string",
          "name": "_uriThree",
          "type": "string"
        },
        {
          "internalType": "uint256",
          "name": "_nftId",
          "type": "uint256"
        }
      ],
      "name": "oneOfOneMint",
      "outputs": [],
      "stateMutability": "payable",
      "type": "function"
    },
    {
      "inputs": [],
      "name": "owner",
      "outputs": [
        {
          "internalType": "address",
          "name": "",
          "type": "address"
        }
      ],
      "stateMutability": "view",
      "type": "function"
    },
    {
      "inputs": [],
      "name": "permissionless",
      "outputs": [
        {
          "internalType": "bool",
          "name": "",
          "type": "bool"
        }
      ],
      "stateMutability": "view",
      "type": "function"
    },
    {
      "inputs": [
        {
          "internalType": "uint256",
          "name": "",
          "type": "uint256"
        }
      ],
      "name": "posts",
      "outputs": [
        {
          "internalType": "address",
          "name": "owner",
          "type": "address"
        },
        {
          "internalType": "address",
          "name": "coowner",
          "type": "address"
        },
        {
          "internalType": "bool",
          "name": "isCoOwner",
          "type": "bool"
        },
        {
          "internalType": "uint256",
          "name": "minted",
          "type": "uint256"
        },
        {
          "internalType": "uint256",
          "name": "oneofoneMinted",
          "type": "uint256"
        },
        {
          "internalType": "uint256",
          "name": "quoteMinted",
          "type": "uint256"
        },
        {
          "internalType": "uint256",
          "name": "basicMinted",
          "type": "uint256"
        },
        {
          "internalType": "uint256",
          "name": "startingtime",
          "type": "uint256"
        },
        {
          "internalType": "string",
          "name": "uriFirst",
          "type": "string"
        },
        {
          "internalType": "string",
          "name": "uriSecond",
          "type": "string"
        },
        {
          "internalType": "string",
          "name": "uriThird",
          "type": "string"
        }
      ],
      "stateMutability": "view",
      "type": "function"
    },
    {
      "inputs": [],
      "name": "postsAllowed",
      "outputs": [
        {
          "internalType": "uint256",
          "name": "",
          "type": "uint256"
        }
      ],
      "stateMutability": "view",
      "type": "function"
    },
    {
      "inputs": [],
      "name": "postsNumber",
      "outputs": [
        {
          "internalType": "uint256",
          "name": "",
          "type": "uint256"
        }
      ],
      "stateMutability": "view",
      "type": "function"
    },
    {
      "inputs": [],
      "name": "price",
      "outputs": [
        {
          "internalType": "uint256",
          "name": "",
          "type": "uint256"
        }
      ],
      "stateMutability": "view",
      "type": "function"
    },
    {
      "inputs": [
        {
          "internalType": "address",
          "name": "_owner",
          "type": "address"
        },
        {
          "internalType": "uint256",
          "name": "_postId",
          "type": "uint256"
        },
        {
          "internalType": "string",
          "name": "_uri",
          "type": "string"
        },
        {
          "internalType": "string",
          "name": "_uriTwo",
          "type": "string"
        },
        {
          "internalType": "string",
          "name": "_uriThree",
          "type": "string"
        },
        {
          "internalType": "uint256",
          "name": "_nftId",
          "type": "uint256"
        }
      ],
      "name": "quoteMint",
      "outputs": [],
      "stateMutability": "payable",
      "type": "function"
    },
    {
      "inputs": [],
      "name": "renounceOwnership",
      "outputs": [],
      "stateMutability": "nonpayable",
      "type": "function"
    },
    {
      "inputs": [
        {
          "internalType": "address",
          "name": "from",
          "type": "address"
        },
        {
          "internalType": "address",
          "name": "to",
          "type": "address"
        },
        {
          "internalType": "uint256[]",
          "name": "ids",
          "type": "uint256[]"
        },
        {
          "internalType": "uint256[]",
          "name": "amounts",
          "type": "uint256[]"
        },
        {
          "internalType": "bytes",
          "name": "data",
          "type": "bytes"
        }
      ],
      "name": "safeBatchTransferFrom",
      "outputs": [],
      "stateMutability": "nonpayable",
      "type": "function"
    },
    {
      "inputs": [
        {
          "internalType": "address",
          "name": "from",
          "type": "address"
        },
        {
          "internalType": "address",
          "name": "to",
          "type": "address"
        },
        {
          "internalType": "uint256",
          "name": "id",
          "type": "uint256"
        },
        {
          "internalType": "uint256",
          "name": "amount",
          "type": "uint256"
        },
        {
          "internalType": "bytes",
          "name": "data",
          "type": "bytes"
        }
      ],
      "name": "safeTransferFrom",
      "outputs": [],
      "stateMutability": "nonpayable",
      "type": "function"
    },
    {
      "inputs": [
        {
          "internalType": "address",
          "name": "operator",
          "type": "address"
        },
        {
          "internalType": "bool",
          "name": "approved",
          "type": "bool"
        }
      ],
      "name": "setApprovalForAll",
      "outputs": [],
      "stateMutability": "nonpayable",
      "type": "function"
    },
    {
      "inputs": [],
      "name": "setPermisionless",
      "outputs": [],
      "stateMutability": "nonpayable",
      "type": "function"
    },
    {
      "inputs": [
        {
          "internalType": "uint256",
          "name": "_postNumber",
          "type": "uint256"
        }
      ],
      "name": "setPostNumberAllowed",
      "outputs": [],
      "stateMutability": "nonpayable",
      "type": "function"
    },
    {
      "inputs": [
        {
          "internalType": "uint256",
          "name": "_price",
          "type": "uint256"
        }
      ],
      "name": "setPrice",
      "outputs": [],
      "stateMutability": "nonpayable",
      "type": "function"
    },
    {
      "inputs": [],
      "name": "starttime",
      "outputs": [
        {
          "internalType": "uint256",
          "name": "",
          "type": "uint256"
        }
      ],
      "stateMutability": "view",
      "type": "function"
    },
    {
      "inputs": [
        {
          "internalType": "bytes4",
          "name": "interfaceId",
          "type": "bytes4"
        }
      ],
      "name": "supportsInterface",
      "outputs": [
        {
          "internalType": "bool",
          "name": "",
          "type": "bool"
        }
      ],
      "stateMutability": "view",
      "type": "function"
    },
    {
      "inputs": [
        {
          "internalType": "address",
          "name": "newOwner",
          "type": "address"
        }
      ],
      "name": "transferOwnership",
      "outputs": [],
      "stateMutability": "nonpayable",
      "type": "function"
    },
    {
      "inputs": [
        {
          "internalType": "uint256",
          "name": "tokenId",
          "type": "uint256"
        }
      ],
      "name": "uri",
      "outputs": [
        {
          "internalType": "string",
          "name": "",
          "type": "string"
        }
      ],
      "stateMutability": "view",
      "type": "function"
    },
    {
      "inputs": [
        {
          "internalType": "uint256",
          "name": "",
          "type": "uint256"
        }
      ],
      "name": "walletInfo",
      "outputs": [
        {
          "internalType": "uint256",
          "name": "walletOwner",
          "type": "uint256"
        },
        {
          "internalType": "uint256",
          "name": "walletCoauthor",
          "type": "uint256"
        }
      ],
      "stateMutability": "view",
      "type": "function"
    },
    {
      "inputs": [],
      "name": "walletSmartContract",
      "outputs": [
        {
          "internalType": "uint256",
          "name": "",
          "type": "uint256"
        }
      ],
      "stateMutability": "view",
      "type": "function"
    },
    {
      "inputs": [
        {
          "internalType": "uint256",
          "name": "_id",
          "type": "uint256"
        }
      ],
      "name": "withdraw",
      "outputs": [],
      "stateMutability": "nonpayable",
      "type": "function"
    },
    {
      "inputs": [],
      "name": "withdrawOwner",
      "outputs": [],
      "stateMutability": "nonpayable",
      "type": "function"
    }
  ],
  "bytecode": "0x608060405266038d7ea4c68000600955620d2f00600a5562278d00600b556005600c553480156200002f57600080fd5b506040518060200160405280600081525062000051816200007f60201b60201c565b5062000072620000666200009b60201b60201c565b620000a360201b60201c565b42600d819055506200027e565b80600290805190602001906200009792919062000169565b5050565b600033905090565b6000600360009054906101000a900473ffffffffffffffffffffffffffffffffffffffff16905081600360006101000a81548173ffffffffffffffffffffffffffffffffffffffff021916908373ffffffffffffffffffffffffffffffffffffffff1602179055508173ffffffffffffffffffffffffffffffffffffffff168173ffffffffffffffffffffffffffffffffffffffff167f8be0079c531659141344cd1fd0a4f28419497f9722a3daafe3b4186f6b6457e060405160405180910390a35050565b828054620001779062000248565b90600052602060002090601f0160209004810192826200019b5760008555620001e7565b82601f10620001b657805160ff1916838001178555620001e7565b82800160010185558215620001e7579182015b82811115620001e6578251825591602001919060010190620001c9565b5b509050620001f69190620001fa565b5090565b5b8082111562000215576000816000905550600101620001fb565b5090565b7f4e487b7100000000000000000000000000000000000000000000000000000000600052602260045260246000fd5b600060028204905060018216806200026157607f821691505b6020821081141562000278576200027762000219565b5b50919050565b6153cc806200028e6000396000f3fe6080604052600436106101e25760003560e01c806397755cc111610102578063cf89964611610095578063e8cc00ad11610064578063e8cc00ad146106d5578063e985e9c5146106ec578063f242432a14610729578063f2fde38b14610752576101e2565b8063cf89964614610628578063d8933ccd14610644578063d8cb4aa31461066d578063e6ed6e4d146106aa576101e2565b8063a22cb465116100d1578063a22cb4651461058d578063aa49a9d1146105b6578063bf73ef07146105d2578063c1e22a06146105fd576101e2565b806397755cc1146104bc5780639e79b066146104fa578063a035b1fe14610537578063a1256f9f14610562576101e2565b80632eb2c2d61161017a578063862506bf11610149578063862506bf146104125780638da588971461043d5780638da5cb5b1461046857806391b7f5ed14610493576101e2565b80632eb2c2d61461037e5780634e1273f4146103a75780636ada0bba146103e4578063715018a6146103fb576101e2565b80630e89341c116101b65780630e89341c146102d1578063132223531461030e5780632e1a7d4d1461032a5780632e66365214610353576101e2565b8062fdd58e146101e757806301ffc9a71461022457806305ae541c146102615780630b1e7f831461028a575b600080fd5b3480156101f357600080fd5b5061020e60048036038101906102099190613764565b61077b565b60405161021b91906137b3565b60405180910390f35b34801561023057600080fd5b5061024b60048036038101906102469190613826565b610844565b604051610258919061386e565b60405180910390f35b34801561026d57600080fd5b5061028860048036038101906102839190613889565b610926565b005b34801561029657600080fd5b506102b160048036038101906102ac9190613889565b610938565b6040516102c89b9a9998979695949392919061395e565b60405180910390f35b3480156102dd57600080fd5b506102f860048036038101906102f39190613889565b610b77565b6040516103059190613a1e565b60405180910390f35b61032860048036038101906103239190613b75565b610c1c565b005b34801561033657600080fd5b50610351600480360381019061034c9190613889565b6111c1565b005b34801561035f57600080fd5b5061036861160c565b60405161037591906137b3565b60405180910390f35b34801561038a57600080fd5b506103a560048036038101906103a09190613dbf565b611612565b005b3480156103b357600080fd5b506103ce60048036038101906103c99190613f51565b6116b3565b6040516103db9190614087565b60405180910390f35b3480156103f057600080fd5b506103f96117cc565b005b34801561040757600080fd5b506104106117f1565b005b34801561041e57600080fd5b50610427611805565b60405161043491906137b3565b60405180910390f35b34801561044957600080fd5b5061045261180b565b60405161045f91906137b3565b60405180910390f35b34801561047457600080fd5b5061047d611811565b60405161048a91906140a9565b60405180910390f35b34801561049f57600080fd5b506104ba60048036038101906104b59190613889565b61183b565b005b3480156104c857600080fd5b506104e360048036038101906104de9190613889565b61184d565b6040516104f19291906140c4565b60405180910390f35b34801561050657600080fd5b50610521600480360381019061051c9190613889565b611871565b60405161052e919061386e565b60405180910390f35b34801561054357600080fd5b5061054c611891565b60405161055991906137b3565b60405180910390f35b34801561056e57600080fd5b50610577611897565b604051610584919061386e565b60405180910390f35b34801561059957600080fd5b506105b460048036038101906105af9190614119565b6118aa565b005b6105d060048036038101906105cb9190613b75565b6118c0565b005b3480156105de57600080fd5b506105e7611dc1565b6040516105f491906137b3565b60405180910390f35b34801561060957600080fd5b50610612611dc7565b60405161061f91906137b3565b60405180910390f35b610642600480360381019061063d9190613b75565b611dcd565b005b34801561065057600080fd5b5061066b60048036038101906106669190614159565b61233c565b005b34801561067957600080fd5b50610694600480360381019061068f9190614199565b61249c565b6040516106a191906137b3565b60405180910390f35b3480156106b657600080fd5b506106bf6124b4565b6040516106cc91906137b3565b60405180910390f35b3480156106e157600080fd5b506106ea6124ba565b005b3480156106f857600080fd5b50610713600480360381019061070e91906141c6565b612545565b604051610720919061386e565b60405180910390f35b34801561073557600080fd5b50610750600480360381019061074b9190614206565b6125d9565b005b34801561075e57600080fd5b5061077960048036038101906107749190614199565b61267a565b005b60008073ffffffffffffffffffffffffffffffffffffffff168373ffffffffffffffffffffffffffffffffffffffff1614156107ec576040517f08c379a00000000000000000000000000000000000000000000000000000000081526004016107e39061430f565b60405180910390fd5b60008083815260200190815260200160002060008473ffffffffffffffffffffffffffffffffffffffff1673ffffffffffffffffffffffffffffffffffffffff16815260200190815260200160002054905092915050565b60007fd9b67a26000000000000000000000000000000000000000000000000000000007bffffffffffffffffffffffffffffffffffffffffffffffffffffffff1916827bffffffffffffffffffffffffffffffffffffffffffffffffffffffff1916148061090f57507f0e89341c000000000000000000000000000000000000000000000000000000007bffffffffffffffffffffffffffffffffffffffffffffffffffffffff1916827bffffffffffffffffffffffffffffffffffffffffffffffffffffffff1916145b8061091f575061091e826126fe565b5b9050919050565b61092e612768565b80600c8190555050565b60066020528060005260406000206000915090508060000160009054906101000a900473ffffffffffffffffffffffffffffffffffffffff16908060010160009054906101000a900473ffffffffffffffffffffffffffffffffffffffff16908060010160149054906101000a900460ff16908060020154908060030154908060040154908060050154908060060154908060070180546109d89061435e565b80601f0160208091040260200160405190810160405280929190818152602001828054610a049061435e565b8015610a515780601f10610a2657610100808354040283529160200191610a51565b820191906000526020600020905b815481529060010190602001808311610a3457829003601f168201915b505050505090806008018054610a669061435e565b80601f0160208091040260200160405190810160405280929190818152602001828054610a929061435e565b8015610adf5780601f10610ab457610100808354040283529160200191610adf565b820191906000526020600020905b815481529060010190602001808311610ac257829003601f168201915b505050505090806009018054610af49061435e565b80601f0160208091040260200160405190810160405280929190818152602001828054610b209061435e565b8015610b6d5780601f10610b4257610100808354040283529160200191610b6d565b820191906000526020600020905b815481529060010190602001808311610b5057829003601f168201915b505050505090508b565b6060600460008381526020019081526020016000208054610b979061435e565b80601f0160208091040260200160405190810160405280929190818152602001828054610bc39061435e565b8015610c105780601f10610be557610100808354040283529160200191610c10565b820191906000526020600020905b815481529060010190602001808311610bf357829003601f168201915b50505050509050919050565b6000600660008781526020019081526020016000209050600954341015610c78576040517f08c379a0000000000000000000000000000000000000000000000000000000008152600401610c6f906143dc565b60405180910390fd5b82604051602001610c899190614438565b60405160208183030381529060405280519060200120604051602001610cae90614475565b604051602081830303815290604052805190602001201415610cfc576040517f8f6209df00000000000000000000000000000000000000000000000000000000815260040160405180910390fd5b600081600201541415610d4757601060009054906101000a900460ff16610d2e57600c54600e5410610d2d57600080fd5b5b600e6000815480929190610d41906144b9565b91905055505b600081600201541115610ebf5782604051602001610d659190614438565b6040516020818303038152906040528051906020012081600901604051602001610d8f9190614596565b6040516020818303038152906040528051906020012014610de5576040517f08c379a0000000000000000000000000000000000000000000000000000000008152600401610ddc906145f9565b60405180910390fd5b8673ffffffffffffffffffffffffffffffffffffffff168160000160009054906101000a900473ffffffffffffffffffffffffffffffffffffffff1673ffffffffffffffffffffffffffffffffffffffff1614610e77576040517f08c379a0000000000000000000000000000000000000000000000000000000008152600401610e6e90614665565b60405180910390fd5b6064816004015410610ebe576040517f08c379a0000000000000000000000000000000000000000000000000000000008152600401610eb5906146d1565b60405180910390fd5b5b600081600401541415610f2e576005600083815260200190815260200160002060009054906101000a900460ff1615610f2d576040517f08c379a0000000000000000000000000000000000000000000000000000000008152600401610f249061473d565b60405180910390fd5b5b600081600401541115610fd25782604051602001610f4c9190614438565b60405160208183030381529060405280519060200120610f6b83610b77565b604051602001610f7b9190614438565b6040516020818303038152906040528051906020012014610fd1576040517f08c379a0000000000000000000000000000000000000000000000000000000008152600401610fc8906145f9565b60405180910390fd5b5b610fee33836001604051806020016040528060008152506127e6565b610ff88284612997565b80600401600081548092919061100d906144b9565b91905055506000816002015414156110b757868160000160006101000a81548173ffffffffffffffffffffffffffffffffffffffff021916908373ffffffffffffffffffffffffffffffffffffffff1602179055508481600701908051906020019061107a929190613619565b5083816008019080519060200190611093929190613619565b50828160090190805190602001906110ac929190613619565b504281600601819055505b60646055346110c6919061475d565b6110d091906147e6565b6007600088815260200190815260200160002060000160008282546110f59190614817565b925050819055506064600a3461110b919061475d565b61111591906147e6565b60076000888152602001908152602001600020600101600082825461113a9190614817565b925050819055506064600534611150919061475d565b61115a91906147e6565b600f600082825461116b9190614817565b92505081905550806002016000815480929190611187906144b9565b919050555060016005600084815260200190815260200160002060006101000a81548160ff02191690831515021790555050505050505050565b60006006600083815260200190815260200160002090508060000160009054906101000a900473ffffffffffffffffffffffffffffffffffffffff1673ffffffffffffffffffffffffffffffffffffffff163373ffffffffffffffffffffffffffffffffffffffff161461126a576040517f08c379a0000000000000000000000000000000000000000000000000000000008152600401611261906148b9565b60405180910390fd5b42600a54826006015461127d9190614817565b106112bd576040517f08c379a00000000000000000000000000000000000000000000000000000000081526004016112b490614925565b60405180910390fd5b42600b54600d546112ce9190614817565b1061130e576040517f08c379a0000000000000000000000000000000000000000000000000000000008152600401611305906149b7565b60405180910390fd5b8060010160149054906101000a900460ff16156114b25760008160010160009054906101000a900473ffffffffffffffffffffffffffffffffffffffff1673ffffffffffffffffffffffffffffffffffffffff16600860008460000160009054906101000a900473ffffffffffffffffffffffffffffffffffffffff1673ffffffffffffffffffffffffffffffffffffffff1673ffffffffffffffffffffffffffffffffffffffff1681526020019081526020016000205460076000868152602001908152602001600020600101546113e79190614817565b6040516113f390614a05565b60006040518083038185875af1925050503d8060008114611430576040519150601f19603f3d011682016040523d82523d6000602084013e611435565b606091505b505090508061144357600080fd5b6000600860008460000160009054906101000a900473ffffffffffffffffffffffffffffffffffffffff1673ffffffffffffffffffffffffffffffffffffffff1673ffffffffffffffffffffffffffffffffffffffff1681526020019081526020016000208190555050611543565b6007600083815260200190815260200160002060010154600860008360000160009054906101000a900473ffffffffffffffffffffffffffffffffffffffff1673ffffffffffffffffffffffffffffffffffffffff1673ffffffffffffffffffffffffffffffffffffffff168152602001908152602001600020600082825461153b9190614817565b925050819055505b60003373ffffffffffffffffffffffffffffffffffffffff16600760008581526020019081526020016000206000015460405161157f90614a05565b60006040518083038185875af1925050503d80600081146115bc576040519150601f19603f3d011682016040523d82523d6000602084013e6115c1565b606091505b50509050806115cf57600080fd5b6000600760008581526020019081526020016000206000018190555060006007600085815260200190815260200160002060010181905550505050565b600a5481565b61161a6129c3565b73ffffffffffffffffffffffffffffffffffffffff168573ffffffffffffffffffffffffffffffffffffffff161480611660575061165f8561165a6129c3565b612545565b5b61169f576040517f08c379a000000000000000000000000000000000000000000000000000000000815260040161169690614a8c565b60405180910390fd5b6116ac85858585856129cb565b5050505050565b606081518351146116f9576040517f08c379a00000000000000000000000000000000000000000000000000000000081526004016116f090614b1e565b60405180910390fd5b6000835167ffffffffffffffff81111561171657611715613a4a565b5b6040519080825280602002602001820160405280156117445781602001602082028036833780820191505090505b50905060005b84518110156117c15761179185828151811061176957611768614b3e565b5b602002602001015185838151811061178457611783614b3e565b5b602002602001015161077b565b8282815181106117a4576117a3614b3e565b5b602002602001018181525050806117ba906144b9565b905061174a565b508091505092915050565b6117d4612768565b6001601060006101000a81548160ff021916908315150217905550565b6117f9612768565b6118036000612ced565b565b600c5481565b600d5481565b6000600360009054906101000a900473ffffffffffffffffffffffffffffffffffffffff16905090565b611843612768565b8060098190555050565b60076020528060005260406000206000915090508060000154908060010154905082565b60056020528060005260406000206000915054906101000a900460ff1681565b60095481565b601060009054906101000a900460ff1681565b6118bc6118b56129c3565b8383612db3565b5050565b6000600660008781526020019081526020016000209050600081600301541461191e576040517f08c379a0000000000000000000000000000000000000000000000000000000008152600401611915906146d1565b60405180910390fd5b600954341015611963576040517f08c379a000000000000000000000000000000000000000000000000000000000815260040161195a906143dc565b60405180910390fd5b846040516020016119749190614438565b6040516020818303038152906040528051906020012060405160200161199990614475565b6040516020818303038152906040528051906020012014156119e7576040517f8f6209df00000000000000000000000000000000000000000000000000000000815260040160405180910390fd5b600081600201541415611a3257601060009054906101000a900460ff16611a1957600c54600e5410611a1857600080fd5b5b600e6000815480929190611a2c906144b9565b91905055505b600081600201541115611b635784604051602001611a509190614438565b6040516020818303038152906040528051906020012081600701604051602001611a7a9190614596565b6040516020818303038152906040528051906020012014611ad0576040517f08c379a0000000000000000000000000000000000000000000000000000000008152600401611ac7906145f9565b60405180910390fd5b8673ffffffffffffffffffffffffffffffffffffffff168160000160009054906101000a900473ffffffffffffffffffffffffffffffffffffffff1673ffffffffffffffffffffffffffffffffffffffff1614611b62576040517f08c379a0000000000000000000000000000000000000000000000000000000008152600401611b5990614665565b60405180910390fd5b5b600081600301541415611bd2576005600083815260200190815260200160002060009054906101000a900460ff1615611bd1576040517f08c379a0000000000000000000000000000000000000000000000000000000008152600401611bc89061473d565b60405180910390fd5b5b611bee33836001604051806020016040528060008152506127e6565b611bf88286612997565b806003016000815480929190611c0d906144b9565b9190505550600081600201541415611cb757868160000160006101000a81548173ffffffffffffffffffffffffffffffffffffffff021916908373ffffffffffffffffffffffffffffffffffffffff16021790555084816007019080519060200190611c7a929190613619565b5083816008019080519060200190611c93929190613619565b5082816009019080519060200190611cac929190613619565b504281600601819055505b6064605534611cc6919061475d565b611cd091906147e6565b600760008881526020019081526020016000206000016000828254611cf59190614817565b925050819055506064600a34611d0b919061475d565b611d1591906147e6565b600760008881526020019081526020016000206001016000828254611d3a9190614817565b925050819055506064600534611d50919061475d565b611d5a91906147e6565b600f6000828254611d6b9190614817565b92505081905550806002016000815480929190611d87906144b9565b919050555060016005600084815260200190815260200160002060006101000a81548160ff02191690831515021790555050505050505050565b600f5481565b600e5481565b6000600660008781526020019081526020016000209050600954341015611e29576040517f08c379a0000000000000000000000000000000000000000000000000000000008152600401611e20906143dc565b60405180910390fd5b83604051602001611e3a9190614438565b60405160208183030381529060405280519060200120604051602001611e5f90614475565b604051602081830303815290604052805190602001201415611ead576040517f8f6209df00000000000000000000000000000000000000000000000000000000815260040160405180910390fd5b600081600201541415611ef857601060009054906101000a900460ff16611edf57600c54600e5410611ede57600080fd5b5b600e6000815480929190611ef2906144b9565b91905055505b6000816002015411156120705783604051602001611f169190614438565b6040516020818303038152906040528051906020012081600801604051602001611f409190614596565b6040516020818303038152906040528051906020012014611f96576040517f08c379a0000000000000000000000000000000000000000000000000000000008152600401611f8d906145f9565b60405180910390fd5b8673ffffffffffffffffffffffffffffffffffffffff168160000160009054906101000a900473ffffffffffffffffffffffffffffffffffffffff1673ffffffffffffffffffffffffffffffffffffffff1614612028576040517f08c379a000000000000000000000000000000000000000000000000000000000815260040161201f90614665565b60405180910390fd5b606481600501541061206f576040517f08c379a0000000000000000000000000000000000000000000000000000000008152600401612066906146d1565b60405180910390fd5b5b6000816005015414156120df576005600083815260200190815260200160002060009054906101000a900460ff16156120de576040517f08c379a00000000000000000000000000000000000000000000000000000000081526004016120d59061473d565b60405180910390fd5b5b60008160050154111561214d57836040516020016120fd9190614438565b6040516020818303038152906040528051906020012061211c83610b77565b60405160200161212c9190614438565b604051602081830303815290604052805190602001201461214c57600080fd5b5b61216933836001604051806020016040528060008152506127e6565b6121738285612997565b806005016000815480929190612188906144b9565b919050555060008160020154141561223257868160000160006101000a81548173ffffffffffffffffffffffffffffffffffffffff021916908373ffffffffffffffffffffffffffffffffffffffff160217905550848160070190805190602001906121f5929190613619565b508381600801908051906020019061220e929190613619565b5082816009019080519060200190612227929190613619565b504281600601819055505b6064605534612241919061475d565b61224b91906147e6565b6007600088815260200190815260200160002060000160008282546122709190614817565b925050819055506064600a34612286919061475d565b61229091906147e6565b6007600088815260200190815260200160002060010160008282546122b59190614817565b9250508190555060646005346122cb919061475d565b6122d591906147e6565b600f60008282546122e69190614817565b92505081905550806002016000815480929190612302906144b9565b919050555060016005600084815260200190815260200160002060006101000a81548160ff02191690831515021790555050505050505050565b60006006600084815260200190815260200160002090503373ffffffffffffffffffffffffffffffffffffffff168160000160009054906101000a900473ffffffffffffffffffffffffffffffffffffffff1673ffffffffffffffffffffffffffffffffffffffff16146123e5576040517f08c379a00000000000000000000000000000000000000000000000000000000081526004016123dc90614bb9565b60405180910390fd5b8060010160149054906101000a900460ff1615612437576040517f08c379a000000000000000000000000000000000000000000000000000000000815260040161242e90614c25565b60405180910390fd5b818160010160006101000a81548173ffffffffffffffffffffffffffffffffffffffff021916908373ffffffffffffffffffffffffffffffffffffffff16021790555060018160010160146101000a81548160ff021916908315150217905550505050565b60086020528060005260406000206000915090505481565b600b5481565b6124c2612768565b60003373ffffffffffffffffffffffffffffffffffffffff16600f546040516124ea90614a05565b60006040518083038185875af1925050503d8060008114612527576040519150601f19603f3d011682016040523d82523d6000602084013e61252c565b606091505b505090508061253a57600080fd5b6000600f8190555050565b6000600160008473ffffffffffffffffffffffffffffffffffffffff1673ffffffffffffffffffffffffffffffffffffffff16815260200190815260200160002060008373ffffffffffffffffffffffffffffffffffffffff1673ffffffffffffffffffffffffffffffffffffffff16815260200190815260200160002060009054906101000a900460ff16905092915050565b6125e16129c3565b73ffffffffffffffffffffffffffffffffffffffff168573ffffffffffffffffffffffffffffffffffffffff1614806126275750612626856126216129c3565b612545565b5b612666576040517f08c379a000000000000000000000000000000000000000000000000000000000815260040161265d90614a8c565b60405180910390fd5b6126738585858585612f20565b5050505050565b612682612768565b600073ffffffffffffffffffffffffffffffffffffffff168173ffffffffffffffffffffffffffffffffffffffff1614156126f2576040517f08c379a00000000000000000000000000000000000000000000000000000000081526004016126e990614cb7565b60405180910390fd5b6126fb81612ced565b50565b60007f01ffc9a7000000000000000000000000000000000000000000000000000000007bffffffffffffffffffffffffffffffffffffffffffffffffffffffff1916827bffffffffffffffffffffffffffffffffffffffffffffffffffffffff1916149050919050565b6127706129c3565b73ffffffffffffffffffffffffffffffffffffffff1661278e611811565b73ffffffffffffffffffffffffffffffffffffffff16146127e4576040517f08c379a00000000000000000000000000000000000000000000000000000000081526004016127db90614d23565b60405180910390fd5b565b600073ffffffffffffffffffffffffffffffffffffffff168473ffffffffffffffffffffffffffffffffffffffff161415612856576040517f08c379a000000000000000000000000000000000000000000000000000000000815260040161284d90614db5565b60405180910390fd5b60006128606129c3565b9050600061286d856131bc565b9050600061287a856131bc565b905061288b83600089858589613236565b8460008088815260200190815260200160002060008973ffffffffffffffffffffffffffffffffffffffff1673ffffffffffffffffffffffffffffffffffffffff16815260200190815260200160002060008282546128ea9190614817565b925050819055508673ffffffffffffffffffffffffffffffffffffffff16600073ffffffffffffffffffffffffffffffffffffffff168473ffffffffffffffffffffffffffffffffffffffff167fc3d58168c5ae7397731d063d5bbf3d657854427343f4c083240f7aacaa2d0f6289896040516129689291906140c4565b60405180910390a461297f8360008985858961323e565b61298e83600089898989613246565b50505050505050565b806004600084815260200190815260200160002090805190602001906129be929190613619565b505050565b600033905090565b8151835114612a0f576040517f08c379a0000000000000000000000000000000000000000000000000000000008152600401612a0690614e47565b60405180910390fd5b600073ffffffffffffffffffffffffffffffffffffffff168473ffffffffffffffffffffffffffffffffffffffff161415612a7f576040517f08c379a0000000000000000000000000000000000000000000000000000000008152600401612a7690614ed9565b60405180910390fd5b6000612a896129c3565b9050612a99818787878787613236565b60005b8451811015612c4a576000858281518110612aba57612ab9614b3e565b5b602002602001015190506000858381518110612ad957612ad8614b3e565b5b60200260200101519050600080600084815260200190815260200160002060008b73ffffffffffffffffffffffffffffffffffffffff1673ffffffffffffffffffffffffffffffffffffffff16815260200190815260200160002054905081811015612b7a576040517f08c379a0000000000000000000000000000000000000000000000000000000008152600401612b7190614f6b565b60405180910390fd5b81810360008085815260200190815260200160002060008c73ffffffffffffffffffffffffffffffffffffffff1673ffffffffffffffffffffffffffffffffffffffff168152602001908152602001600020819055508160008085815260200190815260200160002060008b73ffffffffffffffffffffffffffffffffffffffff1673ffffffffffffffffffffffffffffffffffffffff1681526020019081526020016000206000828254612c2f9190614817565b9250508190555050505080612c43906144b9565b9050612a9c565b508473ffffffffffffffffffffffffffffffffffffffff168673ffffffffffffffffffffffffffffffffffffffff168273ffffffffffffffffffffffffffffffffffffffff167f4a39dc06d4c0dbc64b70af90fd698a233a518aa5d07e595d983b8c0526c8f7fb8787604051612cc1929190614f8b565b60405180910390a4612cd781878787878761323e565b612ce581878787878761341e565b505050505050565b6000600360009054906101000a900473ffffffffffffffffffffffffffffffffffffffff16905081600360006101000a81548173ffffffffffffffffffffffffffffffffffffffff021916908373ffffffffffffffffffffffffffffffffffffffff1602179055508173ffffffffffffffffffffffffffffffffffffffff168173ffffffffffffffffffffffffffffffffffffffff167f8be0079c531659141344cd1fd0a4f28419497f9722a3daafe3b4186f6b6457e060405160405180910390a35050565b8173ffffffffffffffffffffffffffffffffffffffff168373ffffffffffffffffffffffffffffffffffffffff161415612e22576040517f08c379a0000000000000000000000000000000000000000000000000000000008152600401612e1990615034565b60405180910390fd5b80600160008573ffffffffffffffffffffffffffffffffffffffff1673ffffffffffffffffffffffffffffffffffffffff16815260200190815260200160002060008473ffffffffffffffffffffffffffffffffffffffff1673ffffffffffffffffffffffffffffffffffffffff16815260200190815260200160002060006101000a81548160ff0219169083151502179055508173ffffffffffffffffffffffffffffffffffffffff168373ffffffffffffffffffffffffffffffffffffffff167f17307eab39ab6107e8899845ad3d59bd9653f200f220920489ca2b5937696c3183604051612f13919061386e565b60405180910390a3505050565b600073ffffffffffffffffffffffffffffffffffffffff168473ffffffffffffffffffffffffffffffffffffffff161415612f90576040517f08c379a0000000000000000000000000000000000000000000000000000000008152600401612f8790614ed9565b60405180910390fd5b6000612f9a6129c3565b90506000612fa7856131bc565b90506000612fb4856131bc565b9050612fc4838989858589613236565b600080600088815260200190815260200160002060008a73ffffffffffffffffffffffffffffffffffffffff1673ffffffffffffffffffffffffffffffffffffffff1681526020019081526020016000205490508581101561305b576040517f08c379a000000000000000000000000000000000000000000000000000000000815260040161305290614f6b565b60405180910390fd5b85810360008089815260200190815260200160002060008b73ffffffffffffffffffffffffffffffffffffffff1673ffffffffffffffffffffffffffffffffffffffff168152602001908152602001600020819055508560008089815260200190815260200160002060008a73ffffffffffffffffffffffffffffffffffffffff1673ffffffffffffffffffffffffffffffffffffffff16815260200190815260200160002060008282546131109190614817565b925050819055508773ffffffffffffffffffffffffffffffffffffffff168973ffffffffffffffffffffffffffffffffffffffff168573ffffffffffffffffffffffffffffffffffffffff167fc3d58168c5ae7397731d063d5bbf3d657854427343f4c083240f7aacaa2d0f628a8a60405161318d9291906140c4565b60405180910390a46131a3848a8a86868a61323e565b6131b1848a8a8a8a8a613246565b505050505050505050565b60606000600167ffffffffffffffff8111156131db576131da613a4a565b5b6040519080825280602002602001820160405280156132095781602001602082028036833780820191505090505b509050828160008151811061322157613220614b3e565b5b60200260200101818152505080915050919050565b505050505050565b505050505050565b6132658473ffffffffffffffffffffffffffffffffffffffff166135f6565b15613416578373ffffffffffffffffffffffffffffffffffffffff1663f23a6e6187878686866040518663ffffffff1660e01b81526004016132ab9594939291906150a9565b6020604051808303816000875af19250505080156132e757506040513d601f19601f820116820180604052508101906132e49190615118565b60015b61338d576132f3615152565b806308c379a014156133505750613308615174565b806133135750613352565b806040517f08c379a00000000000000000000000000000000000000000000000000000000081526004016133479190613a1e565b60405180910390fd5b505b6040517f08c379a00000000000000000000000000000000000000000000000000000000081526004016133849061527c565b60405180910390fd5b63f23a6e6160e01b7bffffffffffffffffffffffffffffffffffffffffffffffffffffffff1916817bffffffffffffffffffffffffffffffffffffffffffffffffffffffff191614613414576040517f08c379a000000000000000000000000000000000000000000000000000000000815260040161340b9061530e565b60405180910390fd5b505b505050505050565b61343d8473ffffffffffffffffffffffffffffffffffffffff166135f6565b156135ee578373ffffffffffffffffffffffffffffffffffffffff1663bc197c8187878686866040518663ffffffff1660e01b815260040161348395949392919061532e565b6020604051808303816000875af19250505080156134bf57506040513d601f19601f820116820180604052508101906134bc9190615118565b60015b613565576134cb615152565b806308c379a0141561352857506134e0615174565b806134eb575061352a565b806040517f08c379a000000000000000000000000000000000000000000000000000000000815260040161351f9190613a1e565b60405180910390fd5b505b6040517f08c379a000000000000000000000000000000000000000000000000000000000815260040161355c9061527c565b60405180910390fd5b63bc197c8160e01b7bffffffffffffffffffffffffffffffffffffffffffffffffffffffff1916817bffffffffffffffffffffffffffffffffffffffffffffffffffffffff1916146135ec576040517f08c379a00000000000000000000000000000000000000000000000000000000081526004016135e39061530e565b60405180910390fd5b505b505050505050565b6000808273ffffffffffffffffffffffffffffffffffffffff163b119050919050565b8280546136259061435e565b90600052602060002090601f016020900481019282613647576000855561368e565b82601f1061366057805160ff191683800117855561368e565b8280016001018555821561368e579182015b8281111561368d578251825591602001919060010190613672565b5b50905061369b919061369f565b5090565b5b808211156136b85760008160009055506001016136a0565b5090565b6000604051905090565b600080fd5b600080fd5b600073ffffffffffffffffffffffffffffffffffffffff82169050919050565b60006136fb826136d0565b9050919050565b61370b816136f0565b811461371657600080fd5b50565b60008135905061372881613702565b92915050565b6000819050919050565b6137418161372e565b811461374c57600080fd5b50565b60008135905061375e81613738565b92915050565b6000806040838503121561377b5761377a6136c6565b5b600061378985828601613719565b925050602061379a8582860161374f565b9150509250929050565b6137ad8161372e565b82525050565b60006020820190506137c860008301846137a4565b92915050565b60007fffffffff0000000000000000000000000000000000000000000000000000000082169050919050565b613803816137ce565b811461380e57600080fd5b50565b600081359050613820816137fa565b92915050565b60006020828403121561383c5761383b6136c6565b5b600061384a84828501613811565b91505092915050565b60008115159050919050565b61386881613853565b82525050565b6000602082019050613883600083018461385f565b92915050565b60006020828403121561389f5761389e6136c6565b5b60006138ad8482850161374f565b91505092915050565b6138bf816136f0565b82525050565b600081519050919050565b600082825260208201905092915050565b60005b838110156138ff5780820151818401526020810190506138e4565b8381111561390e576000848401525b50505050565b6000601f19601f8301169050919050565b6000613930826138c5565b61393a81856138d0565b935061394a8185602086016138e1565b61395381613914565b840191505092915050565b600061016082019050613974600083018e6138b6565b613981602083018d6138b6565b61398e604083018c61385f565b61399b606083018b6137a4565b6139a8608083018a6137a4565b6139b560a08301896137a4565b6139c260c08301886137a4565b6139cf60e08301876137a4565b8181036101008301526139e28186613925565b90508181036101208301526139f78185613925565b9050818103610140830152613a0c8184613925565b90509c9b505050505050505050505050565b60006020820190508181036000830152613a388184613925565b905092915050565b600080fd5b600080fd5b7f4e487b7100000000000000000000000000000000000000000000000000000000600052604160045260246000fd5b613a8282613914565b810181811067ffffffffffffffff82111715613aa157613aa0613a4a565b5b80604052505050565b6000613ab46136bc565b9050613ac08282613a79565b919050565b600067ffffffffffffffff821115613ae057613adf613a4a565b5b613ae982613914565b9050602081019050919050565b82818337600083830152505050565b6000613b18613b1384613ac5565b613aaa565b905082815260208101848484011115613b3457613b33613a45565b5b613b3f848285613af6565b509392505050565b600082601f830112613b5c57613b5b613a40565b5b8135613b6c848260208601613b05565b91505092915050565b60008060008060008060c08789031215613b9257613b916136c6565b5b6000613ba089828a01613719565b9650506020613bb189828a0161374f565b955050604087013567ffffffffffffffff811115613bd257613bd16136cb565b5b613bde89828a01613b47565b945050606087013567ffffffffffffffff811115613bff57613bfe6136cb565b5b613c0b89828a01613b47565b935050608087013567ffffffffffffffff811115613c2c57613c2b6136cb565b5b613c3889828a01613b47565b92505060a0613c4989828a0161374f565b9150509295509295509295565b600067ffffffffffffffff821115613c7157613c70613a4a565b5b602082029050602081019050919050565b600080fd5b6000613c9a613c9584613c56565b613aaa565b90508083825260208201905060208402830185811115613cbd57613cbc613c82565b5b835b81811015613ce65780613cd2888261374f565b845260208401935050602081019050613cbf565b5050509392505050565b600082601f830112613d0557613d04613a40565b5b8135613d15848260208601613c87565b91505092915050565b600067ffffffffffffffff821115613d3957613d38613a4a565b5b613d4282613914565b9050602081019050919050565b6000613d62613d5d84613d1e565b613aaa565b905082815260208101848484011115613d7e57613d7d613a45565b5b613d89848285613af6565b509392505050565b600082601f830112613da657613da5613a40565b5b8135613db6848260208601613d4f565b91505092915050565b600080600080600060a08688031215613ddb57613dda6136c6565b5b6000613de988828901613719565b9550506020613dfa88828901613719565b945050604086013567ffffffffffffffff811115613e1b57613e1a6136cb565b5b613e2788828901613cf0565b935050606086013567ffffffffffffffff811115613e4857613e476136cb565b5b613e5488828901613cf0565b925050608086013567ffffffffffffffff811115613e7557613e746136cb565b5b613e8188828901613d91565b9150509295509295909350565b600067ffffffffffffffff821115613ea957613ea8613a4a565b5b602082029050602081019050919050565b6000613ecd613ec884613e8e565b613aaa565b90508083825260208201905060208402830185811115613ef057613eef613c82565b5b835b81811015613f195780613f058882613719565b845260208401935050602081019050613ef2565b5050509392505050565b600082601f830112613f3857613f37613a40565b5b8135613f48848260208601613eba565b91505092915050565b60008060408385031215613f6857613f676136c6565b5b600083013567ffffffffffffffff811115613f8657613f856136cb565b5b613f9285828601613f23565b925050602083013567ffffffffffffffff811115613fb357613fb26136cb565b5b613fbf85828601613cf0565b9150509250929050565b600081519050919050565b600082825260208201905092915050565b6000819050602082019050919050565b613ffe8161372e565b82525050565b60006140108383613ff5565b60208301905092915050565b6000602082019050919050565b600061403482613fc9565b61403e8185613fd4565b935061404983613fe5565b8060005b8381101561407a5781516140618882614004565b975061406c8361401c565b92505060018101905061404d565b5085935050505092915050565b600060208201905081810360008301526140a18184614029565b905092915050565b60006020820190506140be60008301846138b6565b92915050565b60006040820190506140d960008301856137a4565b6140e660208301846137a4565b9392505050565b6140f681613853565b811461410157600080fd5b50565b600081359050614113816140ed565b92915050565b600080604083850312156141305761412f6136c6565b5b600061413e85828601613719565b925050602061414f85828601614104565b9150509250929050565b600080604083850312156141705761416f6136c6565b5b600061417e8582860161374f565b925050602061418f85828601613719565b9150509250929050565b6000602082840312156141af576141ae6136c6565b5b60006141bd84828501613719565b91505092915050565b600080604083850312156141dd576141dc6136c6565b5b60006141eb85828601613719565b92505060206141fc85828601613719565b9150509250929050565b600080600080600060a08688031215614222576142216136c6565b5b600061423088828901613719565b955050602061424188828901613719565b94505060406142528882890161374f565b93505060606142638882890161374f565b925050608086013567ffffffffffffffff811115614284576142836136cb565b5b61429088828901613d91565b9150509295509295909350565b7f455243313135353a2061646472657373207a65726f206973206e6f742061207660008201527f616c6964206f776e657200000000000000000000000000000000000000000000602082015250565b60006142f9602a836138d0565b91506143048261429d565b604082019050919050565b60006020820190508181036000830152614328816142ec565b9050919050565b7f4e487b7100000000000000000000000000000000000000000000000000000000600052602260045260246000fd5b6000600282049050600182168061437657607f821691505b6020821081141561438a5761438961432f565b5b50919050565b7f4e6f7420656e6f75676820657468210000000000000000000000000000000000600082015250565b60006143c6600f836138d0565b91506143d182614390565b602082019050919050565b600060208201905081810360008301526143f5816143b9565b9050919050565b600081905092915050565b6000614412826138c5565b61441c81856143fc565b935061442c8185602086016138e1565b80840191505092915050565b60006144448284614407565b915081905092915050565b50565b600061445f6000836143fc565b915061446a8261444f565b600082019050919050565b600061448082614452565b9150819050919050565b7f4e487b7100000000000000000000000000000000000000000000000000000000600052601160045260246000fd5b60006144c48261372e565b91507fffffffffffffffffffffffffffffffffffffffffffffffffffffffffffffffff8214156144f7576144f661448a565b5b600182019050919050565b60008190508160005260206000209050919050565b600081546145248161435e565b61452e81866143fc565b94506001821660008114614549576001811461455a5761458d565b60ff1983168652818601935061458d565b61456385614502565b60005b8381101561458557815481890152600182019150602081019050614566565b838801955050505b50505092915050565b60006145a28284614517565b915081905092915050565b7f57726f6e67207572690000000000000000000000000000000000000000000000600082015250565b60006145e36009836138d0565b91506145ee826145ad565b602082019050919050565b60006020820190508181036000830152614612816145d6565b9050919050565b7f57726f6e67206f776e6572000000000000000000000000000000000000000000600082015250565b600061464f600b836138d0565b915061465a82614619565b602082019050919050565b6000602082019050818103600083015261467e81614642565b9050919050565b7f536f6c64206f7574000000000000000000000000000000000000000000000000600082015250565b60006146bb6008836138d0565b91506146c682614685565b602082019050919050565b600060208201905081810360008301526146ea816146ae565b9050919050565b7f4964206973206e6f7420617661696c61626c6500000000000000000000000000600082015250565b60006147276013836138d0565b9150614732826146f1565b602082019050919050565b600060208201905081810360008301526147568161471a565b9050919050565b60006147688261372e565b91506147738361372e565b9250817fffffffffffffffffffffffffffffffffffffffffffffffffffffffffffffffff04831182151516156147ac576147ab61448a565b5b828202905092915050565b7f4e487b7100000000000000000000000000000000000000000000000000000000600052601260045260246000fd5b60006147f18261372e565b91506147fc8361372e565b92508261480c5761480b6147b7565b5b828204905092915050565b60006148228261372e565b915061482d8361372e565b9250827fffffffffffffffffffffffffffffffffffffffffffffffffffffffffffffffff038211156148625761486161448a565b5b828201905092915050565b7f596f7520617265206e6f7420746865206f776e65722100000000000000000000600082015250565b60006148a36016836138d0565b91506148ae8261486d565b602082019050919050565b600060208201905081810360008301526148d281614896565b9050919050565b7f546f6f20736f6f6e000000000000000000000000000000000000000000000000600082015250565b600061490f6008836138d0565b915061491a826148d9565b602082019050919050565b6000602082019050818103600083015261493e81614902565b9050919050565b7f596f752063616e2077697468647261772033302064617973206166746572206460008201527f65706c6f796d656e740000000000000000000000000000000000000000000000602082015250565b60006149a16029836138d0565b91506149ac82614945565b604082019050919050565b600060208201905081810360008301526149d081614994565b9050919050565b600081905092915050565b60006149ef6000836149d7565b91506149fa8261444f565b600082019050919050565b6000614a10826149e2565b9150819050919050565b7f455243313135353a2063616c6c6572206973206e6f7420746f6b656e206f776e60008201527f6572206e6f7220617070726f7665640000000000000000000000000000000000602082015250565b6000614a76602f836138d0565b9150614a8182614a1a565b604082019050919050565b60006020820190508181036000830152614aa581614a69565b9050919050565b7f455243313135353a206163636f756e747320616e6420696473206c656e67746860008201527f206d69736d617463680000000000000000000000000000000000000000000000602082015250565b6000614b086029836138d0565b9150614b1382614aac565b604082019050919050565b60006020820190508181036000830152614b3781614afb565b9050919050565b7f4e487b7100000000000000000000000000000000000000000000000000000000600052603260045260246000fd5b7f596f7520617265206e6f7420746865206f776e65720000000000000000000000600082015250565b6000614ba36015836138d0565b9150614bae82614b6d565b602082019050919050565b60006020820190508181036000830152614bd281614b96565b9050919050565b7f546865726520697320616c7265616479206120636f2d617574686f7200000000600082015250565b6000614c0f601c836138d0565b9150614c1a82614bd9565b602082019050919050565b60006020820190508181036000830152614c3e81614c02565b9050919050565b7f4f776e61626c653a206e6577206f776e657220697320746865207a65726f206160008201527f6464726573730000000000000000000000000000000000000000000000000000602082015250565b6000614ca16026836138d0565b9150614cac82614c45565b604082019050919050565b60006020820190508181036000830152614cd081614c94565b9050919050565b7f4f776e61626c653a2063616c6c6572206973206e6f7420746865206f776e6572600082015250565b6000614d0d6020836138d0565b9150614d1882614cd7565b602082019050919050565b60006020820190508181036000830152614d3c81614d00565b9050919050565b7f455243313135353a206d696e7420746f20746865207a65726f2061646472657360008201527f7300000000000000000000000000000000000000000000000000000000000000602082015250565b6000614d9f6021836138d0565b9150614daa82614d43565b604082019050919050565b60006020820190508181036000830152614dce81614d92565b9050919050565b7f455243313135353a2069647320616e6420616d6f756e7473206c656e6774682060008201527f6d69736d61746368000000000000000000000000000000000000000000000000602082015250565b6000614e316028836138d0565b9150614e3c82614dd5565b604082019050919050565b60006020820190508181036000830152614e6081614e24565b9050919050565b7f455243313135353a207472616e7366657220746f20746865207a65726f20616460008201527f6472657373000000000000000000000000000000000000000000000000000000602082015250565b6000614ec36025836138d0565b9150614ece82614e67565b604082019050919050565b60006020820190508181036000830152614ef281614eb6565b9050919050565b7f455243313135353a20696e73756666696369656e742062616c616e636520666f60008201527f72207472616e7366657200000000000000000000000000000000000000000000602082015250565b6000614f55602a836138d0565b9150614f6082614ef9565b604082019050919050565b60006020820190508181036000830152614f8481614f48565b9050919050565b60006040820190508181036000830152614fa58185614029565b90508181036020830152614fb98184614029565b90509392505050565b7f455243313135353a2073657474696e6720617070726f76616c2073746174757360008201527f20666f722073656c660000000000000000000000000000000000000000000000602082015250565b600061501e6029836138d0565b915061502982614fc2565b604082019050919050565b6000602082019050818103600083015261504d81615011565b9050919050565b600081519050919050565b600082825260208201905092915050565b600061507b82615054565b615085818561505f565b93506150958185602086016138e1565b61509e81613914565b840191505092915050565b600060a0820190506150be60008301886138b6565b6150cb60208301876138b6565b6150d860408301866137a4565b6150e560608301856137a4565b81810360808301526150f78184615070565b90509695505050505050565b600081519050615112816137fa565b92915050565b60006020828403121561512e5761512d6136c6565b5b600061513c84828501615103565b91505092915050565b60008160e01c9050919050565b600060033d11156151715760046000803e61516e600051615145565b90505b90565b600060443d101561518457615207565b61518c6136bc565b60043d036004823e80513d602482011167ffffffffffffffff821117156151b4575050615207565b808201805167ffffffffffffffff8111156151d25750505050615207565b80602083010160043d0385018111156151ef575050505050615207565b6151fe82602001850186613a79565b82955050505050505b90565b7f455243313135353a207472616e7366657220746f206e6f6e204552433131353560008201527f526563656976657220696d706c656d656e746572000000000000000000000000602082015250565b60006152666034836138d0565b91506152718261520a565b604082019050919050565b6000602082019050818103600083015261529581615259565b9050919050565b7f455243313135353a204552433131353552656365697665722072656a6563746560008201527f6420746f6b656e73000000000000000000000000000000000000000000000000602082015250565b60006152f86028836138d0565b91506153038261529c565b604082019050919050565b60006020820190508181036000830152615327816152eb565b9050919050565b600060a08201905061534360008301886138b6565b61535060208301876138b6565b81810360408301526153628186614029565b905081810360608301526153768185614029565b9050818103608083015261538a8184615070565b9050969550505050505056fea26469706673582212204b1cc6108e95dbe37ea7108941b2f85926b0144c8e73f8ae758833c357d17eea64736f6c634300080c0033",
  "linkReferences": {},
  "deployedLinkReferences": {}
}