{
  "_format": "hh-sol-artifact-1",
  "contractName": "AlwriteGoerli",
  "sourceName": "contracts/AlwriteGoerli.sol",
  "abi": [
    {
      "inputs": [],
      "stateMutability": "nonpayable",
      "type": "constructor"
    },
    {
      "inputs": [],
      "name": "EmptySpace",
      "type": "error"
    },
    {
      "anonymous": false,
      "inputs": [
        {
          "indexed": true,
          "internalType": "address",
          "name": "account",
          "type": "address"
        },
        {
          "indexed": true,
          "internalType": "address",
          "name": "operator",
          "type": "address"
        },
        {
          "indexed": false,
          "internalType": "bool",
          "name": "approved",
          "type": "bool"
        }
      ],
      "name": "ApprovalForAll",
      "type": "event"
    },
    {
      "anonymous": false,
      "inputs": [
        {
          "indexed": true,
          "internalType": "address",
          "name": "previousOwner",
          "type": "address"
        },
        {
          "indexed": true,
          "internalType": "address",
          "name": "newOwner",
          "type": "address"
        }
      ],
      "name": "OwnershipTransferred",
      "type": "event"
    },
    {
      "anonymous": false,
      "inputs": [
        {
          "indexed": true,
          "internalType": "address",
          "name": "operator",
          "type": "address"
        },
        {
          "indexed": true,
          "internalType": "address",
          "name": "from",
          "type": "address"
        },
        {
          "indexed": true,
          "internalType": "address",
          "name": "to",
          "type": "address"
        },
        {
          "indexed": false,
          "internalType": "uint256[]",
          "name": "ids",
          "type": "uint256[]"
        },
        {
          "indexed": false,
          "internalType": "uint256[]",
          "name": "values",
          "type": "uint256[]"
        }
      ],
      "name": "TransferBatch",
      "type": "event"
    },
    {
      "anonymous": false,
      "inputs": [
        {
          "indexed": true,
          "internalType": "address",
          "name": "operator",
          "type": "address"
        },
        {
          "indexed": true,
          "internalType": "address",
          "name": "from",
          "type": "address"
        },
        {
          "indexed": true,
          "internalType": "address",
          "name": "to",
          "type": "address"
        },
        {
          "indexed": false,
          "internalType": "uint256",
          "name": "id",
          "type": "uint256"
        },
        {
          "indexed": false,
          "internalType": "uint256",
          "name": "value",
          "type": "uint256"
        }
      ],
      "name": "TransferSingle",
      "type": "event"
    },
    {
      "anonymous": false,
      "inputs": [
        {
          "indexed": false,
          "internalType": "string",
          "name": "value",
          "type": "string"
        },
        {
          "indexed": true,
          "internalType": "uint256",
          "name": "id",
          "type": "uint256"
        }
      ],
      "name": "URI",
      "type": "event"
    },
    {
      "inputs": [],
      "name": "LENGTH",
      "outputs": [
        {
          "internalType": "uint256",
          "name": "",
          "type": "uint256"
        }
      ],
      "stateMutability": "view",
      "type": "function"
    },
    {
      "inputs": [
        {
          "internalType": "uint256",
          "name": "_postId",
          "type": "uint256"
        },
        {
          "internalType": "address",
          "name": "_coowner",
          "type": "address"
        }
      ],
      "name": "addCoOwner",
      "outputs": [],
      "stateMutability": "nonpayable",
      "type": "function"
    },
    {
      "inputs": [
        {
          "internalType": "address",
          "name": "account",
          "type": "address"
        },
        {
          "internalType": "uint256",
          "name": "id",
          "type": "uint256"
        }
      ],
      "name": "balanceOf",
      "outputs": [
        {
          "internalType": "uint256",
          "name": "",
          "type": "uint256"
        }
      ],
      "stateMutability": "view",
      "type": "function"
    },
    {
      "inputs": [
        {
          "internalType": "address[]",
          "name": "accounts",
          "type": "address[]"
        },
        {
          "internalType": "uint256[]",
          "name": "ids",
          "type": "uint256[]"
        }
      ],
      "name": "balanceOfBatch",
      "outputs": [
        {
          "internalType": "uint256[]",
          "name": "",
          "type": "uint256[]"
        }
      ],
      "stateMutability": "view",
      "type": "function"
    },
    {
      "inputs": [
        {
          "internalType": "address",
          "name": "_owner",
          "type": "address"
        },
        {
          "internalType": "uint256",
          "name": "_postId",
          "type": "uint256"
        },
        {
          "internalType": "string",
          "name": "_uri",
          "type": "string"
        },
        {
          "internalType": "string",
          "name": "_uriTwo",
          "type": "string"
        },
        {
          "internalType": "string",
          "name": "_uriThree",
          "type": "string"
        },
        {
          "internalType": "uint256",
          "name": "_nftId",
          "type": "uint256"
        }
      ],
      "name": "basic",
      "outputs": [],
      "stateMutability": "payable",
      "type": "function"
    },
    {
      "inputs": [
        {
          "internalType": "address",
          "name": "",
          "type": "address"
        }
      ],
      "name": "bonus",
      "outputs": [
        {
          "internalType": "uint256",
          "name": "",
          "type": "uint256"
        }
      ],
      "stateMutability": "view",
      "type": "function"
    },
    {
      "inputs": [
        {
          "internalType": "uint256",
          "name": "",
          "type": "uint256"
        }
      ],
      "name": "idAvailabiltiy",
      "outputs": [
        {
          "internalType": "bool",
          "name": "",
          "type": "bool"
        }
      ],
      "stateMutability": "view",
      "type": "function"
    },
    {
      "inputs": [
        {
          "internalType": "address",
          "name": "account",
          "type": "address"
        },
        {
          "internalType": "address",
          "name": "operator",
          "type": "address"
        }
      ],
      "name": "isApprovedForAll",
      "outputs": [
        {
          "internalType": "bool",
          "name": "",
          "type": "bool"
        }
      ],
      "stateMutability": "view",
      "type": "function"
    },
    {
      "inputs": [
        {
          "internalType": "address",
          "name": "_owner",
          "type": "address"
        },
        {
          "internalType": "uint256",
          "name": "_postId",
          "type": "uint256"
        },
        {
          "internalType": "string",
          "name": "_uri",
          "type": "string"
        },
        {
          "internalType": "string",
          "name": "_uriTwo",
          "type": "string"
        },
        {
          "internalType": "string",
          "name": "_uriThree",
          "type": "string"
        },
        {
          "internalType": "uint256",
          "name": "_nftId",
          "type": "uint256"
        }
      ],
      "name": "oneOfOneMint",
      "outputs": [],
      "stateMutability": "payable",
      "type": "function"
    },
    {
      "inputs": [],
      "name": "owner",
      "outputs": [
        {
          "internalType": "address",
          "name": "",
          "type": "address"
        }
      ],
      "stateMutability": "view",
      "type": "function"
    },
    {
      "inputs": [],
      "name": "permisionless",
      "outputs": [
        {
          "internalType": "bool",
          "name": "",
          "type": "bool"
        }
      ],
      "stateMutability": "view",
      "type": "function"
    },
    {
      "inputs": [
        {
          "internalType": "uint256",
          "name": "",
          "type": "uint256"
        }
      ],
      "name": "posts",
      "outputs": [
        {
          "internalType": "address",
          "name": "owner",
          "type": "address"
        },
        {
          "internalType": "address",
          "name": "coowner",
          "type": "address"
        },
        {
          "internalType": "bool",
          "name": "isCoOwner",
          "type": "bool"
        },
        {
          "internalType": "uint256",
          "name": "minted",
          "type": "uint256"
        },
        {
          "internalType": "uint256",
          "name": "oneofoneMinted",
          "type": "uint256"
        },
        {
          "internalType": "uint256",
          "name": "quoteMinted",
          "type": "uint256"
        },
        {
          "internalType": "uint256",
          "name": "basicMinted",
          "type": "uint256"
        },
        {
          "internalType": "uint256",
          "name": "startingtime",
          "type": "uint256"
        },
        {
          "internalType": "string",
          "name": "uriFirst",
          "type": "string"
        },
        {
          "internalType": "string",
          "name": "uriSecond",
          "type": "string"
        },
        {
          "internalType": "string",
          "name": "uriThird",
          "type": "string"
        }
      ],
      "stateMutability": "view",
      "type": "function"
    },
    {
      "inputs": [],
      "name": "postsAllowed",
      "outputs": [
        {
          "internalType": "uint256",
          "name": "",
          "type": "uint256"
        }
      ],
      "stateMutability": "view",
      "type": "function"
    },
    {
      "inputs": [],
      "name": "postsNumber",
      "outputs": [
        {
          "internalType": "uint256",
          "name": "",
          "type": "uint256"
        }
      ],
      "stateMutability": "view",
      "type": "function"
    },
    {
      "inputs": [],
      "name": "price",
      "outputs": [
        {
          "internalType": "uint256",
          "name": "",
          "type": "uint256"
        }
      ],
      "stateMutability": "view",
      "type": "function"
    },
    {
      "inputs": [
        {
          "internalType": "address",
          "name": "_owner",
          "type": "address"
        },
        {
          "internalType": "uint256",
          "name": "_postId",
          "type": "uint256"
        },
        {
          "internalType": "string",
          "name": "_uri",
          "type": "string"
        },
        {
          "internalType": "string",
          "name": "_uriTwo",
          "type": "string"
        },
        {
          "internalType": "string",
          "name": "_uriThree",
          "type": "string"
        },
        {
          "internalType": "uint256",
          "name": "_nftId",
          "type": "uint256"
        }
      ],
      "name": "quoteMint",
      "outputs": [],
      "stateMutability": "payable",
      "type": "function"
    },
    {
      "inputs": [],
      "name": "renounceOwnership",
      "outputs": [],
      "stateMutability": "nonpayable",
      "type": "function"
    },
    {
      "inputs": [
        {
          "internalType": "address",
          "name": "from",
          "type": "address"
        },
        {
          "internalType": "address",
          "name": "to",
          "type": "address"
        },
        {
          "internalType": "uint256[]",
          "name": "ids",
          "type": "uint256[]"
        },
        {
          "internalType": "uint256[]",
          "name": "amounts",
          "type": "uint256[]"
        },
        {
          "internalType": "bytes",
          "name": "data",
          "type": "bytes"
        }
      ],
      "name": "safeBatchTransferFrom",
      "outputs": [],
      "stateMutability": "nonpayable",
      "type": "function"
    },
    {
      "inputs": [
        {
          "internalType": "address",
          "name": "from",
          "type": "address"
        },
        {
          "internalType": "address",
          "name": "to",
          "type": "address"
        },
        {
          "internalType": "uint256",
          "name": "id",
          "type": "uint256"
        },
        {
          "internalType": "uint256",
          "name": "amount",
          "type": "uint256"
        },
        {
          "internalType": "bytes",
          "name": "data",
          "type": "bytes"
        }
      ],
      "name": "safeTransferFrom",
      "outputs": [],
      "stateMutability": "nonpayable",
      "type": "function"
    },
    {
      "inputs": [
        {
          "internalType": "address",
          "name": "operator",
          "type": "address"
        },
        {
          "internalType": "bool",
          "name": "approved",
          "type": "bool"
        }
      ],
      "name": "setApprovalForAll",
      "outputs": [],
      "stateMutability": "nonpayable",
      "type": "function"
    },
    {
      "inputs": [],
      "name": "setPermisionless",
      "outputs": [],
      "stateMutability": "nonpayable",
      "type": "function"
    },
    {
      "inputs": [
        {
          "internalType": "uint256",
          "name": "_postNumber",
          "type": "uint256"
        }
      ],
      "name": "setPostNumberAllowed",
      "outputs": [],
      "stateMutability": "nonpayable",
      "type": "function"
    },
    {
      "inputs": [
        {
          "internalType": "uint256",
          "name": "_price",
          "type": "uint256"
        }
      ],
      "name": "setPrice",
      "outputs": [],
      "stateMutability": "nonpayable",
      "type": "function"
    },
    {
      "inputs": [
        {
          "internalType": "bytes4",
          "name": "interfaceId",
          "type": "bytes4"
        }
      ],
      "name": "supportsInterface",
      "outputs": [
        {
          "internalType": "bool",
          "name": "",
          "type": "bool"
        }
      ],
      "stateMutability": "view",
      "type": "function"
    },
    {
      "inputs": [
        {
          "internalType": "address",
          "name": "newOwner",
          "type": "address"
        }
      ],
      "name": "transferOwnership",
      "outputs": [],
      "stateMutability": "nonpayable",
      "type": "function"
    },
    {
      "inputs": [
        {
          "internalType": "uint256",
          "name": "tokenId",
          "type": "uint256"
        }
      ],
      "name": "uri",
      "outputs": [
        {
          "internalType": "string",
          "name": "",
          "type": "string"
        }
      ],
      "stateMutability": "view",
      "type": "function"
    },
    {
      "inputs": [
        {
          "internalType": "uint256",
          "name": "",
          "type": "uint256"
        }
      ],
      "name": "walletInfo",
      "outputs": [
        {
          "internalType": "uint256",
          "name": "walletOwner",
          "type": "uint256"
        },
        {
          "internalType": "uint256",
          "name": "walletCoauthor",
          "type": "uint256"
        }
      ],
      "stateMutability": "view",
      "type": "function"
    },
    {
      "inputs": [
        {
          "internalType": "uint256",
          "name": "_id",
          "type": "uint256"
        }
      ],
      "name": "withdraw",
      "outputs": [],
      "stateMutability": "nonpayable",
      "type": "function"
    }
  ],
  "bytecode": "0x608060405266038d7ea4c68000600955620d2f00600a556005600c553480156200002857600080fd5b50604051806020016040528060008152506200004a816200007160201b60201c565b506200006b6200005f6200008660201b60201c565b6200008e60201b60201c565b620004b5565b8060029081620000829190620003ce565b5050565b600033905090565b6000600360009054906101000a900473ffffffffffffffffffffffffffffffffffffffff16905081600360006101000a81548173ffffffffffffffffffffffffffffffffffffffff021916908373ffffffffffffffffffffffffffffffffffffffff1602179055508173ffffffffffffffffffffffffffffffffffffffff168173ffffffffffffffffffffffffffffffffffffffff167f8be0079c531659141344cd1fd0a4f28419497f9722a3daafe3b4186f6b6457e060405160405180910390a35050565b600081519050919050565b7f4e487b7100000000000000000000000000000000000000000000000000000000600052604160045260246000fd5b7f4e487b7100000000000000000000000000000000000000000000000000000000600052602260045260246000fd5b60006002820490506001821680620001d657607f821691505b602082108103620001ec57620001eb6200018e565b5b50919050565b60008190508160005260206000209050919050565b60006020601f8301049050919050565b600082821b905092915050565b600060088302620002567fffffffffffffffffffffffffffffffffffffffffffffffffffffffffffffffff8262000217565b62000262868362000217565b95508019841693508086168417925050509392505050565b6000819050919050565b6000819050919050565b6000620002af620002a9620002a3846200027a565b62000284565b6200027a565b9050919050565b6000819050919050565b620002cb836200028e565b620002e3620002da82620002b6565b84845462000224565b825550505050565b600090565b620002fa620002eb565b62000307818484620002c0565b505050565b5b818110156200032f5762000323600082620002f0565b6001810190506200030d565b5050565b601f8211156200037e576200034881620001f2565b620003538462000207565b8101602085101562000363578190505b6200037b620003728562000207565b8301826200030c565b50505b505050565b600082821c905092915050565b6000620003a36000198460080262000383565b1980831691505092915050565b6000620003be838362000390565b9150826002028217905092915050565b620003d98262000154565b67ffffffffffffffff811115620003f557620003f46200015f565b5b620004018254620001bd565b6200040e82828562000333565b600060209050601f83116001811462000446576000841562000431578287015190505b6200043d8582620003b0565b865550620004ad565b601f1984166200045686620001f2565b60005b82811015620004805784890151825560018201915060208501945060208101905062000459565b86831015620004a057848901516200049c601f89168262000390565b8355505b6001600288020188555050505b505050505050565b61515d80620004c56000396000f3fe6080604052600436106101b65760003560e01c8063862506bf116100ec578063c1e22a061161008a578063d8cb4aa311610064578063d8cb4aa3146105eb578063e985e9c514610628578063f242432a14610665578063f2fde38b1461068e576101b6565b8063c1e22a061461057b578063cf899646146105a6578063d8933ccd146105c2576101b6565b806397755cc1116100c657806397755cc1146104cd578063a035b1fe1461050b578063a22cb46514610536578063aa49a9d11461055f576101b6565b8063862506bf1461044e5780638da5cb5b1461047957806391b7f5ed146104a4576101b6565b80631abd063d116101595780632eb2c2d6116101335780632eb2c2d6146103ba5780634e1273f4146103e35780636ada0bba14610420578063715018a614610437576101b6565b80631abd063d1461033b5780632e1a7d4d146103665780632e6636521461038f576101b6565b806305ae541c1161019557806305ae541c146102725780630b1e7f831461029b5780630e89341c146102e2578063132223531461031f576101b6565b8062fdd58e146101bb57806301b8f298146101f857806301ffc9a714610235575b600080fd5b3480156101c757600080fd5b506101e260048036038101906101dd9190613365565b6106b7565b6040516101ef91906133b4565b60405180910390f35b34801561020457600080fd5b5061021f600480360381019061021a91906133cf565b61077f565b60405161022c9190613417565b60405180910390f35b34801561024157600080fd5b5061025c6004803603810190610257919061348a565b61079f565b6040516102699190613417565b60405180910390f35b34801561027e57600080fd5b50610299600480360381019061029491906133cf565b610881565b005b3480156102a757600080fd5b506102c260048036038101906102bd91906133cf565b610893565b6040516102d99b9a99989796959493929190613556565b60405180910390f35b3480156102ee57600080fd5b50610309600480360381019061030491906133cf565b610ad2565b6040516103169190613616565b60405180910390f35b6103396004803603810190610334919061376d565b610b77565b005b34801561034757600080fd5b5061035061108d565b60405161035d9190613417565b60405180910390f35b34801561037257600080fd5b5061038d600480360381019061038891906133cf565b6110a0565b005b34801561039b57600080fd5b506103a46114ac565b6040516103b191906133b4565b60405180910390f35b3480156103c657600080fd5b506103e160048036038101906103dc91906139b7565b6114b2565b005b3480156103ef57600080fd5b5061040a60048036038101906104059190613b49565b611553565b6040516104179190613c7f565b60405180910390f35b34801561042c57600080fd5b5061043561166c565b005b34801561044357600080fd5b5061044c611691565b005b34801561045a57600080fd5b506104636116a5565b60405161047091906133b4565b60405180910390f35b34801561048557600080fd5b5061048e6116ab565b60405161049b9190613ca1565b60405180910390f35b3480156104b057600080fd5b506104cb60048036038101906104c691906133cf565b6116d5565b005b3480156104d957600080fd5b506104f460048036038101906104ef91906133cf565b6116e7565b604051610502929190613cbc565b60405180910390f35b34801561051757600080fd5b5061052061170b565b60405161052d91906133b4565b60405180910390f35b34801561054257600080fd5b5061055d60048036038101906105589190613d11565b611711565b005b6105796004803603810190610574919061376d565b611727565b005b34801561058757600080fd5b50610590611b99565b60405161059d91906133b4565b60405180910390f35b6105c060048036038101906105bb919061376d565b611b9f565b005b3480156105ce57600080fd5b506105e960048036038101906105e49190613d51565b61207f565b005b3480156105f757600080fd5b50610612600480360381019061060d9190613d91565b6121df565b60405161061f91906133b4565b60405180910390f35b34801561063457600080fd5b5061064f600480360381019061064a9190613dbe565b6121f7565b60405161065c9190613417565b60405180910390f35b34801561067157600080fd5b5061068c60048036038101906106879190613dfe565b61228b565b005b34801561069a57600080fd5b506106b560048036038101906106b09190613d91565b61232c565b005b60008073ffffffffffffffffffffffffffffffffffffffff168373ffffffffffffffffffffffffffffffffffffffff1603610727576040517f08c379a000000000000000000000000000000000000000000000000000000000815260040161071e90613f07565b60405180910390fd5b60008083815260200190815260200160002060008473ffffffffffffffffffffffffffffffffffffffff1673ffffffffffffffffffffffffffffffffffffffff16815260200190815260200160002054905092915050565b60056020528060005260406000206000915054906101000a900460ff1681565b60007fd9b67a26000000000000000000000000000000000000000000000000000000007bffffffffffffffffffffffffffffffffffffffffffffffffffffffff1916827bffffffffffffffffffffffffffffffffffffffffffffffffffffffff1916148061086a57507f0e89341c000000000000000000000000000000000000000000000000000000007bffffffffffffffffffffffffffffffffffffffffffffffffffffffff1916827bffffffffffffffffffffffffffffffffffffffffffffffffffffffff1916145b8061087a5750610879826123af565b5b9050919050565b610889612419565b80600c8190555050565b60076020528060005260406000206000915090508060000160009054906101000a900473ffffffffffffffffffffffffffffffffffffffff16908060010160009054906101000a900473ffffffffffffffffffffffffffffffffffffffff16908060010160149054906101000a900460ff169080600201549080600301549080600401549080600501549080600601549080600701805461093390613f56565b80601f016020809104026020016040519081016040528092919081815260200182805461095f90613f56565b80156109ac5780601f10610981576101008083540402835291602001916109ac565b820191906000526020600020905b81548152906001019060200180831161098f57829003601f168201915b5050505050908060080180546109c190613f56565b80601f01602080910402602001604051908101604052809291908181526020018280546109ed90613f56565b8015610a3a5780601f10610a0f57610100808354040283529160200191610a3a565b820191906000526020600020905b815481529060010190602001808311610a1d57829003601f168201915b505050505090806009018054610a4f90613f56565b80601f0160208091040260200160405190810160405280929190818152602001828054610a7b90613f56565b8015610ac85780601f10610a9d57610100808354040283529160200191610ac8565b820191906000526020600020905b815481529060010190602001808311610aab57829003601f168201915b505050505090508b565b6060600460008381526020019081526020016000208054610af290613f56565b80601f0160208091040260200160405190810160405280929190818152602001828054610b1e90613f56565b8015610b6b5780601f10610b4057610100808354040283529160200191610b6b565b820191906000526020600020905b815481529060010190602001808311610b4e57829003601f168201915b50505050509050919050565b600060076000878152602001908152602001600020905082604051602001610b9f9190613fc3565b60405160208183030381529060405280519060200120604051602001610bc490614000565b6040516020818303038152906040528051906020012003610c11576040517f8f6209df00000000000000000000000000000000000000000000000000000000815260040160405180910390fd5b6000816002015403610c5b57600d60009054906101000a900460ff16610c4257600c54600b5410610c4157600080fd5b5b600b6000815480929190610c5590614044565b91905055505b600081600201541115610dd35782604051602001610c799190613fc3565b6040516020818303038152906040528051906020012081600901604051602001610ca39190614124565b6040516020818303038152906040528051906020012014610cf9576040517f08c379a0000000000000000000000000000000000000000000000000000000008152600401610cf090614187565b60405180910390fd5b8673ffffffffffffffffffffffffffffffffffffffff168160000160009054906101000a900473ffffffffffffffffffffffffffffffffffffffff1673ffffffffffffffffffffffffffffffffffffffff1614610d8b576040517f08c379a0000000000000000000000000000000000000000000000000000000008152600401610d82906141f3565b60405180910390fd5b6064816004015410610dd2576040517f08c379a0000000000000000000000000000000000000000000000000000000008152600401610dc99061425f565b60405180910390fd5b5b6000816004015403610e41576005600083815260200190815260200160002060009054906101000a900460ff1615610e40576040517f08c379a0000000000000000000000000000000000000000000000000000000008152600401610e37906142cb565b60405180910390fd5b5b600081600401541115610ee55782604051602001610e5f9190613fc3565b60405160208183030381529060405280519060200120610e7e83610ad2565b604051602001610e8e9190613fc3565b6040516020818303038152906040528051906020012014610ee4576040517f08c379a0000000000000000000000000000000000000000000000000000000008152600401610edb90614337565b60405180910390fd5b5b610f013383600160405180602001604052806000815250612497565b610f0b8284612647565b806004016000815480929190610f2090614044565b91905055506000816002015403610fb457868160000160006101000a81548173ffffffffffffffffffffffffffffffffffffffff021916908373ffffffffffffffffffffffffffffffffffffffff16021790555084816007019081610f8591906144ee565b5083816008019081610f9791906144ee565b5082816009019081610fa991906144ee565b504281600601819055505b6064605a34610fc391906145c0565b610fcd9190614631565b600860008881526020019081526020016000206000016000828254610ff29190614662565b925050819055506064600a3461100891906145c0565b6110129190614631565b6008600088815260200190815260200160002060010160008282546110379190614662565b9250508190555080600201600081548092919061105390614044565b919050555060016005600084815260200190815260200160002060006101000a81548160ff02191690831515021790555050505050505050565b600d60009054906101000a900460ff1681565b60006007600083815260200190815260200160002090508060000160009054906101000a900473ffffffffffffffffffffffffffffffffffffffff1673ffffffffffffffffffffffffffffffffffffffff163373ffffffffffffffffffffffffffffffffffffffff1614611149576040517f08c379a0000000000000000000000000000000000000000000000000000000008152600401611140906146e2565b60405180910390fd5b42600a54826006015461115c9190614662565b1061119c576040517f08c379a00000000000000000000000000000000000000000000000000000000081526004016111939061474e565b60405180910390fd5b8060010160149054906101000a900460ff16156113525760006007600084815260200190815260200160002060010160009054906101000a900473ffffffffffffffffffffffffffffffffffffffff1673ffffffffffffffffffffffffffffffffffffffff16600660008460000160009054906101000a900473ffffffffffffffffffffffffffffffffffffffff1673ffffffffffffffffffffffffffffffffffffffff1673ffffffffffffffffffffffffffffffffffffffff1681526020019081526020016000205460086000868152602001908152602001600020600101546112879190614662565b6040516112939061479c565b60006040518083038185875af1925050503d80600081146112d0576040519150601f19603f3d011682016040523d82523d6000602084013e6112d5565b606091505b50509050806112e357600080fd5b6000600660008460000160009054906101000a900473ffffffffffffffffffffffffffffffffffffffff1673ffffffffffffffffffffffffffffffffffffffff1673ffffffffffffffffffffffffffffffffffffffff16815260200190815260200160002081905550506113e3565b6008600083815260200190815260200160002060010154600660008360000160009054906101000a900473ffffffffffffffffffffffffffffffffffffffff1673ffffffffffffffffffffffffffffffffffffffff1673ffffffffffffffffffffffffffffffffffffffff16815260200190815260200160002060008282546113db9190614662565b925050819055505b60003373ffffffffffffffffffffffffffffffffffffffff16600860008581526020019081526020016000206000015460405161141f9061479c565b60006040518083038185875af1925050503d806000811461145c576040519150601f19603f3d011682016040523d82523d6000602084013e611461565b606091505b505090508061146f57600080fd5b6000600860008581526020019081526020016000206000018190555060006008600085815260200190815260200160002060010181905550505050565b600a5481565b6114ba61266c565b73ffffffffffffffffffffffffffffffffffffffff168573ffffffffffffffffffffffffffffffffffffffff16148061150057506114ff856114fa61266c565b6121f7565b5b61153f576040517f08c379a000000000000000000000000000000000000000000000000000000000815260040161153690614823565b60405180910390fd5b61154c8585858585612674565b5050505050565b60608151835114611599576040517f08c379a0000000000000000000000000000000000000000000000000000000008152600401611590906148b5565b60405180910390fd5b6000835167ffffffffffffffff8111156115b6576115b5613642565b5b6040519080825280602002602001820160405280156115e45781602001602082028036833780820191505090505b50905060005b845181101561166157611631858281518110611609576116086148d5565b5b6020026020010151858381518110611624576116236148d5565b5b60200260200101516106b7565b828281518110611644576116436148d5565b5b6020026020010181815250508061165a90614044565b90506115ea565b508091505092915050565b611674612419565b6001600d60006101000a81548160ff021916908315150217905550565b611699612419565b6116a36000612995565b565b600c5481565b6000600360009054906101000a900473ffffffffffffffffffffffffffffffffffffffff16905090565b6116dd612419565b8060098190555050565b60086020528060005260406000206000915090508060000154908060010154905082565b60095481565b61172361171c61266c565b8383612a5b565b5050565b60006007600087815260200190815260200160002090506000816003015414611785576040517f08c379a000000000000000000000000000000000000000000000000000000000815260040161177c90614950565b60405180910390fd5b846040516020016117969190613fc3565b604051602081830303815290604052805190602001206040516020016117bb90614000565b6040516020818303038152906040528051906020012003611808576040517f8f6209df00000000000000000000000000000000000000000000000000000000815260040160405180910390fd5b600081600201540361185257600d60009054906101000a900460ff1661183957600c54600b541061183857600080fd5b5b600b600081548092919061184c90614044565b91905055505b60008160020154111561198357846040516020016118709190613fc3565b604051602081830303815290604052805190602001208160070160405160200161189a9190614124565b60405160208183030381529060405280519060200120146118f0576040517f08c379a00000000000000000000000000000000000000000000000000000000081526004016118e790614187565b60405180910390fd5b8673ffffffffffffffffffffffffffffffffffffffff168160000160009054906101000a900473ffffffffffffffffffffffffffffffffffffffff1673ffffffffffffffffffffffffffffffffffffffff1614611982576040517f08c379a0000000000000000000000000000000000000000000000000000000008152600401611979906141f3565b60405180910390fd5b5b60008160030154036119f1576005600083815260200190815260200160002060009054906101000a900460ff16156119f0576040517f08c379a00000000000000000000000000000000000000000000000000000000081526004016119e7906142cb565b60405180910390fd5b5b611a0d3383600160405180602001604052806000815250612497565b611a178286612647565b806003016000815480929190611a2c90614044565b91905055506000816002015403611ac057868160000160006101000a81548173ffffffffffffffffffffffffffffffffffffffff021916908373ffffffffffffffffffffffffffffffffffffffff16021790555084816007019081611a9191906144ee565b5083816008019081611aa391906144ee565b5082816009019081611ab591906144ee565b504281600601819055505b6064605a34611acf91906145c0565b611ad99190614631565b600860008881526020019081526020016000206000016000828254611afe9190614662565b925050819055506064600a34611b1491906145c0565b611b1e9190614631565b600860008881526020019081526020016000206001016000828254611b439190614662565b92505081905550806002016000815480929190611b5f90614044565b919050555060016005600084815260200190815260200160002060006101000a81548160ff02191690831515021790555050505050505050565b600b5481565b600060076000878152602001908152602001600020905083604051602001611bc79190613fc3565b60405160208183030381529060405280519060200120604051602001611bec90614000565b6040516020818303038152906040528051906020012003611c39576040517f8f6209df00000000000000000000000000000000000000000000000000000000815260040160405180910390fd5b6000816002015403611c8357600d60009054906101000a900460ff16611c6a57600c54600b5410611c6957600080fd5b5b600b6000815480929190611c7d90614044565b91905055505b600081600201541115611dfb5783604051602001611ca19190613fc3565b6040516020818303038152906040528051906020012081600801604051602001611ccb9190614124565b6040516020818303038152906040528051906020012014611d21576040517f08c379a0000000000000000000000000000000000000000000000000000000008152600401611d1890614187565b60405180910390fd5b8673ffffffffffffffffffffffffffffffffffffffff168160000160009054906101000a900473ffffffffffffffffffffffffffffffffffffffff1673ffffffffffffffffffffffffffffffffffffffff1614611db3576040517f08c379a0000000000000000000000000000000000000000000000000000000008152600401611daa906141f3565b60405180910390fd5b6064816005015410611dfa576040517f08c379a0000000000000000000000000000000000000000000000000000000008152600401611df19061425f565b60405180910390fd5b5b6000816005015403611e69576005600083815260200190815260200160002060009054906101000a900460ff1615611e68576040517f08c379a0000000000000000000000000000000000000000000000000000000008152600401611e5f906142cb565b60405180910390fd5b5b600081600501541115611ed75783604051602001611e879190613fc3565b60405160208183030381529060405280519060200120611ea683610ad2565b604051602001611eb69190613fc3565b6040516020818303038152906040528051906020012014611ed657600080fd5b5b611ef33383600160405180602001604052806000815250612497565b611efd8285612647565b806005016000815480929190611f1290614044565b91905055506000816002015403611fa657868160000160006101000a81548173ffffffffffffffffffffffffffffffffffffffff021916908373ffffffffffffffffffffffffffffffffffffffff16021790555084816007019081611f7791906144ee565b5083816008019081611f8991906144ee565b5082816009019081611f9b91906144ee565b504281600601819055505b6064605a34611fb591906145c0565b611fbf9190614631565b600860008881526020019081526020016000206000016000828254611fe49190614662565b925050819055506064600a34611ffa91906145c0565b6120049190614631565b6008600088815260200190815260200160002060010160008282546120299190614662565b9250508190555080600201600081548092919061204590614044565b919050555060016005600084815260200190815260200160002060006101000a81548160ff02191690831515021790555050505050505050565b60006007600084815260200190815260200160002090503373ffffffffffffffffffffffffffffffffffffffff168160000160009054906101000a900473ffffffffffffffffffffffffffffffffffffffff1673ffffffffffffffffffffffffffffffffffffffff1614612128576040517f08c379a000000000000000000000000000000000000000000000000000000000815260040161211f906149bc565b60405180910390fd5b8060010160149054906101000a900460ff161561217a576040517f08c379a0000000000000000000000000000000000000000000000000000000008152600401612171906149bc565b60405180910390fd5b818160010160006101000a81548173ffffffffffffffffffffffffffffffffffffffff021916908373ffffffffffffffffffffffffffffffffffffffff16021790555060018160010160146101000a81548160ff021916908315150217905550505050565b60066020528060005260406000206000915090505481565b6000600160008473ffffffffffffffffffffffffffffffffffffffff1673ffffffffffffffffffffffffffffffffffffffff16815260200190815260200160002060008373ffffffffffffffffffffffffffffffffffffffff1673ffffffffffffffffffffffffffffffffffffffff16815260200190815260200160002060009054906101000a900460ff16905092915050565b61229361266c565b73ffffffffffffffffffffffffffffffffffffffff168573ffffffffffffffffffffffffffffffffffffffff1614806122d957506122d8856122d361266c565b6121f7565b5b612318576040517f08c379a000000000000000000000000000000000000000000000000000000000815260040161230f90614823565b60405180910390fd5b6123258585858585612bc7565b5050505050565b612334612419565b600073ffffffffffffffffffffffffffffffffffffffff168173ffffffffffffffffffffffffffffffffffffffff16036123a3576040517f08c379a000000000000000000000000000000000000000000000000000000000815260040161239a90614a4e565b60405180910390fd5b6123ac81612995565b50565b60007f01ffc9a7000000000000000000000000000000000000000000000000000000007bffffffffffffffffffffffffffffffffffffffffffffffffffffffff1916827bffffffffffffffffffffffffffffffffffffffffffffffffffffffff1916149050919050565b61242161266c565b73ffffffffffffffffffffffffffffffffffffffff1661243f6116ab565b73ffffffffffffffffffffffffffffffffffffffff1614612495576040517f08c379a000000000000000000000000000000000000000000000000000000000815260040161248c90614aba565b60405180910390fd5b565b600073ffffffffffffffffffffffffffffffffffffffff168473ffffffffffffffffffffffffffffffffffffffff1603612506576040517f08c379a00000000000000000000000000000000000000000000000000000000081526004016124fd90614b4c565b60405180910390fd5b600061251061266c565b9050600061251d85612e62565b9050600061252a85612e62565b905061253b83600089858589612edc565b8460008088815260200190815260200160002060008973ffffffffffffffffffffffffffffffffffffffff1673ffffffffffffffffffffffffffffffffffffffff168152602001908152602001600020600082825461259a9190614662565b925050819055508673ffffffffffffffffffffffffffffffffffffffff16600073ffffffffffffffffffffffffffffffffffffffff168473ffffffffffffffffffffffffffffffffffffffff167fc3d58168c5ae7397731d063d5bbf3d657854427343f4c083240f7aacaa2d0f628989604051612618929190613cbc565b60405180910390a461262f83600089858589612ee4565b61263e83600089898989612eec565b50505050505050565b8060046000848152602001908152602001600020908161266791906144ee565b505050565b600033905090565b81518351146126b8576040517f08c379a00000000000000000000000000000000000000000000000000000000081526004016126af90614bde565b60405180910390fd5b600073ffffffffffffffffffffffffffffffffffffffff168473ffffffffffffffffffffffffffffffffffffffff1603612727576040517f08c379a000000000000000000000000000000000000000000000000000000000815260040161271e90614c70565b60405180910390fd5b600061273161266c565b9050612741818787878787612edc565b60005b84518110156128f2576000858281518110612762576127616148d5565b5b602002602001015190506000858381518110612781576127806148d5565b5b60200260200101519050600080600084815260200190815260200160002060008b73ffffffffffffffffffffffffffffffffffffffff1673ffffffffffffffffffffffffffffffffffffffff16815260200190815260200160002054905081811015612822576040517f08c379a000000000000000000000000000000000000000000000000000000000815260040161281990614d02565b60405180910390fd5b81810360008085815260200190815260200160002060008c73ffffffffffffffffffffffffffffffffffffffff1673ffffffffffffffffffffffffffffffffffffffff168152602001908152602001600020819055508160008085815260200190815260200160002060008b73ffffffffffffffffffffffffffffffffffffffff1673ffffffffffffffffffffffffffffffffffffffff16815260200190815260200160002060008282546128d79190614662565b92505081905550505050806128eb90614044565b9050612744565b508473ffffffffffffffffffffffffffffffffffffffff168673ffffffffffffffffffffffffffffffffffffffff168273ffffffffffffffffffffffffffffffffffffffff167f4a39dc06d4c0dbc64b70af90fd698a233a518aa5d07e595d983b8c0526c8f7fb8787604051612969929190614d22565b60405180910390a461297f818787878787612ee4565b61298d8187878787876130c3565b505050505050565b6000600360009054906101000a900473ffffffffffffffffffffffffffffffffffffffff16905081600360006101000a81548173ffffffffffffffffffffffffffffffffffffffff021916908373ffffffffffffffffffffffffffffffffffffffff1602179055508173ffffffffffffffffffffffffffffffffffffffff168173ffffffffffffffffffffffffffffffffffffffff167f8be0079c531659141344cd1fd0a4f28419497f9722a3daafe3b4186f6b6457e060405160405180910390a35050565b8173ffffffffffffffffffffffffffffffffffffffff168373ffffffffffffffffffffffffffffffffffffffff1603612ac9576040517f08c379a0000000000000000000000000000000000000000000000000000000008152600401612ac090614dcb565b60405180910390fd5b80600160008573ffffffffffffffffffffffffffffffffffffffff1673ffffffffffffffffffffffffffffffffffffffff16815260200190815260200160002060008473ffffffffffffffffffffffffffffffffffffffff1673ffffffffffffffffffffffffffffffffffffffff16815260200190815260200160002060006101000a81548160ff0219169083151502179055508173ffffffffffffffffffffffffffffffffffffffff168373ffffffffffffffffffffffffffffffffffffffff167f17307eab39ab6107e8899845ad3d59bd9653f200f220920489ca2b5937696c3183604051612bba9190613417565b60405180910390a3505050565b600073ffffffffffffffffffffffffffffffffffffffff168473ffffffffffffffffffffffffffffffffffffffff1603612c36576040517f08c379a0000000000000000000000000000000000000000000000000000000008152600401612c2d90614c70565b60405180910390fd5b6000612c4061266c565b90506000612c4d85612e62565b90506000612c5a85612e62565b9050612c6a838989858589612edc565b600080600088815260200190815260200160002060008a73ffffffffffffffffffffffffffffffffffffffff1673ffffffffffffffffffffffffffffffffffffffff16815260200190815260200160002054905085811015612d01576040517f08c379a0000000000000000000000000000000000000000000000000000000008152600401612cf890614d02565b60405180910390fd5b85810360008089815260200190815260200160002060008b73ffffffffffffffffffffffffffffffffffffffff1673ffffffffffffffffffffffffffffffffffffffff168152602001908152602001600020819055508560008089815260200190815260200160002060008a73ffffffffffffffffffffffffffffffffffffffff1673ffffffffffffffffffffffffffffffffffffffff1681526020019081526020016000206000828254612db69190614662565b925050819055508773ffffffffffffffffffffffffffffffffffffffff168973ffffffffffffffffffffffffffffffffffffffff168573ffffffffffffffffffffffffffffffffffffffff167fc3d58168c5ae7397731d063d5bbf3d657854427343f4c083240f7aacaa2d0f628a8a604051612e33929190613cbc565b60405180910390a4612e49848a8a86868a612ee4565b612e57848a8a8a8a8a612eec565b505050505050505050565b60606000600167ffffffffffffffff811115612e8157612e80613642565b5b604051908082528060200260200182016040528015612eaf5781602001602082028036833780820191505090505b5090508281600081518110612ec757612ec66148d5565b5b60200260200101818152505080915050919050565b505050505050565b505050505050565b612f0b8473ffffffffffffffffffffffffffffffffffffffff1661329a565b156130bb578373ffffffffffffffffffffffffffffffffffffffff1663f23a6e6187878686866040518663ffffffff1660e01b8152600401612f51959493929190614e40565b6020604051808303816000875af1925050508015612f8d57506040513d601f19601f82011682018060405250810190612f8a9190614eaf565b60015b61303257612f99614ee9565b806308c379a003612ff55750612fad614f0b565b80612fb85750612ff7565b806040517f08c379a0000000000000000000000000000000000000000000000000000000008152600401612fec9190613616565b60405180910390fd5b505b6040517f08c379a00000000000000000000000000000000000000000000000000000000081526004016130299061500d565b60405180910390fd5b63f23a6e6160e01b7bffffffffffffffffffffffffffffffffffffffffffffffffffffffff1916817bffffffffffffffffffffffffffffffffffffffffffffffffffffffff1916146130b9576040517f08c379a00000000000000000000000000000000000000000000000000000000081526004016130b09061509f565b60405180910390fd5b505b505050505050565b6130e28473ffffffffffffffffffffffffffffffffffffffff1661329a565b15613292578373ffffffffffffffffffffffffffffffffffffffff1663bc197c8187878686866040518663ffffffff1660e01b81526004016131289594939291906150bf565b6020604051808303816000875af192505050801561316457506040513d601f19601f820116820180604052508101906131619190614eaf565b60015b61320957613170614ee9565b806308c379a0036131cc5750613184614f0b565b8061318f57506131ce565b806040517f08c379a00000000000000000000000000000000000000000000000000000000081526004016131c39190613616565b60405180910390fd5b505b6040517f08c379a00000000000000000000000000000000000000000000000000000000081526004016132009061500d565b60405180910390fd5b63bc197c8160e01b7bffffffffffffffffffffffffffffffffffffffffffffffffffffffff1916817bffffffffffffffffffffffffffffffffffffffffffffffffffffffff191614613290576040517f08c379a00000000000000000000000000000000000000000000000000000000081526004016132879061509f565b60405180910390fd5b505b505050505050565b6000808273ffffffffffffffffffffffffffffffffffffffff163b119050919050565b6000604051905090565b600080fd5b600080fd5b600073ffffffffffffffffffffffffffffffffffffffff82169050919050565b60006132fc826132d1565b9050919050565b61330c816132f1565b811461331757600080fd5b50565b60008135905061332981613303565b92915050565b6000819050919050565b6133428161332f565b811461334d57600080fd5b50565b60008135905061335f81613339565b92915050565b6000806040838503121561337c5761337b6132c7565b5b600061338a8582860161331a565b925050602061339b85828601613350565b9150509250929050565b6133ae8161332f565b82525050565b60006020820190506133c960008301846133a5565b92915050565b6000602082840312156133e5576133e46132c7565b5b60006133f384828501613350565b91505092915050565b60008115159050919050565b613411816133fc565b82525050565b600060208201905061342c6000830184613408565b92915050565b60007fffffffff0000000000000000000000000000000000000000000000000000000082169050919050565b61346781613432565b811461347257600080fd5b50565b6000813590506134848161345e565b92915050565b6000602082840312156134a05761349f6132c7565b5b60006134ae84828501613475565b91505092915050565b6134c0816132f1565b82525050565b600081519050919050565b600082825260208201905092915050565b60005b838110156135005780820151818401526020810190506134e5565b60008484015250505050565b6000601f19601f8301169050919050565b6000613528826134c6565b61353281856134d1565b93506135428185602086016134e2565b61354b8161350c565b840191505092915050565b60006101608201905061356c600083018e6134b7565b613579602083018d6134b7565b613586604083018c613408565b613593606083018b6133a5565b6135a0608083018a6133a5565b6135ad60a08301896133a5565b6135ba60c08301886133a5565b6135c760e08301876133a5565b8181036101008301526135da818661351d565b90508181036101208301526135ef818561351d565b9050818103610140830152613604818461351d565b90509c9b505050505050505050505050565b60006020820190508181036000830152613630818461351d565b905092915050565b600080fd5b600080fd5b7f4e487b7100000000000000000000000000000000000000000000000000000000600052604160045260246000fd5b61367a8261350c565b810181811067ffffffffffffffff8211171561369957613698613642565b5b80604052505050565b60006136ac6132bd565b90506136b88282613671565b919050565b600067ffffffffffffffff8211156136d8576136d7613642565b5b6136e18261350c565b9050602081019050919050565b82818337600083830152505050565b600061371061370b846136bd565b6136a2565b90508281526020810184848401111561372c5761372b61363d565b5b6137378482856136ee565b509392505050565b600082601f83011261375457613753613638565b5b81356137648482602086016136fd565b91505092915050565b60008060008060008060c0878903121561378a576137896132c7565b5b600061379889828a0161331a565b96505060206137a989828a01613350565b955050604087013567ffffffffffffffff8111156137ca576137c96132cc565b5b6137d689828a0161373f565b945050606087013567ffffffffffffffff8111156137f7576137f66132cc565b5b61380389828a0161373f565b935050608087013567ffffffffffffffff811115613824576138236132cc565b5b61383089828a0161373f565b92505060a061384189828a01613350565b9150509295509295509295565b600067ffffffffffffffff82111561386957613868613642565b5b602082029050602081019050919050565b600080fd5b600061389261388d8461384e565b6136a2565b905080838252602082019050602084028301858111156138b5576138b461387a565b5b835b818110156138de57806138ca8882613350565b8452602084019350506020810190506138b7565b5050509392505050565b600082601f8301126138fd576138fc613638565b5b813561390d84826020860161387f565b91505092915050565b600067ffffffffffffffff82111561393157613930613642565b5b61393a8261350c565b9050602081019050919050565b600061395a61395584613916565b6136a2565b9050828152602081018484840111156139765761397561363d565b5b6139818482856136ee565b509392505050565b600082601f83011261399e5761399d613638565b5b81356139ae848260208601613947565b91505092915050565b600080600080600060a086880312156139d3576139d26132c7565b5b60006139e18882890161331a565b95505060206139f28882890161331a565b945050604086013567ffffffffffffffff811115613a1357613a126132cc565b5b613a1f888289016138e8565b935050606086013567ffffffffffffffff811115613a4057613a3f6132cc565b5b613a4c888289016138e8565b925050608086013567ffffffffffffffff811115613a6d57613a6c6132cc565b5b613a7988828901613989565b9150509295509295909350565b600067ffffffffffffffff821115613aa157613aa0613642565b5b602082029050602081019050919050565b6000613ac5613ac084613a86565b6136a2565b90508083825260208201905060208402830185811115613ae857613ae761387a565b5b835b81811015613b115780613afd888261331a565b845260208401935050602081019050613aea565b5050509392505050565b600082601f830112613b3057613b2f613638565b5b8135613b40848260208601613ab2565b91505092915050565b60008060408385031215613b6057613b5f6132c7565b5b600083013567ffffffffffffffff811115613b7e57613b7d6132cc565b5b613b8a85828601613b1b565b925050602083013567ffffffffffffffff811115613bab57613baa6132cc565b5b613bb7858286016138e8565b9150509250929050565b600081519050919050565b600082825260208201905092915050565b6000819050602082019050919050565b613bf68161332f565b82525050565b6000613c088383613bed565b60208301905092915050565b6000602082019050919050565b6000613c2c82613bc1565b613c368185613bcc565b9350613c4183613bdd565b8060005b83811015613c72578151613c598882613bfc565b9750613c6483613c14565b925050600181019050613c45565b5085935050505092915050565b60006020820190508181036000830152613c998184613c21565b905092915050565b6000602082019050613cb660008301846134b7565b92915050565b6000604082019050613cd160008301856133a5565b613cde60208301846133a5565b9392505050565b613cee816133fc565b8114613cf957600080fd5b50565b600081359050613d0b81613ce5565b92915050565b60008060408385031215613d2857613d276132c7565b5b6000613d368582860161331a565b9250506020613d4785828601613cfc565b9150509250929050565b60008060408385031215613d6857613d676132c7565b5b6000613d7685828601613350565b9250506020613d878582860161331a565b9150509250929050565b600060208284031215613da757613da66132c7565b5b6000613db58482850161331a565b91505092915050565b60008060408385031215613dd557613dd46132c7565b5b6000613de38582860161331a565b9250506020613df48582860161331a565b9150509250929050565b600080600080600060a08688031215613e1a57613e196132c7565b5b6000613e288882890161331a565b9550506020613e398882890161331a565b9450506040613e4a88828901613350565b9350506060613e5b88828901613350565b925050608086013567ffffffffffffffff811115613e7c57613e7b6132cc565b5b613e8888828901613989565b9150509295509295909350565b7f455243313135353a2061646472657373207a65726f206973206e6f742061207660008201527f616c6964206f776e657200000000000000000000000000000000000000000000602082015250565b6000613ef1602a836134d1565b9150613efc82613e95565b604082019050919050565b60006020820190508181036000830152613f2081613ee4565b9050919050565b7f4e487b7100000000000000000000000000000000000000000000000000000000600052602260045260246000fd5b60006002820490506001821680613f6e57607f821691505b602082108103613f8157613f80613f27565b5b50919050565b600081905092915050565b6000613f9d826134c6565b613fa78185613f87565b9350613fb78185602086016134e2565b80840191505092915050565b6000613fcf8284613f92565b915081905092915050565b50565b6000613fea600083613f87565b9150613ff582613fda565b600082019050919050565b600061400b82613fdd565b9150819050919050565b7f4e487b7100000000000000000000000000000000000000000000000000000000600052601160045260246000fd5b600061404f8261332f565b91507fffffffffffffffffffffffffffffffffffffffffffffffffffffffffffffffff820361408157614080614015565b5b600182019050919050565b60008190508160005260206000209050919050565b600081546140ae81613f56565b6140b88186613f87565b945060018216600081146140d357600181146140e85761411b565b60ff198316865281151582028601935061411b565b6140f18561408c565b60005b83811015614113578154818901526001820191506020810190506140f4565b838801955050505b50505092915050565b600061413082846140a1565b915081905092915050565b7f57726f6e67207572690000000000000000000000000000000000000000000000600082015250565b60006141716009836134d1565b915061417c8261413b565b602082019050919050565b600060208201905081810360008301526141a081614164565b9050919050565b7f57726f6e67206f776e6572000000000000000000000000000000000000000000600082015250565b60006141dd600b836134d1565b91506141e8826141a7565b602082019050919050565b6000602082019050818103600083015261420c816141d0565b9050919050565b7f77726f6e67207468726565000000000000000000000000000000000000000000600082015250565b6000614249600b836134d1565b915061425482614213565b602082019050919050565b600060208201905081810360008301526142788161423c565b9050919050565b7f757073616c610000000000000000000000000000000000000000000000000000600082015250565b60006142b56006836134d1565b91506142c08261427f565b602082019050919050565b600060208201905081810360008301526142e4816142a8565b9050919050565b7f6664736166617300000000000000000000000000000000000000000000000000600082015250565b60006143216007836134d1565b915061432c826142eb565b602082019050919050565b6000602082019050818103600083015261435081614314565b9050919050565b60006020601f8301049050919050565b600082821b905092915050565b6000600883026143a47fffffffffffffffffffffffffffffffffffffffffffffffffffffffffffffffff82614367565b6143ae8683614367565b95508019841693508086168417925050509392505050565b6000819050919050565b60006143eb6143e66143e18461332f565b6143c6565b61332f565b9050919050565b6000819050919050565b614405836143d0565b614419614411826143f2565b848454614374565b825550505050565b600090565b61442e614421565b6144398184846143fc565b505050565b5b8181101561445d57614452600082614426565b60018101905061443f565b5050565b601f8211156144a2576144738161408c565b61447c84614357565b8101602085101561448b578190505b61449f61449785614357565b83018261443e565b50505b505050565b600082821c905092915050565b60006144c5600019846008026144a7565b1980831691505092915050565b60006144de83836144b4565b9150826002028217905092915050565b6144f7826134c6565b67ffffffffffffffff8111156145105761450f613642565b5b61451a8254613f56565b614525828285614461565b600060209050601f8311600181146145585760008415614546578287015190505b61455085826144d2565b8655506145b8565b601f1984166145668661408c565b60005b8281101561458e57848901518255600182019150602085019450602081019050614569565b868310156145ab57848901516145a7601f8916826144b4565b8355505b6001600288020188555050505b505050505050565b60006145cb8261332f565b91506145d68361332f565b92508282026145e48161332f565b915082820484148315176145fb576145fa614015565b5b5092915050565b7f4e487b7100000000000000000000000000000000000000000000000000000000600052601260045260246000fd5b600061463c8261332f565b91506146478361332f565b92508261465757614656614602565b5b828204905092915050565b600061466d8261332f565b91506146788361332f565b92508282019050808211156146905761468f614015565b5b92915050565b7f596f7520617265206e6f7420746865206f776e65722100000000000000000000600082015250565b60006146cc6016836134d1565b91506146d782614696565b602082019050919050565b600060208201905081810360008301526146fb816146bf565b9050919050565b7f746f6f20736f6f6e000000000000000000000000000000000000000000000000600082015250565b60006147386008836134d1565b915061474382614702565b602082019050919050565b600060208201905081810360008301526147678161472b565b9050919050565b600081905092915050565b600061478660008361476e565b915061479182613fda565b600082019050919050565b60006147a782614779565b9150819050919050565b7f455243313135353a2063616c6c6572206973206e6f7420746f6b656e206f776e60008201527f6572206e6f7220617070726f7665640000000000000000000000000000000000602082015250565b600061480d602f836134d1565b9150614818826147b1565b604082019050919050565b6000602082019050818103600083015261483c81614800565b9050919050565b7f455243313135353a206163636f756e747320616e6420696473206c656e67746860008201527f206d69736d617463680000000000000000000000000000000000000000000000602082015250565b600061489f6029836134d1565b91506148aa82614843565b604082019050919050565b600060208201905081810360008301526148ce81614892565b9050919050565b7f4e487b7100000000000000000000000000000000000000000000000000000000600052603260045260246000fd5b7f77726f6e67206f6e650000000000000000000000000000000000000000000000600082015250565b600061493a6009836134d1565b915061494582614904565b602082019050919050565b600060208201905081810360008301526149698161492d565b9050919050565b7f796f7520617265206e6f7420746865206f776e65720000000000000000000000600082015250565b60006149a66015836134d1565b91506149b182614970565b602082019050919050565b600060208201905081810360008301526149d581614999565b9050919050565b7f4f776e61626c653a206e6577206f776e657220697320746865207a65726f206160008201527f6464726573730000000000000000000000000000000000000000000000000000602082015250565b6000614a386026836134d1565b9150614a43826149dc565b604082019050919050565b60006020820190508181036000830152614a6781614a2b565b9050919050565b7f4f776e61626c653a2063616c6c6572206973206e6f7420746865206f776e6572600082015250565b6000614aa46020836134d1565b9150614aaf82614a6e565b602082019050919050565b60006020820190508181036000830152614ad381614a97565b9050919050565b7f455243313135353a206d696e7420746f20746865207a65726f2061646472657360008201527f7300000000000000000000000000000000000000000000000000000000000000602082015250565b6000614b366021836134d1565b9150614b4182614ada565b604082019050919050565b60006020820190508181036000830152614b6581614b29565b9050919050565b7f455243313135353a2069647320616e6420616d6f756e7473206c656e6774682060008201527f6d69736d61746368000000000000000000000000000000000000000000000000602082015250565b6000614bc86028836134d1565b9150614bd382614b6c565b604082019050919050565b60006020820190508181036000830152614bf781614bbb565b9050919050565b7f455243313135353a207472616e7366657220746f20746865207a65726f20616460008201527f6472657373000000000000000000000000000000000000000000000000000000602082015250565b6000614c5a6025836134d1565b9150614c6582614bfe565b604082019050919050565b60006020820190508181036000830152614c8981614c4d565b9050919050565b7f455243313135353a20696e73756666696369656e742062616c616e636520666f60008201527f72207472616e7366657200000000000000000000000000000000000000000000602082015250565b6000614cec602a836134d1565b9150614cf782614c90565b604082019050919050565b60006020820190508181036000830152614d1b81614cdf565b9050919050565b60006040820190508181036000830152614d3c8185613c21565b90508181036020830152614d508184613c21565b90509392505050565b7f455243313135353a2073657474696e6720617070726f76616c2073746174757360008201527f20666f722073656c660000000000000000000000000000000000000000000000602082015250565b6000614db56029836134d1565b9150614dc082614d59565b604082019050919050565b60006020820190508181036000830152614de481614da8565b9050919050565b600081519050919050565b600082825260208201905092915050565b6000614e1282614deb565b614e1c8185614df6565b9350614e2c8185602086016134e2565b614e358161350c565b840191505092915050565b600060a082019050614e5560008301886134b7565b614e6260208301876134b7565b614e6f60408301866133a5565b614e7c60608301856133a5565b8181036080830152614e8e8184614e07565b90509695505050505050565b600081519050614ea98161345e565b92915050565b600060208284031215614ec557614ec46132c7565b5b6000614ed384828501614e9a565b91505092915050565b60008160e01c9050919050565b600060033d1115614f085760046000803e614f05600051614edc565b90505b90565b600060443d10614f9857614f1d6132bd565b60043d036004823e80513d602482011167ffffffffffffffff82111715614f45575050614f98565b808201805167ffffffffffffffff811115614f635750505050614f98565b80602083010160043d038501811115614f80575050505050614f98565b614f8f82602001850186613671565b82955050505050505b90565b7f455243313135353a207472616e7366657220746f206e6f6e204552433131353560008201527f526563656976657220696d706c656d656e746572000000000000000000000000602082015250565b6000614ff76034836134d1565b915061500282614f9b565b604082019050919050565b6000602082019050818103600083015261502681614fea565b9050919050565b7f455243313135353a204552433131353552656365697665722072656a6563746560008201527f6420746f6b656e73000000000000000000000000000000000000000000000000602082015250565b60006150896028836134d1565b91506150948261502d565b604082019050919050565b600060208201905081810360008301526150b88161507c565b9050919050565b600060a0820190506150d460008301886134b7565b6150e160208301876134b7565b81810360408301526150f38186613c21565b905081810360608301526151078185613c21565b9050818103608083015261511b8184614e07565b9050969550505050505056fea2646970667358221220ab3690859b77ceddf4e66ec946d9f2b5e1bf60a95207d1b1bd8532b2f9c5ec5664736f6c63430008130033",
  "linkReferences": {},
  "deployedLinkReferences": {}
}