{
  "_format": "hh-sol-artifact-1",
  "contractName": "Award",
  "sourceName": "contracts/Award.sol",
  "abi": [
    {
      "inputs": [],
      "stateMutability": "nonpayable",
      "type": "constructor"
    },
    {
      "anonymous": false,
      "inputs": [
        {
          "indexed": true,
          "internalType": "address",
          "name": "account",
          "type": "address"
        },
        {
          "indexed": true,
          "internalType": "address",
          "name": "operator",
          "type": "address"
        },
        {
          "indexed": false,
          "internalType": "bool",
          "name": "approved",
          "type": "bool"
        }
      ],
      "name": "ApprovalForAll",
      "type": "event"
    },
    {
      "anonymous": false,
      "inputs": [
        {
          "indexed": true,
          "internalType": "address",
          "name": "operator",
          "type": "address"
        },
        {
          "indexed": true,
          "internalType": "address",
          "name": "from",
          "type": "address"
        },
        {
          "indexed": true,
          "internalType": "address",
          "name": "to",
          "type": "address"
        },
        {
          "indexed": false,
          "internalType": "uint256[]",
          "name": "ids",
          "type": "uint256[]"
        },
        {
          "indexed": false,
          "internalType": "uint256[]",
          "name": "values",
          "type": "uint256[]"
        }
      ],
      "name": "TransferBatch",
      "type": "event"
    },
    {
      "anonymous": false,
      "inputs": [
        {
          "indexed": true,
          "internalType": "address",
          "name": "operator",
          "type": "address"
        },
        {
          "indexed": true,
          "internalType": "address",
          "name": "from",
          "type": "address"
        },
        {
          "indexed": true,
          "internalType": "address",
          "name": "to",
          "type": "address"
        },
        {
          "indexed": false,
          "internalType": "uint256",
          "name": "id",
          "type": "uint256"
        },
        {
          "indexed": false,
          "internalType": "uint256",
          "name": "value",
          "type": "uint256"
        }
      ],
      "name": "TransferSingle",
      "type": "event"
    },
    {
      "anonymous": false,
      "inputs": [
        {
          "indexed": false,
          "internalType": "string",
          "name": "value",
          "type": "string"
        },
        {
          "indexed": true,
          "internalType": "uint256",
          "name": "id",
          "type": "uint256"
        }
      ],
      "name": "URI",
      "type": "event"
    },
    {
      "inputs": [
        {
          "internalType": "address",
          "name": "account",
          "type": "address"
        },
        {
          "internalType": "uint256",
          "name": "id",
          "type": "uint256"
        }
      ],
      "name": "balanceOf",
      "outputs": [
        {
          "internalType": "uint256",
          "name": "",
          "type": "uint256"
        }
      ],
      "stateMutability": "view",
      "type": "function"
    },
    {
      "inputs": [
        {
          "internalType": "address[]",
          "name": "accounts",
          "type": "address[]"
        },
        {
          "internalType": "uint256[]",
          "name": "ids",
          "type": "uint256[]"
        }
      ],
      "name": "balanceOfBatch",
      "outputs": [
        {
          "internalType": "uint256[]",
          "name": "",
          "type": "uint256[]"
        }
      ],
      "stateMutability": "view",
      "type": "function"
    },
    {
      "inputs": [
        {
          "internalType": "bytes32",
          "name": "_messageHash",
          "type": "bytes32"
        }
      ],
      "name": "getEthSignedMessageHash",
      "outputs": [
        {
          "internalType": "bytes32",
          "name": "",
          "type": "bytes32"
        }
      ],
      "stateMutability": "pure",
      "type": "function"
    },
    {
      "inputs": [
        {
          "components": [
            {
              "internalType": "address",
              "name": "owner",
              "type": "address"
            },
            {
              "internalType": "uint256",
              "name": "voucherId",
              "type": "uint256"
            },
            {
              "internalType": "bool",
              "name": "first",
              "type": "bool"
            },
            {
              "internalType": "string",
              "name": "uriFirst",
              "type": "string"
            },
            {
              "internalType": "uint256",
              "name": "firstId",
              "type": "uint256"
            },
            {
              "internalType": "bool",
              "name": "ten",
              "type": "bool"
            },
            {
              "internalType": "uint256",
              "name": "percentage",
              "type": "uint256"
            },
            {
              "internalType": "bool",
              "name": "hundred",
              "type": "bool"
            },
            {
              "internalType": "string",
              "name": "uriSecond",
              "type": "string"
            },
            {
              "internalType": "uint256",
              "name": "secondId",
              "type": "uint256"
            }
          ],
          "internalType": "struct Award.Voucher",
          "name": "voucher",
          "type": "tuple"
        }
      ],
      "name": "getMessageHash",
      "outputs": [
        {
          "internalType": "bytes32",
          "name": "",
          "type": "bytes32"
        }
      ],
      "stateMutability": "pure",
      "type": "function"
    },
    {
      "inputs": [
        {
          "internalType": "uint256",
          "name": "_token",
          "type": "uint256"
        }
      ],
      "name": "getWhitelist",
      "outputs": [
        {
          "internalType": "address[]",
          "name": "",
          "type": "address[]"
        }
      ],
      "stateMutability": "view",
      "type": "function"
    },
    {
      "inputs": [
        {
          "internalType": "address",
          "name": "account",
          "type": "address"
        },
        {
          "internalType": "address",
          "name": "operator",
          "type": "address"
        }
      ],
      "name": "isApprovedForAll",
      "outputs": [
        {
          "internalType": "bool",
          "name": "",
          "type": "bool"
        }
      ],
      "stateMutability": "view",
      "type": "function"
    },
    {
      "inputs": [
        {
          "internalType": "uint256",
          "name": "id",
          "type": "uint256"
        }
      ],
      "name": "isWhitelisted",
      "outputs": [
        {
          "internalType": "bool",
          "name": "",
          "type": "bool"
        }
      ],
      "stateMutability": "view",
      "type": "function"
    },
    {
      "inputs": [
        {
          "components": [
            {
              "internalType": "address",
              "name": "owner",
              "type": "address"
            },
            {
              "internalType": "uint256",
              "name": "voucherId",
              "type": "uint256"
            },
            {
              "internalType": "bool",
              "name": "first",
              "type": "bool"
            },
            {
              "internalType": "string",
              "name": "uriFirst",
              "type": "string"
            },
            {
              "internalType": "uint256",
              "name": "firstId",
              "type": "uint256"
            },
            {
              "internalType": "bool",
              "name": "ten",
              "type": "bool"
            },
            {
              "internalType": "uint256",
              "name": "percentage",
              "type": "uint256"
            },
            {
              "internalType": "bool",
              "name": "hundred",
              "type": "bool"
            },
            {
              "internalType": "string",
              "name": "uriSecond",
              "type": "string"
            },
            {
              "internalType": "uint256",
              "name": "secondId",
              "type": "uint256"
            }
          ],
          "internalType": "struct Award.Voucher",
          "name": "voucher",
          "type": "tuple"
        }
      ],
      "name": "mint",
      "outputs": [],
      "stateMutability": "payable",
      "type": "function"
    },
    {
      "inputs": [
        {
          "internalType": "uint256",
          "name": "",
          "type": "uint256"
        }
      ],
      "name": "neki",
      "outputs": [
        {
          "internalType": "address",
          "name": "",
          "type": "address"
        }
      ],
      "stateMutability": "view",
      "type": "function"
    },
    {
      "inputs": [
        {
          "internalType": "uint256",
          "name": "",
          "type": "uint256"
        },
        {
          "internalType": "uint256",
          "name": "",
          "type": "uint256"
        }
      ],
      "name": "newWhitelist",
      "outputs": [
        {
          "internalType": "address",
          "name": "",
          "type": "address"
        }
      ],
      "stateMutability": "view",
      "type": "function"
    },
    {
      "inputs": [],
      "name": "price",
      "outputs": [
        {
          "internalType": "uint256",
          "name": "",
          "type": "uint256"
        }
      ],
      "stateMutability": "view",
      "type": "function"
    },
    {
      "inputs": [
        {
          "internalType": "bytes32",
          "name": "_ethSignedMessageHash",
          "type": "bytes32"
        },
        {
          "internalType": "bytes",
          "name": "_signature",
          "type": "bytes"
        }
      ],
      "name": "recoverSigner",
      "outputs": [
        {
          "internalType": "address",
          "name": "",
          "type": "address"
        }
      ],
      "stateMutability": "pure",
      "type": "function"
    },
    {
      "inputs": [
        {
          "internalType": "address",
          "name": "from",
          "type": "address"
        },
        {
          "internalType": "address",
          "name": "to",
          "type": "address"
        },
        {
          "internalType": "uint256[]",
          "name": "ids",
          "type": "uint256[]"
        },
        {
          "internalType": "uint256[]",
          "name": "amounts",
          "type": "uint256[]"
        },
        {
          "internalType": "bytes",
          "name": "data",
          "type": "bytes"
        }
      ],
      "name": "safeBatchTransferFrom",
      "outputs": [],
      "stateMutability": "nonpayable",
      "type": "function"
    },
    {
      "inputs": [
        {
          "internalType": "address",
          "name": "from",
          "type": "address"
        },
        {
          "internalType": "address",
          "name": "to",
          "type": "address"
        },
        {
          "internalType": "uint256",
          "name": "id",
          "type": "uint256"
        },
        {
          "internalType": "uint256",
          "name": "amount",
          "type": "uint256"
        },
        {
          "internalType": "bytes",
          "name": "data",
          "type": "bytes"
        }
      ],
      "name": "safeTransferFrom",
      "outputs": [],
      "stateMutability": "nonpayable",
      "type": "function"
    },
    {
      "inputs": [
        {
          "internalType": "address",
          "name": "operator",
          "type": "address"
        },
        {
          "internalType": "bool",
          "name": "approved",
          "type": "bool"
        }
      ],
      "name": "setApprovalForAll",
      "outputs": [],
      "stateMutability": "nonpayable",
      "type": "function"
    },
    {
      "inputs": [
        {
          "internalType": "bytes",
          "name": "sig",
          "type": "bytes"
        }
      ],
      "name": "splitSignature",
      "outputs": [
        {
          "internalType": "bytes32",
          "name": "r",
          "type": "bytes32"
        },
        {
          "internalType": "bytes32",
          "name": "s",
          "type": "bytes32"
        },
        {
          "internalType": "uint8",
          "name": "v",
          "type": "uint8"
        }
      ],
      "stateMutability": "pure",
      "type": "function"
    },
    {
      "inputs": [
        {
          "internalType": "bytes4",
          "name": "interfaceId",
          "type": "bytes4"
        }
      ],
      "name": "supportsInterface",
      "outputs": [
        {
          "internalType": "bool",
          "name": "",
          "type": "bool"
        }
      ],
      "stateMutability": "view",
      "type": "function"
    },
    {
      "inputs": [
        {
          "internalType": "uint256",
          "name": "",
          "type": "uint256"
        }
      ],
      "name": "totalSupplyOf",
      "outputs": [
        {
          "internalType": "uint256",
          "name": "",
          "type": "uint256"
        }
      ],
      "stateMutability": "view",
      "type": "function"
    },
    {
      "inputs": [
        {
          "internalType": "uint256",
          "name": "tokenId",
          "type": "uint256"
        }
      ],
      "name": "uri",
      "outputs": [
        {
          "internalType": "string",
          "name": "",
          "type": "string"
        }
      ],
      "stateMutability": "view",
      "type": "function"
    },
    {
      "inputs": [
        {
          "internalType": "uint256",
          "name": "",
          "type": "uint256"
        }
      ],
      "name": "wallet",
      "outputs": [
        {
          "internalType": "uint256",
          "name": "",
          "type": "uint256"
        }
      ],
      "stateMutability": "view",
      "type": "function"
    },
    {
      "inputs": [
        {
          "internalType": "uint256",
          "name": "",
          "type": "uint256"
        },
        {
          "internalType": "address",
          "name": "",
          "type": "address"
        }
      ],
      "name": "whitelistTest",
      "outputs": [
        {
          "internalType": "bool",
          "name": "",
          "type": "bool"
        }
      ],
      "stateMutability": "view",
      "type": "function"
    },
    {
      "inputs": [
        {
          "components": [
            {
              "internalType": "address",
              "name": "owner",
              "type": "address"
            },
            {
              "internalType": "uint256",
              "name": "voucherId",
              "type": "uint256"
            },
            {
              "internalType": "bool",
              "name": "first",
              "type": "bool"
            },
            {
              "internalType": "string",
              "name": "uriFirst",
              "type": "string"
            },
            {
              "internalType": "uint256",
              "name": "firstId",
              "type": "uint256"
            },
            {
              "internalType": "bool",
              "name": "ten",
              "type": "bool"
            },
            {
              "internalType": "uint256",
              "name": "percentage",
              "type": "uint256"
            },
            {
              "internalType": "bool",
              "name": "hundred",
              "type": "bool"
            },
            {
              "internalType": "string",
              "name": "uriSecond",
              "type": "string"
            },
            {
              "internalType": "uint256",
              "name": "secondId",
              "type": "uint256"
            }
          ],
          "internalType": "struct Award.Voucher",
          "name": "voucher",
          "type": "tuple"
        }
      ],
      "name": "withdraw",
      "outputs": [],
      "stateMutability": "nonpayable",
      "type": "function"
    }
  ],
  "bytecode": "0x6080604052604051806060016040528073617f2e2fd72fd9d5503197092ac168c91465e7f273ffffffffffffffffffffffffffffffffffffffff1673ffffffffffffffffffffffffffffffffffffffff1681526020017317f6ad8ef982297579c203069c1dbffe4348c37273ffffffffffffffffffffffffffffffffffffffff1673ffffffffffffffffffffffffffffffffffffffff168152602001735c6b0f7bf3e7ce046039bd8fabdfd3f9f502167873ffffffffffffffffffffffffffffffffffffffff1673ffffffffffffffffffffffffffffffffffffffff168152506007906003620000f192919062000149565b50678ac7230489e800006009553480156200010b57600080fd5b50604051806020016040528060008152506200012d816200013460201b60201c565b5062000558565b806002908162000145919062000471565b5050565b828054828255906000526020600020908101928215620001c5579160200282015b82811115620001c45782518260006101000a81548173ffffffffffffffffffffffffffffffffffffffff021916908373ffffffffffffffffffffffffffffffffffffffff160217905550916020019190600101906200016a565b5b509050620001d49190620001d8565b5090565b5b80821115620001f3576000816000905550600101620001d9565b5090565b600081519050919050565b7f4e487b7100000000000000000000000000000000000000000000000000000000600052604160045260246000fd5b7f4e487b7100000000000000000000000000000000000000000000000000000000600052602260045260246000fd5b600060028204905060018216806200027957607f821691505b6020821081036200028f576200028e62000231565b5b50919050565b60008190508160005260206000209050919050565b60006020601f8301049050919050565b600082821b905092915050565b600060088302620002f97fffffffffffffffffffffffffffffffffffffffffffffffffffffffffffffffff82620002ba565b620003058683620002ba565b95508019841693508086168417925050509392505050565b6000819050919050565b6000819050919050565b6000620003526200034c62000346846200031d565b62000327565b6200031d565b9050919050565b6000819050919050565b6200036e8362000331565b620003866200037d8262000359565b848454620002c7565b825550505050565b600090565b6200039d6200038e565b620003aa81848462000363565b505050565b5b81811015620003d257620003c660008262000393565b600181019050620003b0565b5050565b601f8211156200042157620003eb8162000295565b620003f684620002aa565b8101602085101562000406578190505b6200041e6200041585620002aa565b830182620003af565b50505b505050565b600082821c905092915050565b6000620004466000198460080262000426565b1980831691505092915050565b600062000461838362000433565b9150826002028217905092915050565b6200047c82620001f7565b67ffffffffffffffff81111562000498576200049762000202565b5b620004a4825462000260565b620004b1828285620003d6565b600060209050601f831160018114620004e95760008415620004d4578287015190505b620004e0858262000453565b86555062000550565b601f198416620004f98662000295565b60005b828110156200052357848901518255600182019150602085019450602081019050620004fc565b868310156200054357848901516200053f601f89168262000433565b8355505b6001600288020188555050505b505050505050565b613f3480620005686000396000f3fe6080604052600436106101345760003560e01c806396db752a116100ab578063a7bb58031161006f578063a7bb58031461049a578063cae2bac2146104d9578063da31133614610516578063e985e9c514610553578063f242432a14610590578063fa540801146105b957610134565b806396db752a1461038f57806397aba7f9146103cc578063a035b1fe14610409578063a22cb46514610434578063a27813351461045d57610134565b806326a622fa116100fd57806326a622fa146102495780632eb2c2d6146102865780634e1273f4146102af578063610fec49146102ec578063751b02c21461031557806375b0d9cd1461035257610134565b8062fdd58e1461013957806301ffc9a71461017657806304f0819b146101b35780630cce9865146101cf5780630e89341c1461020c575b600080fd5b34801561014557600080fd5b50610160600480360381019061015b91906122c7565b6105f6565b60405161016d9190612316565b60405180910390f35b34801561018257600080fd5b5061019d60048036038101906101989190612389565b6106be565b6040516101aa91906123d1565b60405180910390f35b6101cd60048036038101906101c89190612411565b6107a0565b005b3480156101db57600080fd5b506101f660048036038101906101f1919061245a565b610ae0565b6040516102039190612496565b60405180910390f35b34801561021857600080fd5b50610233600480360381019061022e919061245a565b610b1f565b6040516102409190612541565b60405180910390f35b34801561025557600080fd5b50610270600480360381019061026b9190612563565b610bc4565b60405161027d9190612496565b60405180910390f35b34801561029257600080fd5b506102ad60048036038101906102a891906127a0565b610c12565b005b3480156102bb57600080fd5b506102d660048036038101906102d19190612932565b610cb3565b6040516102e39190612a68565b60405180910390f35b3480156102f857600080fd5b50610313600480360381019061030e9190612411565b610dcc565b005b34801561032157600080fd5b5061033c6004803603810190610337919061245a565b610f98565b60405161034991906123d1565b60405180910390f35b34801561035e57600080fd5b506103796004803603810190610374919061245a565b611068565b6040516103869190612316565b60405180910390f35b34801561039b57600080fd5b506103b660048036038101906103b1919061245a565b611080565b6040516103c39190612b48565b60405180910390f35b3480156103d857600080fd5b506103f360048036038101906103ee9190612ba0565b611121565b6040516104009190612496565b60405180910390f35b34801561041557600080fd5b5061041e611190565b60405161042b9190612316565b60405180910390f35b34801561044057600080fd5b5061045b60048036038101906104569190612c28565b611196565b005b34801561046957600080fd5b50610484600480360381019061047f919061245a565b6111ac565b6040516104919190612316565b60405180910390f35b3480156104a657600080fd5b506104c160048036038101906104bc9190612c68565b6111c4565b6040516104d093929190612cdc565b60405180910390f35b3480156104e557600080fd5b5061050060048036038101906104fb9190612d13565b61122c565b60405161050d91906123d1565b60405180910390f35b34801561052257600080fd5b5061053d60048036038101906105389190612411565b61125b565b60405161054a9190612d53565b60405180910390f35b34801561055f57600080fd5b5061057a60048036038101906105759190612d6e565b6112f0565b60405161058791906123d1565b60405180910390f35b34801561059c57600080fd5b506105b760048036038101906105b29190612dae565b611384565b005b3480156105c557600080fd5b506105e060048036038101906105db9190612e45565b611425565b6040516105ed9190612d53565b60405180910390f35b60008073ffffffffffffffffffffffffffffffffffffffff168373ffffffffffffffffffffffffffffffffffffffff1603610666576040517f08c379a000000000000000000000000000000000000000000000000000000000815260040161065d90612ee4565b60405180910390fd5b60008083815260200190815260200160002060008473ffffffffffffffffffffffffffffffffffffffff1673ffffffffffffffffffffffffffffffffffffffff16815260200190815260200160002054905092915050565b60007fd9b67a26000000000000000000000000000000000000000000000000000000007bffffffffffffffffffffffffffffffffffffffffffffffffffffffff1916827bffffffffffffffffffffffffffffffffffffffffffffffffffffffff1916148061078957507f0e89341c000000000000000000000000000000000000000000000000000000007bffffffffffffffffffffffffffffffffffffffffffffffffffffffff1916827bffffffffffffffffffffffffffffffffffffffffffffffffffffffff1916145b80610799575061079882611455565b5b9050919050565b6009543410156107e5576040517f08c379a00000000000000000000000000000000000000000000000000000000081526004016107dc90612f50565b60405180910390fd5b600060056000836020013581526020019081526020016000205414801561081b575080604001602081019061081a9190612f70565b5b156108a1576108403382608001356001604051806020016040528060008152506114bf565b6108a081608001358280606001906108589190612fac565b8080601f016020809104026020016040519081016040528093929190818152602001838380828437600081840152601f19601f8201169050808301925050505050505061166f565b5b60036005600083602001358152602001908152602001600020541080156108d757508060a00160208101906108d69190612f70565b5b156109a1576108e98160200135610f98565b610928576040517f08c379a000000000000000000000000000000000000000000000000000000000815260040161091f9061305b565b60405180910390fd5b6003600082602001358152602001908152602001600020339080600181540180825580915050600190039060005260206000200160009091909190916101000a81548173ffffffffffffffffffffffffffffffffffffffff021916908373ffffffffffffffffffffffffffffffffffffffff1602179055505b60646005600083602001358152602001908152602001600020541080156109d757508060e00160208101906109d69190612f70565b5b15610a60576109fd338261012001356001604051806020016040528060008152506114bf565b610a5f81610120013582806101000190610a179190612fac565b8080601f016020809104026020016040519081016040528093929190818152602001838380828437600081840152601f19601f8201169050808301925050505050505061166f565b5b600360056000836020013581526020019081526020016000205410610ab05760095460086000836020013581526020019081526020016000206000828254610aa891906130aa565b925050819055505b60056000826020013581526020019081526020016000206000815480929190610ad8906130de565b919050555050565b60078181548110610af057600080fd5b906000526020600020016000915054906101000a900473ffffffffffffffffffffffffffffffffffffffff1681565b6060600660008381526020019081526020016000208054610b3f90613155565b80601f0160208091040260200160405190810160405280929190818152602001828054610b6b90613155565b8015610bb85780601f10610b8d57610100808354040283529160200191610bb8565b820191906000526020600020905b815481529060010190602001808311610b9b57829003601f168201915b50505050509050919050565b60036020528160005260406000208181548110610be057600080fd5b906000526020600020016000915091509054906101000a900473ffffffffffffffffffffffffffffffffffffffff1681565b610c1a611694565b73ffffffffffffffffffffffffffffffffffffffff168573ffffffffffffffffffffffffffffffffffffffff161480610c605750610c5f85610c5a611694565b6112f0565b5b610c9f576040517f08c379a0000000000000000000000000000000000000000000000000000000008152600401610c96906131f8565b60405180910390fd5b610cac858585858561169c565b5050505050565b60608151835114610cf9576040517f08c379a0000000000000000000000000000000000000000000000000000000008152600401610cf09061328a565b60405180910390fd5b6000835167ffffffffffffffff811115610d1657610d156125a8565b5b604051908082528060200260200182016040528015610d445781602001602082028036833780820191505090505b50905060005b8451811015610dc157610d91858281518110610d6957610d686132aa565b5b6020026020010151858381518110610d8457610d836132aa565b5b60200260200101516105f6565b828281518110610da457610da36132aa565b5b60200260200101818152505080610dba906130de565b9050610d4a565b508091505092915050565b60005b600360008360200135815260200190815260200160002080549050811015610f0057600060036000846020013581526020019081526020016000208281548110610e1c57610e1b6132aa565b5b9060005260206000200160009054906101000a900473ffffffffffffffffffffffffffffffffffffffff1673ffffffffffffffffffffffffffffffffffffffff1660648460c00135600860008760200135815260200190815260200160002054610e8691906132d9565b610e90919061334a565b604051610e9c906133ac565b60006040518083038185875af1925050503d8060008114610ed9576040519150601f19603f3d011682016040523d82523d6000602084013e610ede565b606091505b5050905080610eec57600080fd5b508080610ef8906130de565b915050610dcf565b5060003373ffffffffffffffffffffffffffffffffffffffff1647604051610f27906133ac565b60006040518083038185875af1925050503d8060008114610f64576040519150601f19603f3d011682016040523d82523d6000602084013e610f69565b606091505b5050905080610f7757600080fd5b60006008600084602001358152602001908152602001600020819055505050565b600080600090505b600360008481526020019081526020016000208054905081101561105d573373ffffffffffffffffffffffffffffffffffffffff16600360008581526020019081526020016000208281548110610ffa57610ff96132aa565b5b9060005260206000200160009054906101000a900473ffffffffffffffffffffffffffffffffffffffff1673ffffffffffffffffffffffffffffffffffffffff160361104a576000915050611063565b8080611055906130de565b915050610fa0565b50600190505b919050565b60056020528060005260406000206000915090505481565b60606003600083815260200190815260200160002080548060200260200160405190810160405280929190818152602001828054801561111557602002820191906000526020600020905b8160009054906101000a900473ffffffffffffffffffffffffffffffffffffffff1673ffffffffffffffffffffffffffffffffffffffff16815260200190600101908083116110cb575b50505050509050919050565b600080600080611130856111c4565b9250925092506001868285856040516000815260200160405260405161115994939291906133c1565b6020604051602081039080840390855afa15801561117b573d6000803e3d6000fd5b50505060206040510351935050505092915050565b60095481565b6111a86111a1611694565b83836119bd565b5050565b60086020528060005260406000206000915090505481565b6000806000604184511461120d576040517f08c379a000000000000000000000000000000000000000000000000000000000815260040161120490613452565b60405180910390fd5b6020840151925060408401519150606084015160001a90509193909250565b60046020528160005260406000206020528060005260406000206000915091509054906101000a900460ff1681565b60008160400160208101906112709190612f70565b8280606001906112809190612fac565b8460a00160208101906112939190612f70565b8560c001358660e00160208101906112ab9190612f70565b878061010001906112bc9190612fac565b6040516020016112d398979695949392919061350b565b604051602081830303815290604052805190602001209050919050565b6000600160008473ffffffffffffffffffffffffffffffffffffffff1673ffffffffffffffffffffffffffffffffffffffff16815260200190815260200160002060008373ffffffffffffffffffffffffffffffffffffffff1673ffffffffffffffffffffffffffffffffffffffff16815260200190815260200160002060009054906101000a900460ff16905092915050565b61138c611694565b73ffffffffffffffffffffffffffffffffffffffff168573ffffffffffffffffffffffffffffffffffffffff1614806113d257506113d1856113cc611694565b6112f0565b5b611411576040517f08c379a0000000000000000000000000000000000000000000000000000000008152600401611408906131f8565b60405180910390fd5b61141e8585858585611b29565b5050505050565b60008160405160200161143891906135e4565b604051602081830303815290604052805190602001209050919050565b60007f01ffc9a7000000000000000000000000000000000000000000000000000000007bffffffffffffffffffffffffffffffffffffffffffffffffffffffff1916827bffffffffffffffffffffffffffffffffffffffffffffffffffffffff1916149050919050565b600073ffffffffffffffffffffffffffffffffffffffff168473ffffffffffffffffffffffffffffffffffffffff160361152e576040517f08c379a00000000000000000000000000000000000000000000000000000000081526004016115259061367c565b60405180910390fd5b6000611538611694565b9050600061154585611dc4565b9050600061155285611dc4565b905061156383600089858589611e3e565b8460008088815260200190815260200160002060008973ffffffffffffffffffffffffffffffffffffffff1673ffffffffffffffffffffffffffffffffffffffff16815260200190815260200160002060008282546115c291906130aa565b925050819055508673ffffffffffffffffffffffffffffffffffffffff16600073ffffffffffffffffffffffffffffffffffffffff168473ffffffffffffffffffffffffffffffffffffffff167fc3d58168c5ae7397731d063d5bbf3d657854427343f4c083240f7aacaa2d0f62898960405161164092919061369c565b60405180910390a461165783600089858589611e46565b61166683600089898989611e4e565b50505050505050565b8060066000848152602001908152602001600020908161168f9190613871565b505050565b600033905090565b81518351146116e0576040517f08c379a00000000000000000000000000000000000000000000000000000000081526004016116d7906139b5565b60405180910390fd5b600073ffffffffffffffffffffffffffffffffffffffff168473ffffffffffffffffffffffffffffffffffffffff160361174f576040517f08c379a000000000000000000000000000000000000000000000000000000000815260040161174690613a47565b60405180910390fd5b6000611759611694565b9050611769818787878787611e3e565b60005b845181101561191a57600085828151811061178a576117896132aa565b5b6020026020010151905060008583815181106117a9576117a86132aa565b5b60200260200101519050600080600084815260200190815260200160002060008b73ffffffffffffffffffffffffffffffffffffffff1673ffffffffffffffffffffffffffffffffffffffff1681526020019081526020016000205490508181101561184a576040517f08c379a000000000000000000000000000000000000000000000000000000000815260040161184190613ad9565b60405180910390fd5b81810360008085815260200190815260200160002060008c73ffffffffffffffffffffffffffffffffffffffff1673ffffffffffffffffffffffffffffffffffffffff168152602001908152602001600020819055508160008085815260200190815260200160002060008b73ffffffffffffffffffffffffffffffffffffffff1673ffffffffffffffffffffffffffffffffffffffff16815260200190815260200160002060008282546118ff91906130aa565b9250508190555050505080611913906130de565b905061176c565b508473ffffffffffffffffffffffffffffffffffffffff168673ffffffffffffffffffffffffffffffffffffffff168273ffffffffffffffffffffffffffffffffffffffff167f4a39dc06d4c0dbc64b70af90fd698a233a518aa5d07e595d983b8c0526c8f7fb8787604051611991929190613af9565b60405180910390a46119a7818787878787611e46565b6119b5818787878787612025565b505050505050565b8173ffffffffffffffffffffffffffffffffffffffff168373ffffffffffffffffffffffffffffffffffffffff1603611a2b576040517f08c379a0000000000000000000000000000000000000000000000000000000008152600401611a2290613ba2565b60405180910390fd5b80600160008573ffffffffffffffffffffffffffffffffffffffff1673ffffffffffffffffffffffffffffffffffffffff16815260200190815260200160002060008473ffffffffffffffffffffffffffffffffffffffff1673ffffffffffffffffffffffffffffffffffffffff16815260200190815260200160002060006101000a81548160ff0219169083151502179055508173ffffffffffffffffffffffffffffffffffffffff168373ffffffffffffffffffffffffffffffffffffffff167f17307eab39ab6107e8899845ad3d59bd9653f200f220920489ca2b5937696c3183604051611b1c91906123d1565b60405180910390a3505050565b600073ffffffffffffffffffffffffffffffffffffffff168473ffffffffffffffffffffffffffffffffffffffff1603611b98576040517f08c379a0000000000000000000000000000000000000000000000000000000008152600401611b8f90613a47565b60405180910390fd5b6000611ba2611694565b90506000611baf85611dc4565b90506000611bbc85611dc4565b9050611bcc838989858589611e3e565b600080600088815260200190815260200160002060008a73ffffffffffffffffffffffffffffffffffffffff1673ffffffffffffffffffffffffffffffffffffffff16815260200190815260200160002054905085811015611c63576040517f08c379a0000000000000000000000000000000000000000000000000000000008152600401611c5a90613ad9565b60405180910390fd5b85810360008089815260200190815260200160002060008b73ffffffffffffffffffffffffffffffffffffffff1673ffffffffffffffffffffffffffffffffffffffff168152602001908152602001600020819055508560008089815260200190815260200160002060008a73ffffffffffffffffffffffffffffffffffffffff1673ffffffffffffffffffffffffffffffffffffffff1681526020019081526020016000206000828254611d1891906130aa565b925050819055508773ffffffffffffffffffffffffffffffffffffffff168973ffffffffffffffffffffffffffffffffffffffff168573ffffffffffffffffffffffffffffffffffffffff167fc3d58168c5ae7397731d063d5bbf3d657854427343f4c083240f7aacaa2d0f628a8a604051611d9592919061369c565b60405180910390a4611dab848a8a86868a611e46565b611db9848a8a8a8a8a611e4e565b505050505050505050565b60606000600167ffffffffffffffff811115611de357611de26125a8565b5b604051908082528060200260200182016040528015611e115781602001602082028036833780820191505090505b5090508281600081518110611e2957611e286132aa565b5b60200260200101818152505080915050919050565b505050505050565b505050505050565b611e6d8473ffffffffffffffffffffffffffffffffffffffff166121fc565b1561201d578373ffffffffffffffffffffffffffffffffffffffff1663f23a6e6187878686866040518663ffffffff1660e01b8152600401611eb3959493929190613c17565b6020604051808303816000875af1925050508015611eef57506040513d601f19601f82011682018060405250810190611eec9190613c86565b60015b611f9457611efb613cc0565b806308c379a003611f575750611f0f613ce2565b80611f1a5750611f59565b806040517f08c379a0000000000000000000000000000000000000000000000000000000008152600401611f4e9190612541565b60405180910390fd5b505b6040517f08c379a0000000000000000000000000000000000000000000000000000000008152600401611f8b90613de4565b60405180910390fd5b63f23a6e6160e01b7bffffffffffffffffffffffffffffffffffffffffffffffffffffffff1916817bffffffffffffffffffffffffffffffffffffffffffffffffffffffff19161461201b576040517f08c379a000000000000000000000000000000000000000000000000000000000815260040161201290613e76565b60405180910390fd5b505b505050505050565b6120448473ffffffffffffffffffffffffffffffffffffffff166121fc565b156121f4578373ffffffffffffffffffffffffffffffffffffffff1663bc197c8187878686866040518663ffffffff1660e01b815260040161208a959493929190613e96565b6020604051808303816000875af19250505080156120c657506040513d601f19601f820116820180604052508101906120c39190613c86565b60015b61216b576120d2613cc0565b806308c379a00361212e57506120e6613ce2565b806120f15750612130565b806040517f08c379a00000000000000000000000000000000000000000000000000000000081526004016121259190612541565b60405180910390fd5b505b6040517f08c379a000000000000000000000000000000000000000000000000000000000815260040161216290613de4565b60405180910390fd5b63bc197c8160e01b7bffffffffffffffffffffffffffffffffffffffffffffffffffffffff1916817bffffffffffffffffffffffffffffffffffffffffffffffffffffffff1916146121f2576040517f08c379a00000000000000000000000000000000000000000000000000000000081526004016121e990613e76565b60405180910390fd5b505b505050505050565b6000808273ffffffffffffffffffffffffffffffffffffffff163b119050919050565b6000604051905090565b600080fd5b600080fd5b600073ffffffffffffffffffffffffffffffffffffffff82169050919050565b600061225e82612233565b9050919050565b61226e81612253565b811461227957600080fd5b50565b60008135905061228b81612265565b92915050565b6000819050919050565b6122a481612291565b81146122af57600080fd5b50565b6000813590506122c18161229b565b92915050565b600080604083850312156122de576122dd612229565b5b60006122ec8582860161227c565b92505060206122fd858286016122b2565b9150509250929050565b61231081612291565b82525050565b600060208201905061232b6000830184612307565b92915050565b60007fffffffff0000000000000000000000000000000000000000000000000000000082169050919050565b61236681612331565b811461237157600080fd5b50565b6000813590506123838161235d565b92915050565b60006020828403121561239f5761239e612229565b5b60006123ad84828501612374565b91505092915050565b60008115159050919050565b6123cb816123b6565b82525050565b60006020820190506123e660008301846123c2565b92915050565b600080fd5b60006101408284031215612408576124076123ec565b5b81905092915050565b60006020828403121561242757612426612229565b5b600082013567ffffffffffffffff8111156124455761244461222e565b5b612451848285016123f1565b91505092915050565b6000602082840312156124705761246f612229565b5b600061247e848285016122b2565b91505092915050565b61249081612253565b82525050565b60006020820190506124ab6000830184612487565b92915050565b600081519050919050565b600082825260208201905092915050565b60005b838110156124eb5780820151818401526020810190506124d0565b60008484015250505050565b6000601f19601f8301169050919050565b6000612513826124b1565b61251d81856124bc565b935061252d8185602086016124cd565b612536816124f7565b840191505092915050565b6000602082019050818103600083015261255b8184612508565b905092915050565b6000806040838503121561257a57612579612229565b5b6000612588858286016122b2565b9250506020612599858286016122b2565b9150509250929050565b600080fd5b7f4e487b7100000000000000000000000000000000000000000000000000000000600052604160045260246000fd5b6125e0826124f7565b810181811067ffffffffffffffff821117156125ff576125fe6125a8565b5b80604052505050565b600061261261221f565b905061261e82826125d7565b919050565b600067ffffffffffffffff82111561263e5761263d6125a8565b5b602082029050602081019050919050565b600080fd5b600061266761266284612623565b612608565b9050808382526020820190506020840283018581111561268a5761268961264f565b5b835b818110156126b3578061269f88826122b2565b84526020840193505060208101905061268c565b5050509392505050565b600082601f8301126126d2576126d16125a3565b5b81356126e2848260208601612654565b91505092915050565b600080fd5b600067ffffffffffffffff82111561270b5761270a6125a8565b5b612714826124f7565b9050602081019050919050565b82818337600083830152505050565b600061274361273e846126f0565b612608565b90508281526020810184848401111561275f5761275e6126eb565b5b61276a848285612721565b509392505050565b600082601f830112612787576127866125a3565b5b8135612797848260208601612730565b91505092915050565b600080600080600060a086880312156127bc576127bb612229565b5b60006127ca8882890161227c565b95505060206127db8882890161227c565b945050604086013567ffffffffffffffff8111156127fc576127fb61222e565b5b612808888289016126bd565b935050606086013567ffffffffffffffff8111156128295761282861222e565b5b612835888289016126bd565b925050608086013567ffffffffffffffff8111156128565761285561222e565b5b61286288828901612772565b9150509295509295909350565b600067ffffffffffffffff82111561288a576128896125a8565b5b602082029050602081019050919050565b60006128ae6128a98461286f565b612608565b905080838252602082019050602084028301858111156128d1576128d061264f565b5b835b818110156128fa57806128e6888261227c565b8452602084019350506020810190506128d3565b5050509392505050565b600082601f830112612919576129186125a3565b5b813561292984826020860161289b565b91505092915050565b6000806040838503121561294957612948612229565b5b600083013567ffffffffffffffff8111156129675761296661222e565b5b61297385828601612904565b925050602083013567ffffffffffffffff8111156129945761299361222e565b5b6129a0858286016126bd565b9150509250929050565b600081519050919050565b600082825260208201905092915050565b6000819050602082019050919050565b6129df81612291565b82525050565b60006129f183836129d6565b60208301905092915050565b6000602082019050919050565b6000612a15826129aa565b612a1f81856129b5565b9350612a2a836129c6565b8060005b83811015612a5b578151612a4288826129e5565b9750612a4d836129fd565b925050600181019050612a2e565b5085935050505092915050565b60006020820190508181036000830152612a828184612a0a565b905092915050565b600081519050919050565b600082825260208201905092915050565b6000819050602082019050919050565b612abf81612253565b82525050565b6000612ad18383612ab6565b60208301905092915050565b6000602082019050919050565b6000612af582612a8a565b612aff8185612a95565b9350612b0a83612aa6565b8060005b83811015612b3b578151612b228882612ac5565b9750612b2d83612add565b925050600181019050612b0e565b5085935050505092915050565b60006020820190508181036000830152612b628184612aea565b905092915050565b6000819050919050565b612b7d81612b6a565b8114612b8857600080fd5b50565b600081359050612b9a81612b74565b92915050565b60008060408385031215612bb757612bb6612229565b5b6000612bc585828601612b8b565b925050602083013567ffffffffffffffff811115612be657612be561222e565b5b612bf285828601612772565b9150509250929050565b612c05816123b6565b8114612c1057600080fd5b50565b600081359050612c2281612bfc565b92915050565b60008060408385031215612c3f57612c3e612229565b5b6000612c4d8582860161227c565b9250506020612c5e85828601612c13565b9150509250929050565b600060208284031215612c7e57612c7d612229565b5b600082013567ffffffffffffffff811115612c9c57612c9b61222e565b5b612ca884828501612772565b91505092915050565b612cba81612b6a565b82525050565b600060ff82169050919050565b612cd681612cc0565b82525050565b6000606082019050612cf16000830186612cb1565b612cfe6020830185612cb1565b612d0b6040830184612ccd565b949350505050565b60008060408385031215612d2a57612d29612229565b5b6000612d38858286016122b2565b9250506020612d498582860161227c565b9150509250929050565b6000602082019050612d686000830184612cb1565b92915050565b60008060408385031215612d8557612d84612229565b5b6000612d938582860161227c565b9250506020612da48582860161227c565b9150509250929050565b600080600080600060a08688031215612dca57612dc9612229565b5b6000612dd88882890161227c565b9550506020612de98882890161227c565b9450506040612dfa888289016122b2565b9350506060612e0b888289016122b2565b925050608086013567ffffffffffffffff811115612e2c57612e2b61222e565b5b612e3888828901612772565b9150509295509295909350565b600060208284031215612e5b57612e5a612229565b5b6000612e6984828501612b8b565b91505092915050565b7f455243313135353a2061646472657373207a65726f206973206e6f742061207660008201527f616c6964206f776e657200000000000000000000000000000000000000000000602082015250565b6000612ece602a836124bc565b9150612ed982612e72565b604082019050919050565b60006020820190508181036000830152612efd81612ec1565b9050919050565b7f57726f6e67207072696365000000000000000000000000000000000000000000600082015250565b6000612f3a600b836124bc565b9150612f4582612f04565b602082019050919050565b60006020820190508181036000830152612f6981612f2d565b9050919050565b600060208284031215612f8657612f85612229565b5b6000612f9484828501612c13565b91505092915050565b600080fd5b600080fd5b600080fd5b60008083356001602003843603038112612fc957612fc8612f9d565b5b80840192508235915067ffffffffffffffff821115612feb57612fea612fa2565b5b60208301925060018202360383131561300757613006612fa7565b5b509250929050565b7f416c7265616479206d696e746564000000000000000000000000000000000000600082015250565b6000613045600e836124bc565b91506130508261300f565b602082019050919050565b6000602082019050818103600083015261307481613038565b9050919050565b7f4e487b7100000000000000000000000000000000000000000000000000000000600052601160045260246000fd5b60006130b582612291565b91506130c083612291565b92508282019050808211156130d8576130d761307b565b5b92915050565b60006130e982612291565b91507fffffffffffffffffffffffffffffffffffffffffffffffffffffffffffffffff820361311b5761311a61307b565b5b600182019050919050565b7f4e487b7100000000000000000000000000000000000000000000000000000000600052602260045260246000fd5b6000600282049050600182168061316d57607f821691505b6020821081036131805761317f613126565b5b50919050565b7f455243313135353a2063616c6c6572206973206e6f7420746f6b656e206f776e60008201527f6572206e6f7220617070726f7665640000000000000000000000000000000000602082015250565b60006131e2602f836124bc565b91506131ed82613186565b604082019050919050565b60006020820190508181036000830152613211816131d5565b9050919050565b7f455243313135353a206163636f756e747320616e6420696473206c656e67746860008201527f206d69736d617463680000000000000000000000000000000000000000000000602082015250565b60006132746029836124bc565b915061327f82613218565b604082019050919050565b600060208201905081810360008301526132a381613267565b9050919050565b7f4e487b7100000000000000000000000000000000000000000000000000000000600052603260045260246000fd5b60006132e482612291565b91506132ef83612291565b92508282026132fd81612291565b915082820484148315176133145761331361307b565b5b5092915050565b7f4e487b7100000000000000000000000000000000000000000000000000000000600052601260045260246000fd5b600061335582612291565b915061336083612291565b9250826133705761336f61331b565b5b828204905092915050565b600081905092915050565b50565b600061339660008361337b565b91506133a182613386565b600082019050919050565b60006133b782613389565b9150819050919050565b60006080820190506133d66000830187612cb1565b6133e36020830186612ccd565b6133f06040830185612cb1565b6133fd6060830184612cb1565b95945050505050565b7f696e76616c6964207369676e6174757265206c656e6774680000000000000000600082015250565b600061343c6018836124bc565b915061344782613406565b602082019050919050565b6000602082019050818103600083015261346b8161342f565b9050919050565b60008160f81b9050919050565b600061348a82613472565b9050919050565b600061349c8261347f565b9050919050565b6134b46134af826123b6565b613491565b82525050565b600081905092915050565b60006134d183856134ba565b93506134de838584612721565b82840190509392505050565b6000819050919050565b61350561350082612291565b6134ea565b82525050565b6000613517828b6134a3565b60018201915061352882898b6134c5565b915061353482886134a3565b60018201915061354482876134f4565b60208201915061355482866134a3565b6001820191506135658284866134c5565b91508190509998505050505050505050565b7f19457468657265756d205369676e6564204d6573736167653a0a333200000000600082015250565b60006135ad601c836134ba565b91506135b882613577565b601c82019050919050565b6000819050919050565b6135de6135d982612b6a565b6135c3565b82525050565b60006135ef826135a0565b91506135fb82846135cd565b60208201915081905092915050565b7f455243313135353a206d696e7420746f20746865207a65726f2061646472657360008201527f7300000000000000000000000000000000000000000000000000000000000000602082015250565b60006136666021836124bc565b91506136718261360a565b604082019050919050565b6000602082019050818103600083015261369581613659565b9050919050565b60006040820190506136b16000830185612307565b6136be6020830184612307565b9392505050565b60008190508160005260206000209050919050565b60006020601f8301049050919050565b600082821b905092915050565b6000600883026137277fffffffffffffffffffffffffffffffffffffffffffffffffffffffffffffffff826136ea565b61373186836136ea565b95508019841693508086168417925050509392505050565b6000819050919050565b600061376e61376961376484612291565b613749565b612291565b9050919050565b6000819050919050565b61378883613753565b61379c61379482613775565b8484546136f7565b825550505050565b600090565b6137b16137a4565b6137bc81848461377f565b505050565b5b818110156137e0576137d56000826137a9565b6001810190506137c2565b5050565b601f821115613825576137f6816136c5565b6137ff846136da565b8101602085101561380e578190505b61382261381a856136da565b8301826137c1565b50505b505050565b600082821c905092915050565b60006138486000198460080261382a565b1980831691505092915050565b60006138618383613837565b9150826002028217905092915050565b61387a826124b1565b67ffffffffffffffff811115613893576138926125a8565b5b61389d8254613155565b6138a88282856137e4565b600060209050601f8311600181146138db57600084156138c9578287015190505b6138d38582613855565b86555061393b565b601f1984166138e9866136c5565b60005b82811015613911578489015182556001820191506020850194506020810190506138ec565b8683101561392e578489015161392a601f891682613837565b8355505b6001600288020188555050505b505050505050565b7f455243313135353a2069647320616e6420616d6f756e7473206c656e6774682060008201527f6d69736d61746368000000000000000000000000000000000000000000000000602082015250565b600061399f6028836124bc565b91506139aa82613943565b604082019050919050565b600060208201905081810360008301526139ce81613992565b9050919050565b7f455243313135353a207472616e7366657220746f20746865207a65726f20616460008201527f6472657373000000000000000000000000000000000000000000000000000000602082015250565b6000613a316025836124bc565b9150613a3c826139d5565b604082019050919050565b60006020820190508181036000830152613a6081613a24565b9050919050565b7f455243313135353a20696e73756666696369656e742062616c616e636520666f60008201527f72207472616e7366657200000000000000000000000000000000000000000000602082015250565b6000613ac3602a836124bc565b9150613ace82613a67565b604082019050919050565b60006020820190508181036000830152613af281613ab6565b9050919050565b60006040820190508181036000830152613b138185612a0a565b90508181036020830152613b278184612a0a565b90509392505050565b7f455243313135353a2073657474696e6720617070726f76616c2073746174757360008201527f20666f722073656c660000000000000000000000000000000000000000000000602082015250565b6000613b8c6029836124bc565b9150613b9782613b30565b604082019050919050565b60006020820190508181036000830152613bbb81613b7f565b9050919050565b600081519050919050565b600082825260208201905092915050565b6000613be982613bc2565b613bf38185613bcd565b9350613c038185602086016124cd565b613c0c816124f7565b840191505092915050565b600060a082019050613c2c6000830188612487565b613c396020830187612487565b613c466040830186612307565b613c536060830185612307565b8181036080830152613c658184613bde565b90509695505050505050565b600081519050613c808161235d565b92915050565b600060208284031215613c9c57613c9b612229565b5b6000613caa84828501613c71565b91505092915050565b60008160e01c9050919050565b600060033d1115613cdf5760046000803e613cdc600051613cb3565b90505b90565b600060443d10613d6f57613cf461221f565b60043d036004823e80513d602482011167ffffffffffffffff82111715613d1c575050613d6f565b808201805167ffffffffffffffff811115613d3a5750505050613d6f565b80602083010160043d038501811115613d57575050505050613d6f565b613d66826020018501866125d7565b82955050505050505b90565b7f455243313135353a207472616e7366657220746f206e6f6e204552433131353560008201527f526563656976657220696d706c656d656e746572000000000000000000000000602082015250565b6000613dce6034836124bc565b9150613dd982613d72565b604082019050919050565b60006020820190508181036000830152613dfd81613dc1565b9050919050565b7f455243313135353a204552433131353552656365697665722072656a6563746560008201527f6420746f6b656e73000000000000000000000000000000000000000000000000602082015250565b6000613e606028836124bc565b9150613e6b82613e04565b604082019050919050565b60006020820190508181036000830152613e8f81613e53565b9050919050565b600060a082019050613eab6000830188612487565b613eb86020830187612487565b8181036040830152613eca8186612a0a565b90508181036060830152613ede8185612a0a565b90508181036080830152613ef28184613bde565b9050969550505050505056fea2646970667358221220a5571376a795451a934fce8524375393aac2c22c5d76c28af6a46851782c698364736f6c63430008130033",
  "linkReferences": {},
  "deployedLinkReferences": {}
}