{
  "_format": "hh-sol-artifact-1",
  "contractName": "Award",
  "sourceName": "contracts/Award.sol",
  "abi": [
    {
      "inputs": [],
      "stateMutability": "nonpayable",
      "type": "constructor"
    },
    {
      "anonymous": false,
      "inputs": [
        {
          "indexed": true,
          "internalType": "address",
          "name": "account",
          "type": "address"
        },
        {
          "indexed": true,
          "internalType": "address",
          "name": "operator",
          "type": "address"
        },
        {
          "indexed": false,
          "internalType": "bool",
          "name": "approved",
          "type": "bool"
        }
      ],
      "name": "ApprovalForAll",
      "type": "event"
    },
    {
      "anonymous": false,
      "inputs": [
        {
          "indexed": true,
          "internalType": "address",
          "name": "operator",
          "type": "address"
        },
        {
          "indexed": true,
          "internalType": "address",
          "name": "from",
          "type": "address"
        },
        {
          "indexed": true,
          "internalType": "address",
          "name": "to",
          "type": "address"
        },
        {
          "indexed": false,
          "internalType": "uint256[]",
          "name": "ids",
          "type": "uint256[]"
        },
        {
          "indexed": false,
          "internalType": "uint256[]",
          "name": "values",
          "type": "uint256[]"
        }
      ],
      "name": "TransferBatch",
      "type": "event"
    },
    {
      "anonymous": false,
      "inputs": [
        {
          "indexed": true,
          "internalType": "address",
          "name": "operator",
          "type": "address"
        },
        {
          "indexed": true,
          "internalType": "address",
          "name": "from",
          "type": "address"
        },
        {
          "indexed": true,
          "internalType": "address",
          "name": "to",
          "type": "address"
        },
        {
          "indexed": false,
          "internalType": "uint256",
          "name": "id",
          "type": "uint256"
        },
        {
          "indexed": false,
          "internalType": "uint256",
          "name": "value",
          "type": "uint256"
        }
      ],
      "name": "TransferSingle",
      "type": "event"
    },
    {
      "anonymous": false,
      "inputs": [
        {
          "indexed": false,
          "internalType": "string",
          "name": "value",
          "type": "string"
        },
        {
          "indexed": true,
          "internalType": "uint256",
          "name": "id",
          "type": "uint256"
        }
      ],
      "name": "URI",
      "type": "event"
    },
    {
      "inputs": [
        {
          "internalType": "address",
          "name": "account",
          "type": "address"
        },
        {
          "internalType": "uint256",
          "name": "id",
          "type": "uint256"
        }
      ],
      "name": "balanceOf",
      "outputs": [
        {
          "internalType": "uint256",
          "name": "",
          "type": "uint256"
        }
      ],
      "stateMutability": "view",
      "type": "function"
    },
    {
      "inputs": [
        {
          "internalType": "address[]",
          "name": "accounts",
          "type": "address[]"
        },
        {
          "internalType": "uint256[]",
          "name": "ids",
          "type": "uint256[]"
        }
      ],
      "name": "balanceOfBatch",
      "outputs": [
        {
          "internalType": "uint256[]",
          "name": "",
          "type": "uint256[]"
        }
      ],
      "stateMutability": "view",
      "type": "function"
    },
    {
      "inputs": [
        {
          "internalType": "bytes32",
          "name": "_messageHash",
          "type": "bytes32"
        }
      ],
      "name": "getEthSignedMessageHash",
      "outputs": [
        {
          "internalType": "bytes32",
          "name": "",
          "type": "bytes32"
        }
      ],
      "stateMutability": "pure",
      "type": "function"
    },
    {
      "inputs": [
        {
          "internalType": "bool",
          "name": "_first",
          "type": "bool"
        },
        {
          "internalType": "string",
          "name": "_uriFirst",
          "type": "string"
        },
        {
          "internalType": "bool",
          "name": "_ten",
          "type": "bool"
        },
        {
          "internalType": "uint256",
          "name": "_percentage",
          "type": "uint256"
        },
        {
          "internalType": "bool",
          "name": "_hundred",
          "type": "bool"
        },
        {
          "internalType": "string",
          "name": "_uriSecond",
          "type": "string"
        }
      ],
      "name": "getMessageHash",
      "outputs": [
        {
          "internalType": "bytes32",
          "name": "",
          "type": "bytes32"
        }
      ],
      "stateMutability": "pure",
      "type": "function"
    },
    {
      "inputs": [
        {
          "internalType": "uint256",
          "name": "_token",
          "type": "uint256"
        }
      ],
      "name": "getWhitelist",
      "outputs": [
        {
          "internalType": "address[]",
          "name": "",
          "type": "address[]"
        }
      ],
      "stateMutability": "view",
      "type": "function"
    },
    {
      "inputs": [
        {
          "internalType": "address",
          "name": "account",
          "type": "address"
        },
        {
          "internalType": "address",
          "name": "operator",
          "type": "address"
        }
      ],
      "name": "isApprovedForAll",
      "outputs": [
        {
          "internalType": "bool",
          "name": "",
          "type": "bool"
        }
      ],
      "stateMutability": "view",
      "type": "function"
    },
    {
      "inputs": [
        {
          "internalType": "uint256",
          "name": "id",
          "type": "uint256"
        }
      ],
      "name": "isWhitelisted",
      "outputs": [
        {
          "internalType": "bool",
          "name": "",
          "type": "bool"
        }
      ],
      "stateMutability": "view",
      "type": "function"
    },
    {
      "inputs": [
        {
          "components": [
            {
              "internalType": "address",
              "name": "owner",
              "type": "address"
            },
            {
              "internalType": "uint256",
              "name": "voucherId",
              "type": "uint256"
            },
            {
              "internalType": "bool",
              "name": "first",
              "type": "bool"
            },
            {
              "internalType": "string",
              "name": "uriFirst",
              "type": "string"
            },
            {
              "internalType": "uint256",
              "name": "firstId",
              "type": "uint256"
            },
            {
              "internalType": "bool",
              "name": "ten",
              "type": "bool"
            },
            {
              "internalType": "uint256",
              "name": "percentage",
              "type": "uint256"
            },
            {
              "internalType": "bool",
              "name": "hundred",
              "type": "bool"
            },
            {
              "internalType": "string",
              "name": "uriSecond",
              "type": "string"
            },
            {
              "internalType": "uint256",
              "name": "secondId",
              "type": "uint256"
            },
            {
              "internalType": "bytes",
              "name": "signature",
              "type": "bytes"
            }
          ],
          "internalType": "struct Award.Voucher",
          "name": "voucher",
          "type": "tuple"
        }
      ],
      "name": "mint",
      "outputs": [],
      "stateMutability": "payable",
      "type": "function"
    },
    {
      "inputs": [
        {
          "internalType": "address",
          "name": "_owner",
          "type": "address"
        },
        {
          "internalType": "uint256",
          "name": "_id",
          "type": "uint256"
        },
        {
          "internalType": "bool",
          "name": "_first",
          "type": "bool"
        },
        {
          "internalType": "string",
          "name": "_uriFirst",
          "type": "string"
        },
        {
          "internalType": "uint256",
          "name": "_firstId",
          "type": "uint256"
        },
        {
          "internalType": "bool",
          "name": "_ten",
          "type": "bool"
        },
        {
          "internalType": "uint256",
          "name": "_percentage",
          "type": "uint256"
        },
        {
          "internalType": "bool",
          "name": "_hundred",
          "type": "bool"
        },
        {
          "internalType": "string",
          "name": "_uriSecond",
          "type": "string"
        },
        {
          "internalType": "uint256",
          "name": "_secondId",
          "type": "uint256"
        },
        {
          "internalType": "bytes",
          "name": "_signature",
          "type": "bytes"
        }
      ],
      "name": "mintTwo",
      "outputs": [],
      "stateMutability": "payable",
      "type": "function"
    },
    {
      "inputs": [
        {
          "internalType": "uint256",
          "name": "",
          "type": "uint256"
        }
      ],
      "name": "neki",
      "outputs": [
        {
          "internalType": "address",
          "name": "",
          "type": "address"
        }
      ],
      "stateMutability": "view",
      "type": "function"
    },
    {
      "inputs": [
        {
          "internalType": "uint256",
          "name": "",
          "type": "uint256"
        },
        {
          "internalType": "uint256",
          "name": "",
          "type": "uint256"
        }
      ],
      "name": "newWhitelist",
      "outputs": [
        {
          "internalType": "address",
          "name": "",
          "type": "address"
        }
      ],
      "stateMutability": "view",
      "type": "function"
    },
    {
      "inputs": [],
      "name": "price",
      "outputs": [
        {
          "internalType": "uint256",
          "name": "",
          "type": "uint256"
        }
      ],
      "stateMutability": "view",
      "type": "function"
    },
    {
      "inputs": [
        {
          "internalType": "bytes32",
          "name": "_ethSignedMessageHash",
          "type": "bytes32"
        },
        {
          "internalType": "bytes",
          "name": "_signature",
          "type": "bytes"
        }
      ],
      "name": "recoverSigner",
      "outputs": [
        {
          "internalType": "address",
          "name": "",
          "type": "address"
        }
      ],
      "stateMutability": "pure",
      "type": "function"
    },
    {
      "inputs": [
        {
          "internalType": "address",
          "name": "from",
          "type": "address"
        },
        {
          "internalType": "address",
          "name": "to",
          "type": "address"
        },
        {
          "internalType": "uint256[]",
          "name": "ids",
          "type": "uint256[]"
        },
        {
          "internalType": "uint256[]",
          "name": "amounts",
          "type": "uint256[]"
        },
        {
          "internalType": "bytes",
          "name": "data",
          "type": "bytes"
        }
      ],
      "name": "safeBatchTransferFrom",
      "outputs": [],
      "stateMutability": "nonpayable",
      "type": "function"
    },
    {
      "inputs": [
        {
          "internalType": "address",
          "name": "from",
          "type": "address"
        },
        {
          "internalType": "address",
          "name": "to",
          "type": "address"
        },
        {
          "internalType": "uint256",
          "name": "id",
          "type": "uint256"
        },
        {
          "internalType": "uint256",
          "name": "amount",
          "type": "uint256"
        },
        {
          "internalType": "bytes",
          "name": "data",
          "type": "bytes"
        }
      ],
      "name": "safeTransferFrom",
      "outputs": [],
      "stateMutability": "nonpayable",
      "type": "function"
    },
    {
      "inputs": [
        {
          "internalType": "address",
          "name": "operator",
          "type": "address"
        },
        {
          "internalType": "bool",
          "name": "approved",
          "type": "bool"
        }
      ],
      "name": "setApprovalForAll",
      "outputs": [],
      "stateMutability": "nonpayable",
      "type": "function"
    },
    {
      "inputs": [
        {
          "internalType": "bytes",
          "name": "sig",
          "type": "bytes"
        }
      ],
      "name": "splitSignature",
      "outputs": [
        {
          "internalType": "bytes32",
          "name": "r",
          "type": "bytes32"
        },
        {
          "internalType": "bytes32",
          "name": "s",
          "type": "bytes32"
        },
        {
          "internalType": "uint8",
          "name": "v",
          "type": "uint8"
        }
      ],
      "stateMutability": "pure",
      "type": "function"
    },
    {
      "inputs": [
        {
          "internalType": "bytes4",
          "name": "interfaceId",
          "type": "bytes4"
        }
      ],
      "name": "supportsInterface",
      "outputs": [
        {
          "internalType": "bool",
          "name": "",
          "type": "bool"
        }
      ],
      "stateMutability": "view",
      "type": "function"
    },
    {
      "inputs": [
        {
          "internalType": "uint256",
          "name": "",
          "type": "uint256"
        }
      ],
      "name": "totalSupplyOf",
      "outputs": [
        {
          "internalType": "uint256",
          "name": "",
          "type": "uint256"
        }
      ],
      "stateMutability": "view",
      "type": "function"
    },
    {
      "inputs": [
        {
          "internalType": "uint256",
          "name": "tokenId",
          "type": "uint256"
        }
      ],
      "name": "uri",
      "outputs": [
        {
          "internalType": "string",
          "name": "",
          "type": "string"
        }
      ],
      "stateMutability": "view",
      "type": "function"
    },
    {
      "inputs": [
        {
          "internalType": "address",
          "name": "_owner",
          "type": "address"
        },
        {
          "internalType": "bool",
          "name": "_first",
          "type": "bool"
        },
        {
          "internalType": "string",
          "name": "_uriFirst",
          "type": "string"
        },
        {
          "internalType": "bool",
          "name": "_ten",
          "type": "bool"
        },
        {
          "internalType": "uint256",
          "name": "_percentage",
          "type": "uint256"
        },
        {
          "internalType": "bool",
          "name": "_hundred",
          "type": "bool"
        },
        {
          "internalType": "string",
          "name": "_uriSecond",
          "type": "string"
        },
        {
          "internalType": "bytes",
          "name": "_signature",
          "type": "bytes"
        }
      ],
      "name": "verify",
      "outputs": [
        {
          "internalType": "bool",
          "name": "",
          "type": "bool"
        }
      ],
      "stateMutability": "pure",
      "type": "function"
    },
    {
      "inputs": [
        {
          "internalType": "address",
          "name": "",
          "type": "address"
        }
      ],
      "name": "wallet",
      "outputs": [
        {
          "internalType": "uint256",
          "name": "",
          "type": "uint256"
        }
      ],
      "stateMutability": "view",
      "type": "function"
    },
    {
      "inputs": [
        {
          "internalType": "uint256",
          "name": "",
          "type": "uint256"
        },
        {
          "internalType": "address",
          "name": "",
          "type": "address"
        }
      ],
      "name": "whitelistTest",
      "outputs": [
        {
          "internalType": "bool",
          "name": "",
          "type": "bool"
        }
      ],
      "stateMutability": "view",
      "type": "function"
    },
    {
      "inputs": [
        {
          "components": [
            {
              "internalType": "address",
              "name": "owner",
              "type": "address"
            },
            {
              "internalType": "uint256",
              "name": "voucherId",
              "type": "uint256"
            },
            {
              "internalType": "bool",
              "name": "first",
              "type": "bool"
            },
            {
              "internalType": "string",
              "name": "uriFirst",
              "type": "string"
            },
            {
              "internalType": "uint256",
              "name": "firstId",
              "type": "uint256"
            },
            {
              "internalType": "bool",
              "name": "ten",
              "type": "bool"
            },
            {
              "internalType": "uint256",
              "name": "percentage",
              "type": "uint256"
            },
            {
              "internalType": "bool",
              "name": "hundred",
              "type": "bool"
            },
            {
              "internalType": "string",
              "name": "uriSecond",
              "type": "string"
            },
            {
              "internalType": "uint256",
              "name": "secondId",
              "type": "uint256"
            },
            {
              "internalType": "bytes",
              "name": "signature",
              "type": "bytes"
            }
          ],
          "internalType": "struct Award.Voucher",
          "name": "voucher",
          "type": "tuple"
        }
      ],
      "name": "withdraw",
      "outputs": [],
      "stateMutability": "nonpayable",
      "type": "function"
    }
  ],
  "bytecode": "0x6080604052604051806060016040528073617f2e2fd72fd9d5503197092ac168c91465e7f273ffffffffffffffffffffffffffffffffffffffff1673ffffffffffffffffffffffffffffffffffffffff1681526020017317f6ad8ef982297579c203069c1dbffe4348c37273ffffffffffffffffffffffffffffffffffffffff1673ffffffffffffffffffffffffffffffffffffffff168152602001735c6b0f7bf3e7ce046039bd8fabdfd3f9f502167873ffffffffffffffffffffffffffffffffffffffff1673ffffffffffffffffffffffffffffffffffffffff168152506007906003620000f192919062000149565b50678ac7230489e800006009553480156200010b57600080fd5b50604051806020016040528060008152506200012d816200013460201b60201c565b5062000558565b806002908162000145919062000471565b5050565b828054828255906000526020600020908101928215620001c5579160200282015b82811115620001c45782518260006101000a81548173ffffffffffffffffffffffffffffffffffffffff021916908373ffffffffffffffffffffffffffffffffffffffff160217905550916020019190600101906200016a565b5b509050620001d49190620001d8565b5090565b5b80821115620001f3576000816000905550600101620001d9565b5090565b600081519050919050565b7f4e487b7100000000000000000000000000000000000000000000000000000000600052604160045260246000fd5b7f4e487b7100000000000000000000000000000000000000000000000000000000600052602260045260246000fd5b600060028204905060018216806200027957607f821691505b6020821081036200028f576200028e62000231565b5b50919050565b60008190508160005260206000209050919050565b60006020601f8301049050919050565b600082821b905092915050565b600060088302620002f97fffffffffffffffffffffffffffffffffffffffffffffffffffffffffffffffff82620002ba565b620003058683620002ba565b95508019841693508086168417925050509392505050565b6000819050919050565b6000819050919050565b6000620003526200034c62000346846200031d565b62000327565b6200031d565b9050919050565b6000819050919050565b6200036e8362000331565b620003866200037d8262000359565b848454620002c7565b825550505050565b600090565b6200039d6200038e565b620003aa81848462000363565b505050565b5b81811015620003d257620003c660008262000393565b600181019050620003b0565b5050565b601f8211156200042157620003eb8162000295565b620003f684620002aa565b8101602085101562000406578190505b6200041e6200041585620002aa565b830182620003af565b50505b505050565b600082821c905092915050565b6000620004466000198460080262000426565b1980831691505092915050565b600062000461838362000433565b9150826002028217905092915050565b6200047c82620001f7565b67ffffffffffffffff81111562000498576200049762000202565b5b620004a4825462000260565b620004b1828285620003d6565b600060209050601f831160018114620004e95760008415620004d4578287015190505b620004e0858262000453565b86555062000550565b601f198416620004f98662000295565b60005b828110156200052357848901518255600182019150602085019450602081019050620004fc565b868310156200054357848901516200053f601f89168262000433565b8355505b6001600288020188555050505b505050505050565b61469780620005686000396000f3fe60806040526004361061014a5760003560e01c8063a22cb465116100b6578063dc06df861161006f578063dc06df8614610540578063e8614b1e1461057d578063e985e9c514610599578063f242432a146105d6578063fa540801146105ff578063fcf15b5d1461063c5761014a565b8063a22cb46514610405578063a56cc4391461042e578063a7bb58031461046b578063aa3e5ee3146104aa578063bb2ce4f6146104e7578063cae2bac2146105035761014a565b80634e1273f4116101085780634e1273f4146102a9578063751b02c2146102e657806375b0d9cd1461032357806396db752a1461036057806397aba7f91461039d578063a035b1fe146103da5761014a565b8062fdd58e1461014f57806301ffc9a71461018c5780630cce9865146101c95780630e89341c1461020657806326a622fa146102435780632eb2c2d614610280575b600080fd5b34801561015b57600080fd5b506101766004803603810190610171919061263d565b610665565b604051610183919061268c565b60405180910390f35b34801561019857600080fd5b506101b360048036038101906101ae91906126ff565b61072d565b6040516101c09190612747565b60405180910390f35b3480156101d557600080fd5b506101f060048036038101906101eb9190612762565b61080f565b6040516101fd919061279e565b60405180910390f35b34801561021257600080fd5b5061022d60048036038101906102289190612762565b61084e565b60405161023a9190612849565b60405180910390f35b34801561024f57600080fd5b5061026a6004803603810190610265919061286b565b6108f3565b604051610277919061279e565b60405180910390f35b34801561028c57600080fd5b506102a760048036038101906102a29190612aa8565b610941565b005b3480156102b557600080fd5b506102d060048036038101906102cb9190612c3a565b6109e2565b6040516102dd9190612d70565b60405180910390f35b3480156102f257600080fd5b5061030d60048036038101906103089190612762565b610afb565b60405161031a9190612747565b60405180910390f35b34801561032f57600080fd5b5061034a60048036038101906103459190612762565b610bcb565b604051610357919061268c565b60405180910390f35b34801561036c57600080fd5b5061038760048036038101906103829190612762565b610be3565b6040516103949190612e50565b60405180910390f35b3480156103a957600080fd5b506103c460048036038101906103bf9190612ea8565b610c84565b6040516103d1919061279e565b60405180910390f35b3480156103e657600080fd5b506103ef610cf3565b6040516103fc919061268c565b60405180910390f35b34801561041157600080fd5b5061042c60048036038101906104279190612f30565b610cf9565b005b34801561043a57600080fd5b5061045560048036038101906104509190612f70565b610d0f565b604051610462919061268c565b60405180910390f35b34801561047757600080fd5b50610492600480360381019061048d9190612f9d565b610d27565b6040516104a193929190613011565b60405180910390f35b3480156104b657600080fd5b506104d160048036038101906104cc91906130e9565b610d8f565b6040516104de91906131ae565b60405180910390f35b61050160048036038101906104fc91906131c9565b610dce565b005b34801561050f57600080fd5b5061052a60048036038101906105259190613311565b610ff2565b6040516105379190612747565b60405180910390f35b34801561054c57600080fd5b5061056760048036038101906105629190613351565b611021565b6040516105749190612747565b60405180910390f35b61059760048036038101906105929190613480565b6110ac565b005b3480156105a557600080fd5b506105c060048036038101906105bb91906134c9565b611426565b6040516105cd9190612747565b60405180910390f35b3480156105e257600080fd5b506105fd60048036038101906105f89190613509565b6114ba565b005b34801561060b57600080fd5b50610626600480360381019061062191906135a0565b61155b565b60405161063391906131ae565b60405180910390f35b34801561064857600080fd5b50610663600480360381019061065e9190613480565b61158b565b005b60008073ffffffffffffffffffffffffffffffffffffffff168373ffffffffffffffffffffffffffffffffffffffff16036106d5576040517f08c379a00000000000000000000000000000000000000000000000000000000081526004016106cc9061363f565b60405180910390fd5b60008083815260200190815260200160002060008473ffffffffffffffffffffffffffffffffffffffff1673ffffffffffffffffffffffffffffffffffffffff16815260200190815260200160002054905092915050565b60007fd9b67a26000000000000000000000000000000000000000000000000000000007bffffffffffffffffffffffffffffffffffffffffffffffffffffffff1916827bffffffffffffffffffffffffffffffffffffffffffffffffffffffff191614806107f857507f0e89341c000000000000000000000000000000000000000000000000000000007bffffffffffffffffffffffffffffffffffffffffffffffffffffffff1916827bffffffffffffffffffffffffffffffffffffffffffffffffffffffff1916145b806108085750610807826117cb565b5b9050919050565b6007818154811061081f57600080fd5b906000526020600020016000915054906101000a900473ffffffffffffffffffffffffffffffffffffffff1681565b606060066000838152602001908152602001600020805461086e9061368e565b80601f016020809104026020016040519081016040528092919081815260200182805461089a9061368e565b80156108e75780601f106108bc576101008083540402835291602001916108e7565b820191906000526020600020905b8154815290600101906020018083116108ca57829003601f168201915b50505050509050919050565b6003602052816000526040600020818154811061090f57600080fd5b906000526020600020016000915091509054906101000a900473ffffffffffffffffffffffffffffffffffffffff1681565b610949611835565b73ffffffffffffffffffffffffffffffffffffffff168573ffffffffffffffffffffffffffffffffffffffff16148061098f575061098e85610989611835565b611426565b5b6109ce576040517f08c379a00000000000000000000000000000000000000000000000000000000081526004016109c590613731565b60405180910390fd5b6109db858585858561183d565b5050505050565b60608151835114610a28576040517f08c379a0000000000000000000000000000000000000000000000000000000008152600401610a1f906137c3565b60405180910390fd5b6000835167ffffffffffffffff811115610a4557610a446128b0565b5b604051908082528060200260200182016040528015610a735781602001602082028036833780820191505090505b50905060005b8451811015610af057610ac0858281518110610a9857610a976137e3565b5b6020026020010151858381518110610ab357610ab26137e3565b5b6020026020010151610665565b828281518110610ad357610ad26137e3565b5b60200260200101818152505080610ae990613841565b9050610a79565b508091505092915050565b600080600090505b6003600084815260200190815260200160002080549050811015610bc0573373ffffffffffffffffffffffffffffffffffffffff16600360008581526020019081526020016000208281548110610b5d57610b5c6137e3565b5b9060005260206000200160009054906101000a900473ffffffffffffffffffffffffffffffffffffffff1673ffffffffffffffffffffffffffffffffffffffff1603610bad576000915050610bc6565b8080610bb890613841565b915050610b03565b50600190505b919050565b60056020528060005260406000206000915090505481565b606060036000838152602001908152602001600020805480602002602001604051908101604052809291908181526020018280548015610c7857602002820191906000526020600020905b8160009054906101000a900473ffffffffffffffffffffffffffffffffffffffff1673ffffffffffffffffffffffffffffffffffffffff1681526020019060010190808311610c2e575b50505050509050919050565b600080600080610c9385610d27565b92509250925060018682858560405160008152602001604052604051610cbc9493929190613889565b6020604051602081039080840390855afa158015610cde573d6000803e3d6000fd5b50505060206040510351935050505092915050565b60095481565b610d0b610d04611835565b8383611b5e565b5050565b60086020528060005260406000206000915090505481565b60008060006041845114610d70576040517f08c379a0000000000000000000000000000000000000000000000000000000008152600401610d679061391a565b60405180910390fd5b6020840151925060408401519150606084015160001a90509193909250565b6000868686868686604051602001610dac969594939291906139df565b6040516020818303038152906040528051906020012090509695505050505050565b6000600560008c815260200190815260200160002054148015610dee5750885b15610e1a57610e0f3388600160405180602001604052806000815250611cca565b610e198789611e7a565b5b6003600560008c815260200190815260200160002054108015610e3a5750855b15610efc57610e488a610afb565b610e87576040517f08c379a0000000000000000000000000000000000000000000000000000000008152600401610e7e90613a93565b60405180910390fd5b600360008b8152602001908152602001600020339080600181540180825580915050600190039060005260206000200160009091909190916101000a81548173ffffffffffffffffffffffffffffffffffffffff021916908373ffffffffffffffffffffffffffffffffffffffff1602179055505b6064600560008c815260200190815260200160002054108015610f1c5750835b15610f4857610f3d3383600160405180602001604052806000815250611cca565b610f478284611e7a565b5b6003600560008c81526020019081526020016000205410610fbc57600954600860008d73ffffffffffffffffffffffffffffffffffffffff1673ffffffffffffffffffffffffffffffffffffffff1681526020019081526020016000206000828254610fb49190613ab3565b925050819055505b600560008b81526020019081526020016000206000815480929190610fe090613841565b91905055505050505050505050505050565b60046020528160005260406000206020528060005260406000206000915091509054906101000a900460ff1681565b60008088888888888860405160200161103f969594939291906139df565b60405160208183030381529060405280519060200120905060006110628261155b565b90508a73ffffffffffffffffffffffffffffffffffffffff166110858286610c84565b73ffffffffffffffffffffffffffffffffffffffff16149250505098975050505050505050565b6009543410156110f1576040517f08c379a00000000000000000000000000000000000000000000000000000000081526004016110e890613b33565b60405180910390fd5b600060056000836020013581526020019081526020016000205414801561112757508060400160208101906111269190613b53565b5b156111ad5761114c338260800135600160405180602001604052806000815250611cca565b6111ac81608001358280606001906111649190613b8f565b8080601f016020809104026020016040519081016040528093929190818152602001838380828437600081840152601f19601f82011690508083019250505050505050611e7a565b5b60036005600083602001358152602001908152602001600020541080156111e357508060a00160208101906111e29190613b53565b5b156112ad576111f58160200135610afb565b611234576040517f08c379a000000000000000000000000000000000000000000000000000000000815260040161122b90613a93565b60405180910390fd5b6003600082602001358152602001908152602001600020339080600181540180825580915050600190039060005260206000200160009091909190916101000a81548173ffffffffffffffffffffffffffffffffffffffff021916908373ffffffffffffffffffffffffffffffffffffffff1602179055505b60646005600083602001358152602001908152602001600020541080156112e357508060e00160208101906112e29190613b53565b5b1561136c5761130933826101200135600160405180602001604052806000815250611cca565b61136b816101200135828061010001906113239190613b8f565b8080601f016020809104026020016040519081016040528093929190818152602001838380828437600081840152601f19601f82011690508083019250505050505050611e7a565b5b6003600560008360200135815260200190815260200160002054106113f657600954600860008360000160208101906113a59190612f70565b73ffffffffffffffffffffffffffffffffffffffff1673ffffffffffffffffffffffffffffffffffffffff16815260200190815260200160002060008282546113ee9190613ab3565b925050819055505b6005600082602001358152602001908152602001600020600081548092919061141e90613841565b919050555050565b6000600160008473ffffffffffffffffffffffffffffffffffffffff1673ffffffffffffffffffffffffffffffffffffffff16815260200190815260200160002060008373ffffffffffffffffffffffffffffffffffffffff1673ffffffffffffffffffffffffffffffffffffffff16815260200190815260200160002060009054906101000a900460ff16905092915050565b6114c2611835565b73ffffffffffffffffffffffffffffffffffffffff168573ffffffffffffffffffffffffffffffffffffffff161480611508575061150785611502611835565b611426565b5b611547576040517f08c379a000000000000000000000000000000000000000000000000000000000815260040161153e90613731565b60405180910390fd5b6115548585858585611e9f565b5050505050565b60008160405160200161156e9190613c5f565b604051602081830303815290604052805190602001209050919050565b60005b6003600083602001358152602001908152602001600020805490508110156116f9576000600360008460200135815260200190815260200160002082815481106115db576115da6137e3565b5b9060005260206000200160009054906101000a900473ffffffffffffffffffffffffffffffffffffffff1673ffffffffffffffffffffffffffffffffffffffff1660648460c001356008600087600001602081019061163a9190612f70565b73ffffffffffffffffffffffffffffffffffffffff1673ffffffffffffffffffffffffffffffffffffffff1681526020019081526020016000205461167f9190613c85565b6116899190613cf6565b60405161169590613d58565b60006040518083038185875af1925050503d80600081146116d2576040519150601f19603f3d011682016040523d82523d6000602084013e6116d7565b606091505b50509050806116e557600080fd5b5080806116f190613841565b91505061158e565b5060003373ffffffffffffffffffffffffffffffffffffffff164760405161172090613d58565b60006040518083038185875af1925050503d806000811461175d576040519150601f19603f3d011682016040523d82523d6000602084013e611762565b606091505b505090508061177057600080fd5b6000600860008460000160208101906117899190612f70565b73ffffffffffffffffffffffffffffffffffffffff1673ffffffffffffffffffffffffffffffffffffffff168152602001908152602001600020819055505050565b60007f01ffc9a7000000000000000000000000000000000000000000000000000000007bffffffffffffffffffffffffffffffffffffffffffffffffffffffff1916827bffffffffffffffffffffffffffffffffffffffffffffffffffffffff1916149050919050565b600033905090565b8151835114611881576040517f08c379a000000000000000000000000000000000000000000000000000000000815260040161187890613ddf565b60405180910390fd5b600073ffffffffffffffffffffffffffffffffffffffff168473ffffffffffffffffffffffffffffffffffffffff16036118f0576040517f08c379a00000000000000000000000000000000000000000000000000000000081526004016118e790613e71565b60405180910390fd5b60006118fa611835565b905061190a81878787878761213a565b60005b8451811015611abb57600085828151811061192b5761192a6137e3565b5b60200260200101519050600085838151811061194a576119496137e3565b5b60200260200101519050600080600084815260200190815260200160002060008b73ffffffffffffffffffffffffffffffffffffffff1673ffffffffffffffffffffffffffffffffffffffff168152602001908152602001600020549050818110156119eb576040517f08c379a00000000000000000000000000000000000000000000000000000000081526004016119e290613f03565b60405180910390fd5b81810360008085815260200190815260200160002060008c73ffffffffffffffffffffffffffffffffffffffff1673ffffffffffffffffffffffffffffffffffffffff168152602001908152602001600020819055508160008085815260200190815260200160002060008b73ffffffffffffffffffffffffffffffffffffffff1673ffffffffffffffffffffffffffffffffffffffff1681526020019081526020016000206000828254611aa09190613ab3565b9250508190555050505080611ab490613841565b905061190d565b508473ffffffffffffffffffffffffffffffffffffffff168673ffffffffffffffffffffffffffffffffffffffff168273ffffffffffffffffffffffffffffffffffffffff167f4a39dc06d4c0dbc64b70af90fd698a233a518aa5d07e595d983b8c0526c8f7fb8787604051611b32929190613f23565b60405180910390a4611b48818787878787612142565b611b5681878787878761214a565b505050505050565b8173ffffffffffffffffffffffffffffffffffffffff168373ffffffffffffffffffffffffffffffffffffffff1603611bcc576040517f08c379a0000000000000000000000000000000000000000000000000000000008152600401611bc390613fcc565b60405180910390fd5b80600160008573ffffffffffffffffffffffffffffffffffffffff1673ffffffffffffffffffffffffffffffffffffffff16815260200190815260200160002060008473ffffffffffffffffffffffffffffffffffffffff1673ffffffffffffffffffffffffffffffffffffffff16815260200190815260200160002060006101000a81548160ff0219169083151502179055508173ffffffffffffffffffffffffffffffffffffffff168373ffffffffffffffffffffffffffffffffffffffff167f17307eab39ab6107e8899845ad3d59bd9653f200f220920489ca2b5937696c3183604051611cbd9190612747565b60405180910390a3505050565b600073ffffffffffffffffffffffffffffffffffffffff168473ffffffffffffffffffffffffffffffffffffffff1603611d39576040517f08c379a0000000000000000000000000000000000000000000000000000000008152600401611d309061405e565b60405180910390fd5b6000611d43611835565b90506000611d5085612321565b90506000611d5d85612321565b9050611d6e8360008985858961213a565b8460008088815260200190815260200160002060008973ffffffffffffffffffffffffffffffffffffffff1673ffffffffffffffffffffffffffffffffffffffff1681526020019081526020016000206000828254611dcd9190613ab3565b925050819055508673ffffffffffffffffffffffffffffffffffffffff16600073ffffffffffffffffffffffffffffffffffffffff168473ffffffffffffffffffffffffffffffffffffffff167fc3d58168c5ae7397731d063d5bbf3d657854427343f4c083240f7aacaa2d0f628989604051611e4b92919061407e565b60405180910390a4611e6283600089858589612142565b611e718360008989898961239b565b50505050505050565b80600660008481526020019081526020016000209081611e9a9190614253565b505050565b600073ffffffffffffffffffffffffffffffffffffffff168473ffffffffffffffffffffffffffffffffffffffff1603611f0e576040517f08c379a0000000000000000000000000000000000000000000000000000000008152600401611f0590613e71565b60405180910390fd5b6000611f18611835565b90506000611f2585612321565b90506000611f3285612321565b9050611f4283898985858961213a565b600080600088815260200190815260200160002060008a73ffffffffffffffffffffffffffffffffffffffff1673ffffffffffffffffffffffffffffffffffffffff16815260200190815260200160002054905085811015611fd9576040517f08c379a0000000000000000000000000000000000000000000000000000000008152600401611fd090613f03565b60405180910390fd5b85810360008089815260200190815260200160002060008b73ffffffffffffffffffffffffffffffffffffffff1673ffffffffffffffffffffffffffffffffffffffff168152602001908152602001600020819055508560008089815260200190815260200160002060008a73ffffffffffffffffffffffffffffffffffffffff1673ffffffffffffffffffffffffffffffffffffffff168152602001908152602001600020600082825461208e9190613ab3565b925050819055508773ffffffffffffffffffffffffffffffffffffffff168973ffffffffffffffffffffffffffffffffffffffff168573ffffffffffffffffffffffffffffffffffffffff167fc3d58168c5ae7397731d063d5bbf3d657854427343f4c083240f7aacaa2d0f628a8a60405161210b92919061407e565b60405180910390a4612121848a8a86868a612142565b61212f848a8a8a8a8a61239b565b505050505050505050565b505050505050565b505050505050565b6121698473ffffffffffffffffffffffffffffffffffffffff16612572565b15612319578373ffffffffffffffffffffffffffffffffffffffff1663bc197c8187878686866040518663ffffffff1660e01b81526004016121af95949392919061437a565b6020604051808303816000875af19250505080156121eb57506040513d601f19601f820116820180604052508101906121e891906143f7565b60015b612290576121f7614431565b806308c379a003612253575061220b614453565b806122165750612255565b806040517f08c379a000000000000000000000000000000000000000000000000000000000815260040161224a9190612849565b60405180910390fd5b505b6040517f08c379a000000000000000000000000000000000000000000000000000000000815260040161228790614555565b60405180910390fd5b63bc197c8160e01b7bffffffffffffffffffffffffffffffffffffffffffffffffffffffff1916817bffffffffffffffffffffffffffffffffffffffffffffffffffffffff191614612317576040517f08c379a000000000000000000000000000000000000000000000000000000000815260040161230e906145e7565b60405180910390fd5b505b505050505050565b60606000600167ffffffffffffffff8111156123405761233f6128b0565b5b60405190808252806020026020018201604052801561236e5781602001602082028036833780820191505090505b5090508281600081518110612386576123856137e3565b5b60200260200101818152505080915050919050565b6123ba8473ffffffffffffffffffffffffffffffffffffffff16612572565b1561256a578373ffffffffffffffffffffffffffffffffffffffff1663f23a6e6187878686866040518663ffffffff1660e01b8152600401612400959493929190614607565b6020604051808303816000875af192505050801561243c57506040513d601f19601f8201168201806040525081019061243991906143f7565b60015b6124e157612448614431565b806308c379a0036124a4575061245c614453565b8061246757506124a6565b806040517f08c379a000000000000000000000000000000000000000000000000000000000815260040161249b9190612849565b60405180910390fd5b505b6040517f08c379a00000000000000000000000000000000000000000000000000000000081526004016124d890614555565b60405180910390fd5b63f23a6e6160e01b7bffffffffffffffffffffffffffffffffffffffffffffffffffffffff1916817bffffffffffffffffffffffffffffffffffffffffffffffffffffffff191614612568576040517f08c379a000000000000000000000000000000000000000000000000000000000815260040161255f906145e7565b60405180910390fd5b505b505050505050565b6000808273ffffffffffffffffffffffffffffffffffffffff163b119050919050565b6000604051905090565b600080fd5b600080fd5b600073ffffffffffffffffffffffffffffffffffffffff82169050919050565b60006125d4826125a9565b9050919050565b6125e4816125c9565b81146125ef57600080fd5b50565b600081359050612601816125db565b92915050565b6000819050919050565b61261a81612607565b811461262557600080fd5b50565b60008135905061263781612611565b92915050565b600080604083850312156126545761265361259f565b5b6000612662858286016125f2565b925050602061267385828601612628565b9150509250929050565b61268681612607565b82525050565b60006020820190506126a1600083018461267d565b92915050565b60007fffffffff0000000000000000000000000000000000000000000000000000000082169050919050565b6126dc816126a7565b81146126e757600080fd5b50565b6000813590506126f9816126d3565b92915050565b6000602082840312156127155761271461259f565b5b6000612723848285016126ea565b91505092915050565b60008115159050919050565b6127418161272c565b82525050565b600060208201905061275c6000830184612738565b92915050565b6000602082840312156127785761277761259f565b5b600061278684828501612628565b91505092915050565b612798816125c9565b82525050565b60006020820190506127b3600083018461278f565b92915050565b600081519050919050565b600082825260208201905092915050565b60005b838110156127f35780820151818401526020810190506127d8565b60008484015250505050565b6000601f19601f8301169050919050565b600061281b826127b9565b61282581856127c4565b93506128358185602086016127d5565b61283e816127ff565b840191505092915050565b600060208201905081810360008301526128638184612810565b905092915050565b600080604083850312156128825761288161259f565b5b600061289085828601612628565b92505060206128a185828601612628565b9150509250929050565b600080fd5b7f4e487b7100000000000000000000000000000000000000000000000000000000600052604160045260246000fd5b6128e8826127ff565b810181811067ffffffffffffffff82111715612907576129066128b0565b5b80604052505050565b600061291a612595565b905061292682826128df565b919050565b600067ffffffffffffffff821115612946576129456128b0565b5b602082029050602081019050919050565b600080fd5b600061296f61296a8461292b565b612910565b9050808382526020820190506020840283018581111561299257612991612957565b5b835b818110156129bb57806129a78882612628565b845260208401935050602081019050612994565b5050509392505050565b600082601f8301126129da576129d96128ab565b5b81356129ea84826020860161295c565b91505092915050565b600080fd5b600067ffffffffffffffff821115612a1357612a126128b0565b5b612a1c826127ff565b9050602081019050919050565b82818337600083830152505050565b6000612a4b612a46846129f8565b612910565b905082815260208101848484011115612a6757612a666129f3565b5b612a72848285612a29565b509392505050565b600082601f830112612a8f57612a8e6128ab565b5b8135612a9f848260208601612a38565b91505092915050565b600080600080600060a08688031215612ac457612ac361259f565b5b6000612ad2888289016125f2565b9550506020612ae3888289016125f2565b945050604086013567ffffffffffffffff811115612b0457612b036125a4565b5b612b10888289016129c5565b935050606086013567ffffffffffffffff811115612b3157612b306125a4565b5b612b3d888289016129c5565b925050608086013567ffffffffffffffff811115612b5e57612b5d6125a4565b5b612b6a88828901612a7a565b9150509295509295909350565b600067ffffffffffffffff821115612b9257612b916128b0565b5b602082029050602081019050919050565b6000612bb6612bb184612b77565b612910565b90508083825260208201905060208402830185811115612bd957612bd8612957565b5b835b81811015612c025780612bee88826125f2565b845260208401935050602081019050612bdb565b5050509392505050565b600082601f830112612c2157612c206128ab565b5b8135612c31848260208601612ba3565b91505092915050565b60008060408385031215612c5157612c5061259f565b5b600083013567ffffffffffffffff811115612c6f57612c6e6125a4565b5b612c7b85828601612c0c565b925050602083013567ffffffffffffffff811115612c9c57612c9b6125a4565b5b612ca8858286016129c5565b9150509250929050565b600081519050919050565b600082825260208201905092915050565b6000819050602082019050919050565b612ce781612607565b82525050565b6000612cf98383612cde565b60208301905092915050565b6000602082019050919050565b6000612d1d82612cb2565b612d278185612cbd565b9350612d3283612cce565b8060005b83811015612d63578151612d4a8882612ced565b9750612d5583612d05565b925050600181019050612d36565b5085935050505092915050565b60006020820190508181036000830152612d8a8184612d12565b905092915050565b600081519050919050565b600082825260208201905092915050565b6000819050602082019050919050565b612dc7816125c9565b82525050565b6000612dd98383612dbe565b60208301905092915050565b6000602082019050919050565b6000612dfd82612d92565b612e078185612d9d565b9350612e1283612dae565b8060005b83811015612e43578151612e2a8882612dcd565b9750612e3583612de5565b925050600181019050612e16565b5085935050505092915050565b60006020820190508181036000830152612e6a8184612df2565b905092915050565b6000819050919050565b612e8581612e72565b8114612e9057600080fd5b50565b600081359050612ea281612e7c565b92915050565b60008060408385031215612ebf57612ebe61259f565b5b6000612ecd85828601612e93565b925050602083013567ffffffffffffffff811115612eee57612eed6125a4565b5b612efa85828601612a7a565b9150509250929050565b612f0d8161272c565b8114612f1857600080fd5b50565b600081359050612f2a81612f04565b92915050565b60008060408385031215612f4757612f4661259f565b5b6000612f55858286016125f2565b9250506020612f6685828601612f1b565b9150509250929050565b600060208284031215612f8657612f8561259f565b5b6000612f94848285016125f2565b91505092915050565b600060208284031215612fb357612fb261259f565b5b600082013567ffffffffffffffff811115612fd157612fd06125a4565b5b612fdd84828501612a7a565b91505092915050565b612fef81612e72565b82525050565b600060ff82169050919050565b61300b81612ff5565b82525050565b60006060820190506130266000830186612fe6565b6130336020830185612fe6565b6130406040830184613002565b949350505050565b600067ffffffffffffffff821115613063576130626128b0565b5b61306c826127ff565b9050602081019050919050565b600061308c61308784613048565b612910565b9050828152602081018484840111156130a8576130a76129f3565b5b6130b3848285612a29565b509392505050565b600082601f8301126130d0576130cf6128ab565b5b81356130e0848260208601613079565b91505092915050565b60008060008060008060c087890312156131065761310561259f565b5b600061311489828a01612f1b565b965050602087013567ffffffffffffffff811115613135576131346125a4565b5b61314189828a016130bb565b955050604061315289828a01612f1b565b945050606061316389828a01612628565b935050608061317489828a01612f1b565b92505060a087013567ffffffffffffffff811115613195576131946125a4565b5b6131a189828a016130bb565b9150509295509295509295565b60006020820190506131c36000830184612fe6565b92915050565b60008060008060008060008060008060006101608c8e0312156131ef576131ee61259f565b5b60006131fd8e828f016125f2565b9b5050602061320e8e828f01612628565b9a5050604061321f8e828f01612f1b565b99505060608c013567ffffffffffffffff8111156132405761323f6125a4565b5b61324c8e828f016130bb565b985050608061325d8e828f01612628565b97505060a061326e8e828f01612f1b565b96505060c061327f8e828f01612628565b95505060e06132908e828f01612f1b565b9450506101008c013567ffffffffffffffff8111156132b2576132b16125a4565b5b6132be8e828f016130bb565b9350506101206132d08e828f01612628565b9250506101408c013567ffffffffffffffff8111156132f2576132f16125a4565b5b6132fe8e828f01612a7a565b9150509295989b509295989b9093969950565b600080604083850312156133285761332761259f565b5b600061333685828601612628565b9250506020613347858286016125f2565b9150509250929050565b600080600080600080600080610100898b0312156133725761337161259f565b5b60006133808b828c016125f2565b98505060206133918b828c01612f1b565b975050604089013567ffffffffffffffff8111156133b2576133b16125a4565b5b6133be8b828c016130bb565b96505060606133cf8b828c01612f1b565b95505060806133e08b828c01612628565b94505060a06133f18b828c01612f1b565b93505060c089013567ffffffffffffffff811115613412576134116125a4565b5b61341e8b828c016130bb565b92505060e089013567ffffffffffffffff81111561343f5761343e6125a4565b5b61344b8b828c01612a7a565b9150509295985092959890939650565b600080fd5b600061016082840312156134775761347661345b565b5b81905092915050565b6000602082840312156134965761349561259f565b5b600082013567ffffffffffffffff8111156134b4576134b36125a4565b5b6134c084828501613460565b91505092915050565b600080604083850312156134e0576134df61259f565b5b60006134ee858286016125f2565b92505060206134ff858286016125f2565b9150509250929050565b600080600080600060a086880312156135255761352461259f565b5b6000613533888289016125f2565b9550506020613544888289016125f2565b945050604061355588828901612628565b935050606061356688828901612628565b925050608086013567ffffffffffffffff811115613587576135866125a4565b5b61359388828901612a7a565b9150509295509295909350565b6000602082840312156135b6576135b561259f565b5b60006135c484828501612e93565b91505092915050565b7f455243313135353a2061646472657373207a65726f206973206e6f742061207660008201527f616c6964206f776e657200000000000000000000000000000000000000000000602082015250565b6000613629602a836127c4565b9150613634826135cd565b604082019050919050565b600060208201905081810360008301526136588161361c565b9050919050565b7f4e487b7100000000000000000000000000000000000000000000000000000000600052602260045260246000fd5b600060028204905060018216806136a657607f821691505b6020821081036136b9576136b861365f565b5b50919050565b7f455243313135353a2063616c6c6572206973206e6f7420746f6b656e206f776e60008201527f6572206e6f7220617070726f7665640000000000000000000000000000000000602082015250565b600061371b602f836127c4565b9150613726826136bf565b604082019050919050565b6000602082019050818103600083015261374a8161370e565b9050919050565b7f455243313135353a206163636f756e747320616e6420696473206c656e67746860008201527f206d69736d617463680000000000000000000000000000000000000000000000602082015250565b60006137ad6029836127c4565b91506137b882613751565b604082019050919050565b600060208201905081810360008301526137dc816137a0565b9050919050565b7f4e487b7100000000000000000000000000000000000000000000000000000000600052603260045260246000fd5b7f4e487b7100000000000000000000000000000000000000000000000000000000600052601160045260246000fd5b600061384c82612607565b91507fffffffffffffffffffffffffffffffffffffffffffffffffffffffffffffffff820361387e5761387d613812565b5b600182019050919050565b600060808201905061389e6000830187612fe6565b6138ab6020830186613002565b6138b86040830185612fe6565b6138c56060830184612fe6565b95945050505050565b7f696e76616c6964207369676e6174757265206c656e6774680000000000000000600082015250565b60006139046018836127c4565b915061390f826138ce565b602082019050919050565b60006020820190508181036000830152613933816138f7565b9050919050565b60008160f81b9050919050565b60006139528261393a565b9050919050565b600061396482613947565b9050919050565b61397c6139778261272c565b613959565b82525050565b600081905092915050565b6000613998826127b9565b6139a28185613982565b93506139b28185602086016127d5565b80840191505092915050565b6000819050919050565b6139d96139d482612607565b6139be565b82525050565b60006139eb828961396b565b6001820191506139fb828861398d565b9150613a07828761396b565b600182019150613a1782866139c8565b602082019150613a27828561396b565b600182019150613a37828461398d565b9150819050979650505050505050565b7f416c7265616479206d696e746564000000000000000000000000000000000000600082015250565b6000613a7d600e836127c4565b9150613a8882613a47565b602082019050919050565b60006020820190508181036000830152613aac81613a70565b9050919050565b6000613abe82612607565b9150613ac983612607565b9250828201905080821115613ae157613ae0613812565b5b92915050565b7f57726f6e67207072696365000000000000000000000000000000000000000000600082015250565b6000613b1d600b836127c4565b9150613b2882613ae7565b602082019050919050565b60006020820190508181036000830152613b4c81613b10565b9050919050565b600060208284031215613b6957613b6861259f565b5b6000613b7784828501612f1b565b91505092915050565b600080fd5b600080fd5b600080fd5b60008083356001602003843603038112613bac57613bab613b80565b5b80840192508235915067ffffffffffffffff821115613bce57613bcd613b85565b5b602083019250600182023603831315613bea57613be9613b8a565b5b509250929050565b7f19457468657265756d205369676e6564204d6573736167653a0a333200000000600082015250565b6000613c28601c83613982565b9150613c3382613bf2565b601c82019050919050565b6000819050919050565b613c59613c5482612e72565b613c3e565b82525050565b6000613c6a82613c1b565b9150613c768284613c48565b60208201915081905092915050565b6000613c9082612607565b9150613c9b83612607565b9250828202613ca981612607565b91508282048414831517613cc057613cbf613812565b5b5092915050565b7f4e487b7100000000000000000000000000000000000000000000000000000000600052601260045260246000fd5b6000613d0182612607565b9150613d0c83612607565b925082613d1c57613d1b613cc7565b5b828204905092915050565b600081905092915050565b50565b6000613d42600083613d27565b9150613d4d82613d32565b600082019050919050565b6000613d6382613d35565b9150819050919050565b7f455243313135353a2069647320616e6420616d6f756e7473206c656e6774682060008201527f6d69736d61746368000000000000000000000000000000000000000000000000602082015250565b6000613dc96028836127c4565b9150613dd482613d6d565b604082019050919050565b60006020820190508181036000830152613df881613dbc565b9050919050565b7f455243313135353a207472616e7366657220746f20746865207a65726f20616460008201527f6472657373000000000000000000000000000000000000000000000000000000602082015250565b6000613e5b6025836127c4565b9150613e6682613dff565b604082019050919050565b60006020820190508181036000830152613e8a81613e4e565b9050919050565b7f455243313135353a20696e73756666696369656e742062616c616e636520666f60008201527f72207472616e7366657200000000000000000000000000000000000000000000602082015250565b6000613eed602a836127c4565b9150613ef882613e91565b604082019050919050565b60006020820190508181036000830152613f1c81613ee0565b9050919050565b60006040820190508181036000830152613f3d8185612d12565b90508181036020830152613f518184612d12565b90509392505050565b7f455243313135353a2073657474696e6720617070726f76616c2073746174757360008201527f20666f722073656c660000000000000000000000000000000000000000000000602082015250565b6000613fb66029836127c4565b9150613fc182613f5a565b604082019050919050565b60006020820190508181036000830152613fe581613fa9565b9050919050565b7f455243313135353a206d696e7420746f20746865207a65726f2061646472657360008201527f7300000000000000000000000000000000000000000000000000000000000000602082015250565b60006140486021836127c4565b915061405382613fec565b604082019050919050565b600060208201905081810360008301526140778161403b565b9050919050565b6000604082019050614093600083018561267d565b6140a0602083018461267d565b9392505050565b60008190508160005260206000209050919050565b60006020601f8301049050919050565b600082821b905092915050565b6000600883026141097fffffffffffffffffffffffffffffffffffffffffffffffffffffffffffffffff826140cc565b61411386836140cc565b95508019841693508086168417925050509392505050565b6000819050919050565b600061415061414b61414684612607565b61412b565b612607565b9050919050565b6000819050919050565b61416a83614135565b61417e61417682614157565b8484546140d9565b825550505050565b600090565b614193614186565b61419e818484614161565b505050565b5b818110156141c2576141b760008261418b565b6001810190506141a4565b5050565b601f821115614207576141d8816140a7565b6141e1846140bc565b810160208510156141f0578190505b6142046141fc856140bc565b8301826141a3565b50505b505050565b600082821c905092915050565b600061422a6000198460080261420c565b1980831691505092915050565b60006142438383614219565b9150826002028217905092915050565b61425c826127b9565b67ffffffffffffffff811115614275576142746128b0565b5b61427f825461368e565b61428a8282856141c6565b600060209050601f8311600181146142bd57600084156142ab578287015190505b6142b58582614237565b86555061431d565b601f1984166142cb866140a7565b60005b828110156142f3578489015182556001820191506020850194506020810190506142ce565b86831015614310578489015161430c601f891682614219565b8355505b6001600288020188555050505b505050505050565b600081519050919050565b600082825260208201905092915050565b600061434c82614325565b6143568185614330565b93506143668185602086016127d5565b61436f816127ff565b840191505092915050565b600060a08201905061438f600083018861278f565b61439c602083018761278f565b81810360408301526143ae8186612d12565b905081810360608301526143c28185612d12565b905081810360808301526143d68184614341565b90509695505050505050565b6000815190506143f1816126d3565b92915050565b60006020828403121561440d5761440c61259f565b5b600061441b848285016143e2565b91505092915050565b60008160e01c9050919050565b600060033d11156144505760046000803e61444d600051614424565b90505b90565b600060443d106144e057614465612595565b60043d036004823e80513d602482011167ffffffffffffffff8211171561448d5750506144e0565b808201805167ffffffffffffffff8111156144ab57505050506144e0565b80602083010160043d0385018111156144c85750505050506144e0565b6144d7826020018501866128df565b82955050505050505b90565b7f455243313135353a207472616e7366657220746f206e6f6e204552433131353560008201527f526563656976657220696d706c656d656e746572000000000000000000000000602082015250565b600061453f6034836127c4565b915061454a826144e3565b604082019050919050565b6000602082019050818103600083015261456e81614532565b9050919050565b7f455243313135353a204552433131353552656365697665722072656a6563746560008201527f6420746f6b656e73000000000000000000000000000000000000000000000000602082015250565b60006145d16028836127c4565b91506145dc82614575565b604082019050919050565b60006020820190508181036000830152614600816145c4565b9050919050565b600060a08201905061461c600083018861278f565b614629602083018761278f565b614636604083018661267d565b614643606083018561267d565b81810360808301526146558184614341565b9050969550505050505056fea2646970667358221220d60e008e081cf126054f91a80ce0434323252091825752ba83cc8bea7e68247164736f6c63430008130033",
  "linkReferences": {},
  "deployedLinkReferences": {}
}