{
  "_format": "hh-sol-artifact-1",
  "contractName": "Lock",
  "sourceName": "contracts/Lock.sol",
  "abi": [
    {
      "inputs": [],
      "stateMutability": "nonpayable",
      "type": "constructor"
    },
    {
      "anonymous": false,
      "inputs": [
        {
          "indexed": true,
          "internalType": "address",
          "name": "account",
          "type": "address"
        },
        {
          "indexed": true,
          "internalType": "address",
          "name": "operator",
          "type": "address"
        },
        {
          "indexed": false,
          "internalType": "bool",
          "name": "approved",
          "type": "bool"
        }
      ],
      "name": "ApprovalForAll",
      "type": "event"
    },
    {
      "anonymous": false,
      "inputs": [
        {
          "indexed": true,
          "internalType": "address",
          "name": "previousOwner",
          "type": "address"
        },
        {
          "indexed": true,
          "internalType": "address",
          "name": "newOwner",
          "type": "address"
        }
      ],
      "name": "OwnershipTransferred",
      "type": "event"
    },
    {
      "anonymous": false,
      "inputs": [
        {
          "indexed": true,
          "internalType": "address",
          "name": "operator",
          "type": "address"
        },
        {
          "indexed": true,
          "internalType": "address",
          "name": "from",
          "type": "address"
        },
        {
          "indexed": true,
          "internalType": "address",
          "name": "to",
          "type": "address"
        },
        {
          "indexed": false,
          "internalType": "uint256[]",
          "name": "ids",
          "type": "uint256[]"
        },
        {
          "indexed": false,
          "internalType": "uint256[]",
          "name": "values",
          "type": "uint256[]"
        }
      ],
      "name": "TransferBatch",
      "type": "event"
    },
    {
      "anonymous": false,
      "inputs": [
        {
          "indexed": true,
          "internalType": "address",
          "name": "operator",
          "type": "address"
        },
        {
          "indexed": true,
          "internalType": "address",
          "name": "from",
          "type": "address"
        },
        {
          "indexed": true,
          "internalType": "address",
          "name": "to",
          "type": "address"
        },
        {
          "indexed": false,
          "internalType": "uint256",
          "name": "id",
          "type": "uint256"
        },
        {
          "indexed": false,
          "internalType": "uint256",
          "name": "value",
          "type": "uint256"
        }
      ],
      "name": "TransferSingle",
      "type": "event"
    },
    {
      "anonymous": false,
      "inputs": [
        {
          "indexed": false,
          "internalType": "string",
          "name": "value",
          "type": "string"
        },
        {
          "indexed": true,
          "internalType": "uint256",
          "name": "id",
          "type": "uint256"
        }
      ],
      "name": "URI",
      "type": "event"
    },
    {
      "inputs": [],
      "name": "MINTER_ROLE",
      "outputs": [
        {
          "internalType": "bytes32",
          "name": "",
          "type": "bytes32"
        }
      ],
      "stateMutability": "view",
      "type": "function"
    },
    {
      "inputs": [
        {
          "internalType": "uint256",
          "name": "",
          "type": "uint256"
        }
      ],
      "name": "_uris",
      "outputs": [
        {
          "internalType": "string",
          "name": "",
          "type": "string"
        }
      ],
      "stateMutability": "view",
      "type": "function"
    },
    {
      "inputs": [
        {
          "internalType": "address",
          "name": "account",
          "type": "address"
        },
        {
          "internalType": "uint256",
          "name": "id",
          "type": "uint256"
        }
      ],
      "name": "balanceOf",
      "outputs": [
        {
          "internalType": "uint256",
          "name": "",
          "type": "uint256"
        }
      ],
      "stateMutability": "view",
      "type": "function"
    },
    {
      "inputs": [
        {
          "internalType": "address[]",
          "name": "accounts",
          "type": "address[]"
        },
        {
          "internalType": "uint256[]",
          "name": "ids",
          "type": "uint256[]"
        }
      ],
      "name": "balanceOfBatch",
      "outputs": [
        {
          "internalType": "uint256[]",
          "name": "",
          "type": "uint256[]"
        }
      ],
      "stateMutability": "view",
      "type": "function"
    },
    {
      "inputs": [
        {
          "internalType": "address",
          "name": "account",
          "type": "address"
        },
        {
          "internalType": "address",
          "name": "operator",
          "type": "address"
        }
      ],
      "name": "isApprovedForAll",
      "outputs": [
        {
          "internalType": "bool",
          "name": "",
          "type": "bool"
        }
      ],
      "stateMutability": "view",
      "type": "function"
    },
    {
      "inputs": [
        {
          "components": [
            {
              "internalType": "uint256",
              "name": "tokenId",
              "type": "uint256"
            },
            {
              "internalType": "uint256",
              "name": "price",
              "type": "uint256"
            },
            {
              "internalType": "string",
              "name": "uri",
              "type": "string"
            },
            {
              "internalType": "bytes",
              "name": "signature",
              "type": "bytes"
            }
          ],
          "internalType": "struct Lock.LazyNFTVoucher",
          "name": "voucher",
          "type": "tuple"
        }
      ],
      "name": "mint",
      "outputs": [],
      "stateMutability": "nonpayable",
      "type": "function"
    },
    {
      "inputs": [
        {
          "internalType": "uint256",
          "name": "",
          "type": "uint256"
        }
      ],
      "name": "mintedNfts",
      "outputs": [
        {
          "internalType": "uint256",
          "name": "",
          "type": "uint256"
        }
      ],
      "stateMutability": "view",
      "type": "function"
    },
    {
      "inputs": [],
      "name": "owner",
      "outputs": [
        {
          "internalType": "address",
          "name": "",
          "type": "address"
        }
      ],
      "stateMutability": "view",
      "type": "function"
    },
    {
      "inputs": [],
      "name": "ownerr",
      "outputs": [
        {
          "internalType": "address",
          "name": "",
          "type": "address"
        }
      ],
      "stateMutability": "view",
      "type": "function"
    },
    {
      "inputs": [
        {
          "components": [
            {
              "internalType": "uint256",
              "name": "tokenId",
              "type": "uint256"
            },
            {
              "internalType": "uint256",
              "name": "price",
              "type": "uint256"
            },
            {
              "internalType": "string",
              "name": "uri",
              "type": "string"
            },
            {
              "internalType": "bytes",
              "name": "signature",
              "type": "bytes"
            }
          ],
          "internalType": "struct Lock.LazyNFTVoucher",
          "name": "voucher",
          "type": "tuple"
        }
      ],
      "name": "recover",
      "outputs": [
        {
          "internalType": "address",
          "name": "",
          "type": "address"
        }
      ],
      "stateMutability": "view",
      "type": "function"
    },
    {
      "inputs": [],
      "name": "renounceOwnership",
      "outputs": [],
      "stateMutability": "nonpayable",
      "type": "function"
    },
    {
      "inputs": [
        {
          "internalType": "address",
          "name": "from",
          "type": "address"
        },
        {
          "internalType": "address",
          "name": "to",
          "type": "address"
        },
        {
          "internalType": "uint256[]",
          "name": "ids",
          "type": "uint256[]"
        },
        {
          "internalType": "uint256[]",
          "name": "amounts",
          "type": "uint256[]"
        },
        {
          "internalType": "bytes",
          "name": "data",
          "type": "bytes"
        }
      ],
      "name": "safeBatchTransferFrom",
      "outputs": [],
      "stateMutability": "nonpayable",
      "type": "function"
    },
    {
      "inputs": [
        {
          "internalType": "address",
          "name": "from",
          "type": "address"
        },
        {
          "internalType": "address",
          "name": "to",
          "type": "address"
        },
        {
          "internalType": "uint256",
          "name": "id",
          "type": "uint256"
        },
        {
          "internalType": "uint256",
          "name": "amount",
          "type": "uint256"
        },
        {
          "internalType": "bytes",
          "name": "data",
          "type": "bytes"
        }
      ],
      "name": "safeTransferFrom",
      "outputs": [],
      "stateMutability": "nonpayable",
      "type": "function"
    },
    {
      "inputs": [
        {
          "internalType": "address",
          "name": "operator",
          "type": "address"
        },
        {
          "internalType": "bool",
          "name": "approved",
          "type": "bool"
        }
      ],
      "name": "setApprovalForAll",
      "outputs": [],
      "stateMutability": "nonpayable",
      "type": "function"
    },
    {
      "inputs": [
        {
          "internalType": "uint256",
          "name": "tokenId",
          "type": "uint256"
        },
        {
          "internalType": "string",
          "name": "urii",
          "type": "string"
        }
      ],
      "name": "setTokenUri",
      "outputs": [],
      "stateMutability": "nonpayable",
      "type": "function"
    },
    {
      "inputs": [
        {
          "internalType": "bytes4",
          "name": "interfaceId",
          "type": "bytes4"
        }
      ],
      "name": "supportsInterface",
      "outputs": [
        {
          "internalType": "bool",
          "name": "",
          "type": "bool"
        }
      ],
      "stateMutability": "view",
      "type": "function"
    },
    {
      "inputs": [],
      "name": "testAmount",
      "outputs": [
        {
          "internalType": "uint256",
          "name": "",
          "type": "uint256"
        }
      ],
      "stateMutability": "view",
      "type": "function"
    },
    {
      "inputs": [
        {
          "internalType": "address",
          "name": "newOwner",
          "type": "address"
        }
      ],
      "name": "transferOwnership",
      "outputs": [],
      "stateMutability": "nonpayable",
      "type": "function"
    },
    {
      "inputs": [
        {
          "internalType": "uint256",
          "name": "tokenId",
          "type": "uint256"
        }
      ],
      "name": "uri",
      "outputs": [
        {
          "internalType": "string",
          "name": "",
          "type": "string"
        }
      ],
      "stateMutability": "view",
      "type": "function"
    }
  ],
  "bytecode": "0x6101406040526001600555731b8163f3f7ae29af06c50df4ae5e0fe9375f8496600760006101000a81548173ffffffffffffffffffffffffffffffffffffffff021916908373ffffffffffffffffffffffffffffffffffffffff1602179055503480156200006c57600080fd5b50604051806020016040528060008152506040518060400160405280600e81526020017f566f75636865722d446f6d61696e0000000000000000000000000000000000008152506040518060400160405280600181526020017f310000000000000000000000000000000000000000000000000000000000000081525060008280519060200120905060008280519060200120905060007f8b73c3c69bb8fe3d512ecc4cf759cc79239f7b179b0ffacaa9a75d522b39400f90508260e081815250508161010081815250504660a0818152505062000152818484620001d360201b60201c565b608081815250503073ffffffffffffffffffffffffffffffffffffffff1660c08173ffffffffffffffffffffffffffffffffffffffff16815250508061012081815250505050505050620001ac816200020f60201b60201c565b50620001cd620001c16200022460201b60201c565b6200022c60201b60201c565b62000721565b60008383834630604051602001620001f09594939291906200036d565b6040516020818303038152906040528051906020012090509392505050565b80600290816200022091906200063a565b5050565b600033905090565b6000600360009054906101000a900473ffffffffffffffffffffffffffffffffffffffff16905081600360006101000a81548173ffffffffffffffffffffffffffffffffffffffff021916908373ffffffffffffffffffffffffffffffffffffffff1602179055508173ffffffffffffffffffffffffffffffffffffffff168173ffffffffffffffffffffffffffffffffffffffff167f8be0079c531659141344cd1fd0a4f28419497f9722a3daafe3b4186f6b6457e060405160405180910390a35050565b6000819050919050565b6200030781620002f2565b82525050565b6000819050919050565b62000322816200030d565b82525050565b600073ffffffffffffffffffffffffffffffffffffffff82169050919050565b6000620003558262000328565b9050919050565b620003678162000348565b82525050565b600060a082019050620003846000830188620002fc565b620003936020830187620002fc565b620003a26040830186620002fc565b620003b1606083018562000317565b620003c060808301846200035c565b9695505050505050565b600081519050919050565b7f4e487b7100000000000000000000000000000000000000000000000000000000600052604160045260246000fd5b7f4e487b7100000000000000000000000000000000000000000000000000000000600052602260045260246000fd5b600060028204905060018216806200044c57607f821691505b60208210810362000462576200046162000404565b5b50919050565b60008190508160005260206000209050919050565b60006020601f8301049050919050565b600082821b905092915050565b600060088302620004cc7fffffffffffffffffffffffffffffffffffffffffffffffffffffffffffffffff826200048d565b620004d886836200048d565b95508019841693508086168417925050509392505050565b6000819050919050565b60006200051b620005156200050f846200030d565b620004f0565b6200030d565b9050919050565b6000819050919050565b6200053783620004fa565b6200054f620005468262000522565b8484546200049a565b825550505050565b600090565b6200056662000557565b620005738184846200052c565b505050565b5b818110156200059b576200058f6000826200055c565b60018101905062000579565b5050565b601f821115620005ea57620005b48162000468565b620005bf846200047d565b81016020851015620005cf578190505b620005e7620005de856200047d565b83018262000578565b50505b505050565b600082821c905092915050565b60006200060f60001984600802620005ef565b1980831691505092915050565b60006200062a8383620005fc565b9150826002028217905092915050565b6200064582620003ca565b67ffffffffffffffff811115620006615762000660620003d5565b5b6200066d825462000433565b6200067a8282856200059f565b600060209050601f831160018114620006b257600084156200069d578287015190505b620006a985826200061c565b86555062000719565b601f198416620006c28662000468565b60005b82811015620006ec57848901518255600182019150602085019450602081019050620006c5565b868310156200070c578489015162000708601f891682620005fc565b8355505b6001600288020188555050505b505050505050565b60805160a05160c05160e0516101005161012051613f316200077160003960006119280152600061196a015260006119490152600061187e015260006118d4015260006118fd0152613f316000f3fe608060405234801561001057600080fd5b50600436106101205760003560e01c80637f698c29116100ad578063d539139311610071578063d539139314610319578063e985e9c514610337578063f242432a14610367578063f2fde38b14610383578063f76156131461039f57610120565b80637f698c29146102875780638da5cb5b146102a557806399799c42146102c3578063a22cb465146102e1578063b96a07de146102fd57610120565b80631233ce8d116100f45780631233ce8d146101e55780632eb2c2d6146102155780634e1273f41461023157806357f7789e14610261578063715018a61461027d57610120565b8062fdd58e1461012557806301ffc9a714610155578063024f9f42146101855780630e89341c146101b5575b600080fd5b61013f600480360381019061013a919061222d565b6103cf565b60405161014c919061227c565b60405180910390f35b61016f600480360381019061016a91906122ef565b610497565b60405161017c9190612337565b60405180910390f35b61019f600480360381019061019a9190612376565b610579565b6040516101ac91906123ce565b60405180910390f35b6101cf60048036038101906101ca91906123e9565b61066a565b6040516101dc91906124a6565b60405180910390f35b6101ff60048036038101906101fa91906123e9565b61070f565b60405161020c91906124a6565b60405180910390f35b61022f600480360381019061022a91906126c5565b6107af565b005b61024b60048036038101906102469190612857565b610850565b604051610258919061298d565b60405180910390f35b61027b60048036038101906102769190612a50565b610969565b005b61028561098e565b005b61028f6109a2565b60405161029c919061227c565b60405180910390f35b6102ad6109a8565b6040516102ba91906123ce565b60405180910390f35b6102cb6109d2565b6040516102d891906123ce565b60405180910390f35b6102fb60048036038101906102f69190612ad8565b6109f8565b005b61031760048036038101906103129190612376565b610a0e565b005b610321610bb7565b60405161032e9190612b31565b60405180910390f35b610351600480360381019061034c9190612b4c565b610bdb565b60405161035e9190612337565b60405180910390f35b610381600480360381019061037c9190612b8c565b610c6f565b005b61039d60048036038101906103989190612c23565b610d10565b005b6103b960048036038101906103b491906123e9565b610d93565b6040516103c6919061227c565b60405180910390f35b60008073ffffffffffffffffffffffffffffffffffffffff168373ffffffffffffffffffffffffffffffffffffffff160361043f576040517f08c379a000000000000000000000000000000000000000000000000000000000815260040161043690612cc2565b60405180910390fd5b60008083815260200190815260200160002060008473ffffffffffffffffffffffffffffffffffffffff1673ffffffffffffffffffffffffffffffffffffffff16815260200190815260200160002054905092915050565b60007fd9b67a26000000000000000000000000000000000000000000000000000000007bffffffffffffffffffffffffffffffffffffffffffffffffffffffff1916827bffffffffffffffffffffffffffffffffffffffffffffffffffffffff1916148061056257507f0e89341c000000000000000000000000000000000000000000000000000000007bffffffffffffffffffffffffffffffffffffffffffffffffffffffff1916827bffffffffffffffffffffffffffffffffffffffffffffffffffffffff1916145b80610572575061057182610dab565b5b9050919050565b6000806105fe7ff3c6e8ff55b44570ea5b011b1a0a1474dbb2c0c73d8c26d49321a458cd684382846000013585602001358680604001906105ba9190612cf1565b6040516105c8929190612d84565b60405180910390206040516020016105e39493929190612d9d565b60405160208183030381529060405280519060200120610e15565b9050600061065e828580606001906106169190612de2565b8080601f016020809104026020016040519081016040528093929190818152602001838380828437600081840152601f19601f82011690508083019250505050505050610e2f565b90508092505050919050565b606060046000838152602001908152602001600020805461068a90612e74565b80601f01602080910402602001604051908101604052809291908181526020018280546106b690612e74565b80156107035780601f106106d857610100808354040283529160200191610703565b820191906000526020600020905b8154815290600101906020018083116106e657829003601f168201915b50505050509050919050565b6004602052806000526040600020600091509050805461072e90612e74565b80601f016020809104026020016040519081016040528092919081815260200182805461075a90612e74565b80156107a75780601f1061077c576101008083540402835291602001916107a7565b820191906000526020600020905b81548152906001019060200180831161078a57829003601f168201915b505050505081565b6107b7610e56565b73ffffffffffffffffffffffffffffffffffffffff168573ffffffffffffffffffffffffffffffffffffffff1614806107fd57506107fc856107f7610e56565b610bdb565b5b61083c576040517f08c379a000000000000000000000000000000000000000000000000000000000815260040161083390612f17565b60405180910390fd5b6108498585858585610e5e565b5050505050565b60608151835114610896576040517f08c379a000000000000000000000000000000000000000000000000000000000815260040161088d90612fa9565b60405180910390fd5b6000835167ffffffffffffffff8111156108b3576108b26124cd565b5b6040519080825280602002602001820160405280156108e15781602001602082028036833780820191505090505b50905060005b845181101561095e5761092e85828151811061090657610905612fc9565b5b602002602001015185838151811061092157610920612fc9565b5b60200260200101516103cf565b82828151811061094157610940612fc9565b5b6020026020010181815250508061095790613027565b90506108e7565b508091505092915050565b80600460008481526020019081526020016000209081610989919061321b565b505050565b61099661117f565b6109a060006111fd565b565b60055481565b6000600360009054906101000a900473ffffffffffffffffffffffffffffffffffffffff16905090565b600760009054906101000a900473ffffffffffffffffffffffffffffffffffffffff1681565b610a0a610a03610e56565b83836112c3565b5050565b6000610a1982610579565b9050600760009054906101000a900473ffffffffffffffffffffffffffffffffffffffff1673ffffffffffffffffffffffffffffffffffffffff168173ffffffffffffffffffffffffffffffffffffffff1614610aab576040517f08c379a0000000000000000000000000000000000000000000000000000000008152600401610aa290613339565b60405180910390fd5b600360066000846000013581526020019081526020016000205410610b05576040517f08c379a0000000000000000000000000000000000000000000000000000000008152600401610afc906133a5565b60405180910390fd5b60066000836000013581526020019081526020016000206000815480929190610b2d90613027565b9190505550610b533383600001356005546040518060200160405280600081525061142f565b610bb38260000135838060400190610b6b9190612cf1565b8080601f016020809104026020016040519081016040528093929190818152602001838380828437600081840152601f19601f82011690508083019250505050505050610969565b5050565b7f9f2df0fed2c77648de5860a4cc508cd0818c85b8b8a1ab4ceeef8d981c8956a681565b6000600160008473ffffffffffffffffffffffffffffffffffffffff1673ffffffffffffffffffffffffffffffffffffffff16815260200190815260200160002060008373ffffffffffffffffffffffffffffffffffffffff1673ffffffffffffffffffffffffffffffffffffffff16815260200190815260200160002060009054906101000a900460ff16905092915050565b610c77610e56565b73ffffffffffffffffffffffffffffffffffffffff168573ffffffffffffffffffffffffffffffffffffffff161480610cbd5750610cbc85610cb7610e56565b610bdb565b5b610cfc576040517f08c379a0000000000000000000000000000000000000000000000000000000008152600401610cf390612f17565b60405180910390fd5b610d0985858585856115df565b5050505050565b610d1861117f565b600073ffffffffffffffffffffffffffffffffffffffff168173ffffffffffffffffffffffffffffffffffffffff1603610d87576040517f08c379a0000000000000000000000000000000000000000000000000000000008152600401610d7e90613437565b60405180910390fd5b610d90816111fd565b50565b60066020528060005260406000206000915090505481565b60007f01ffc9a7000000000000000000000000000000000000000000000000000000007bffffffffffffffffffffffffffffffffffffffffffffffffffffffff1916827bffffffffffffffffffffffffffffffffffffffffffffffffffffffff1916149050919050565b6000610e28610e2261187a565b83611994565b9050919050565b6000806000610e3e85856119c7565b91509150610e4b81611a18565b819250505092915050565b600033905090565b8151835114610ea2576040517f08c379a0000000000000000000000000000000000000000000000000000000008152600401610e99906134c9565b60405180910390fd5b600073ffffffffffffffffffffffffffffffffffffffff168473ffffffffffffffffffffffffffffffffffffffff1603610f11576040517f08c379a0000000000000000000000000000000000000000000000000000000008152600401610f089061355b565b60405180910390fd5b6000610f1b610e56565b9050610f2b818787878787611be4565b60005b84518110156110dc576000858281518110610f4c57610f4b612fc9565b5b602002602001015190506000858381518110610f6b57610f6a612fc9565b5b60200260200101519050600080600084815260200190815260200160002060008b73ffffffffffffffffffffffffffffffffffffffff1673ffffffffffffffffffffffffffffffffffffffff1681526020019081526020016000205490508181101561100c576040517f08c379a0000000000000000000000000000000000000000000000000000000008152600401611003906135ed565b60405180910390fd5b81810360008085815260200190815260200160002060008c73ffffffffffffffffffffffffffffffffffffffff1673ffffffffffffffffffffffffffffffffffffffff168152602001908152602001600020819055508160008085815260200190815260200160002060008b73ffffffffffffffffffffffffffffffffffffffff1673ffffffffffffffffffffffffffffffffffffffff16815260200190815260200160002060008282546110c1919061360d565b92505081905550505050806110d590613027565b9050610f2e565b508473ffffffffffffffffffffffffffffffffffffffff168673ffffffffffffffffffffffffffffffffffffffff168273ffffffffffffffffffffffffffffffffffffffff167f4a39dc06d4c0dbc64b70af90fd698a233a518aa5d07e595d983b8c0526c8f7fb8787604051611153929190613641565b60405180910390a4611169818787878787611bec565b611177818787878787611bf4565b505050505050565b611187610e56565b73ffffffffffffffffffffffffffffffffffffffff166111a56109a8565b73ffffffffffffffffffffffffffffffffffffffff16146111fb576040517f08c379a00000000000000000000000000000000000000000000000000000000081526004016111f2906136c4565b60405180910390fd5b565b6000600360009054906101000a900473ffffffffffffffffffffffffffffffffffffffff16905081600360006101000a81548173ffffffffffffffffffffffffffffffffffffffff021916908373ffffffffffffffffffffffffffffffffffffffff1602179055508173ffffffffffffffffffffffffffffffffffffffff168173ffffffffffffffffffffffffffffffffffffffff167f8be0079c531659141344cd1fd0a4f28419497f9722a3daafe3b4186f6b6457e060405160405180910390a35050565b8173ffffffffffffffffffffffffffffffffffffffff168373ffffffffffffffffffffffffffffffffffffffff1603611331576040517f08c379a000000000000000000000000000000000000000000000000000000000815260040161132890613756565b60405180910390fd5b80600160008573ffffffffffffffffffffffffffffffffffffffff1673ffffffffffffffffffffffffffffffffffffffff16815260200190815260200160002060008473ffffffffffffffffffffffffffffffffffffffff1673ffffffffffffffffffffffffffffffffffffffff16815260200190815260200160002060006101000a81548160ff0219169083151502179055508173ffffffffffffffffffffffffffffffffffffffff168373ffffffffffffffffffffffffffffffffffffffff167f17307eab39ab6107e8899845ad3d59bd9653f200f220920489ca2b5937696c31836040516114229190612337565b60405180910390a3505050565b600073ffffffffffffffffffffffffffffffffffffffff168473ffffffffffffffffffffffffffffffffffffffff160361149e576040517f08c379a0000000000000000000000000000000000000000000000000000000008152600401611495906137e8565b60405180910390fd5b60006114a8610e56565b905060006114b585611dcb565b905060006114c285611dcb565b90506114d383600089858589611be4565b8460008088815260200190815260200160002060008973ffffffffffffffffffffffffffffffffffffffff1673ffffffffffffffffffffffffffffffffffffffff1681526020019081526020016000206000828254611532919061360d565b925050819055508673ffffffffffffffffffffffffffffffffffffffff16600073ffffffffffffffffffffffffffffffffffffffff168473ffffffffffffffffffffffffffffffffffffffff167fc3d58168c5ae7397731d063d5bbf3d657854427343f4c083240f7aacaa2d0f6289896040516115b0929190613808565b60405180910390a46115c783600089858589611bec565b6115d683600089898989611e45565b50505050505050565b600073ffffffffffffffffffffffffffffffffffffffff168473ffffffffffffffffffffffffffffffffffffffff160361164e576040517f08c379a00000000000000000000000000000000000000000000000000000000081526004016116459061355b565b60405180910390fd5b6000611658610e56565b9050600061166585611dcb565b9050600061167285611dcb565b9050611682838989858589611be4565b600080600088815260200190815260200160002060008a73ffffffffffffffffffffffffffffffffffffffff1673ffffffffffffffffffffffffffffffffffffffff16815260200190815260200160002054905085811015611719576040517f08c379a0000000000000000000000000000000000000000000000000000000008152600401611710906135ed565b60405180910390fd5b85810360008089815260200190815260200160002060008b73ffffffffffffffffffffffffffffffffffffffff1673ffffffffffffffffffffffffffffffffffffffff168152602001908152602001600020819055508560008089815260200190815260200160002060008a73ffffffffffffffffffffffffffffffffffffffff1673ffffffffffffffffffffffffffffffffffffffff16815260200190815260200160002060008282546117ce919061360d565b925050819055508773ffffffffffffffffffffffffffffffffffffffff168973ffffffffffffffffffffffffffffffffffffffff168573ffffffffffffffffffffffffffffffffffffffff167fc3d58168c5ae7397731d063d5bbf3d657854427343f4c083240f7aacaa2d0f628a8a60405161184b929190613808565b60405180910390a4611861848a8a86868a611bec565b61186f848a8a8a8a8a611e45565b505050505050505050565b60007f000000000000000000000000000000000000000000000000000000000000000073ffffffffffffffffffffffffffffffffffffffff163073ffffffffffffffffffffffffffffffffffffffff161480156118f657507f000000000000000000000000000000000000000000000000000000000000000046145b15611923577f00000000000000000000000000000000000000000000000000000000000000009050611991565b61198e7f00000000000000000000000000000000000000000000000000000000000000007f00000000000000000000000000000000000000000000000000000000000000007f000000000000000000000000000000000000000000000000000000000000000061201c565b90505b90565b600082826040516020016119a99291906138a9565b60405160208183030381529060405280519060200120905092915050565b6000806041835103611a085760008060006020860151925060408601519150606086015160001a90506119fc87828585612056565b94509450505050611a11565b60006002915091505b9250929050565b60006004811115611a2c57611a2b6138e0565b5b816004811115611a3f57611a3e6138e0565b5b0315611be15760016004811115611a5957611a586138e0565b5b816004811115611a6c57611a6b6138e0565b5b03611aac576040517f08c379a0000000000000000000000000000000000000000000000000000000008152600401611aa39061395b565b60405180910390fd5b60026004811115611ac057611abf6138e0565b5b816004811115611ad357611ad26138e0565b5b03611b13576040517f08c379a0000000000000000000000000000000000000000000000000000000008152600401611b0a906139c7565b60405180910390fd5b60036004811115611b2757611b266138e0565b5b816004811115611b3a57611b396138e0565b5b03611b7a576040517f08c379a0000000000000000000000000000000000000000000000000000000008152600401611b7190613a59565b60405180910390fd5b600480811115611b8d57611b8c6138e0565b5b816004811115611ba057611b9f6138e0565b5b03611be0576040517f08c379a0000000000000000000000000000000000000000000000000000000008152600401611bd790613aeb565b60405180910390fd5b5b50565b505050505050565b505050505050565b611c138473ffffffffffffffffffffffffffffffffffffffff16612162565b15611dc3578373ffffffffffffffffffffffffffffffffffffffff1663bc197c8187878686866040518663ffffffff1660e01b8152600401611c59959493929190613b60565b6020604051808303816000875af1925050508015611c9557506040513d601f19601f82011682018060405250810190611c929190613bdd565b60015b611d3a57611ca1613c17565b806308c379a003611cfd5750611cb5613c39565b80611cc05750611cff565b806040517f08c379a0000000000000000000000000000000000000000000000000000000008152600401611cf491906124a6565b60405180910390fd5b505b6040517f08c379a0000000000000000000000000000000000000000000000000000000008152600401611d3190613d3b565b60405180910390fd5b63bc197c8160e01b7bffffffffffffffffffffffffffffffffffffffffffffffffffffffff1916817bffffffffffffffffffffffffffffffffffffffffffffffffffffffff191614611dc1576040517f08c379a0000000000000000000000000000000000000000000000000000000008152600401611db890613dcd565b60405180910390fd5b505b505050505050565b60606000600167ffffffffffffffff811115611dea57611de96124cd565b5b604051908082528060200260200182016040528015611e185781602001602082028036833780820191505090505b5090508281600081518110611e3057611e2f612fc9565b5b60200260200101818152505080915050919050565b611e648473ffffffffffffffffffffffffffffffffffffffff16612162565b15612014578373ffffffffffffffffffffffffffffffffffffffff1663f23a6e6187878686866040518663ffffffff1660e01b8152600401611eaa959493929190613ded565b6020604051808303816000875af1925050508015611ee657506040513d601f19601f82011682018060405250810190611ee39190613bdd565b60015b611f8b57611ef2613c17565b806308c379a003611f4e5750611f06613c39565b80611f115750611f50565b806040517f08c379a0000000000000000000000000000000000000000000000000000000008152600401611f4591906124a6565b60405180910390fd5b505b6040517f08c379a0000000000000000000000000000000000000000000000000000000008152600401611f8290613d3b565b60405180910390fd5b63f23a6e6160e01b7bffffffffffffffffffffffffffffffffffffffffffffffffffffffff1916817bffffffffffffffffffffffffffffffffffffffffffffffffffffffff191614612012576040517f08c379a000000000000000000000000000000000000000000000000000000000815260040161200990613dcd565b60405180910390fd5b505b505050505050565b60008383834630604051602001612037959493929190613e47565b6040516020818303038152906040528051906020012090509392505050565b6000807f7fffffffffffffffffffffffffffffff5d576e7357a4501ddfe92f46681b20a08360001c1115612091576000600391509150612159565b601b8560ff16141580156120a95750601c8560ff1614155b156120bb576000600491509150612159565b6000600187878787604051600081526020016040526040516120e09493929190613eb6565b6020604051602081039080840390855afa158015612102573d6000803e3d6000fd5b505050602060405103519050600073ffffffffffffffffffffffffffffffffffffffff168173ffffffffffffffffffffffffffffffffffffffff160361215057600060019250925050612159565b80600092509250505b94509492505050565b6000808273ffffffffffffffffffffffffffffffffffffffff163b119050919050565b6000604051905090565b600080fd5b600080fd5b600073ffffffffffffffffffffffffffffffffffffffff82169050919050565b60006121c482612199565b9050919050565b6121d4816121b9565b81146121df57600080fd5b50565b6000813590506121f1816121cb565b92915050565b6000819050919050565b61220a816121f7565b811461221557600080fd5b50565b60008135905061222781612201565b92915050565b600080604083850312156122445761224361218f565b5b6000612252858286016121e2565b925050602061226385828601612218565b9150509250929050565b612276816121f7565b82525050565b6000602082019050612291600083018461226d565b92915050565b60007fffffffff0000000000000000000000000000000000000000000000000000000082169050919050565b6122cc81612297565b81146122d757600080fd5b50565b6000813590506122e9816122c3565b92915050565b6000602082840312156123055761230461218f565b5b6000612313848285016122da565b91505092915050565b60008115159050919050565b6123318161231c565b82525050565b600060208201905061234c6000830184612328565b92915050565b600080fd5b60006080828403121561236d5761236c612352565b5b81905092915050565b60006020828403121561238c5761238b61218f565b5b600082013567ffffffffffffffff8111156123aa576123a9612194565b5b6123b684828501612357565b91505092915050565b6123c8816121b9565b82525050565b60006020820190506123e360008301846123bf565b92915050565b6000602082840312156123ff576123fe61218f565b5b600061240d84828501612218565b91505092915050565b600081519050919050565b600082825260208201905092915050565b60005b83811015612450578082015181840152602081019050612435565b60008484015250505050565b6000601f19601f8301169050919050565b600061247882612416565b6124828185612421565b9350612492818560208601612432565b61249b8161245c565b840191505092915050565b600060208201905081810360008301526124c0818461246d565b905092915050565b600080fd5b7f4e487b7100000000000000000000000000000000000000000000000000000000600052604160045260246000fd5b6125058261245c565b810181811067ffffffffffffffff82111715612524576125236124cd565b5b80604052505050565b6000612537612185565b905061254382826124fc565b919050565b600067ffffffffffffffff821115612563576125626124cd565b5b602082029050602081019050919050565b600080fd5b600061258c61258784612548565b61252d565b905080838252602082019050602084028301858111156125af576125ae612574565b5b835b818110156125d857806125c48882612218565b8452602084019350506020810190506125b1565b5050509392505050565b600082601f8301126125f7576125f66124c8565b5b8135612607848260208601612579565b91505092915050565b600080fd5b600067ffffffffffffffff8211156126305761262f6124cd565b5b6126398261245c565b9050602081019050919050565b82818337600083830152505050565b600061266861266384612615565b61252d565b90508281526020810184848401111561268457612683612610565b5b61268f848285612646565b509392505050565b600082601f8301126126ac576126ab6124c8565b5b81356126bc848260208601612655565b91505092915050565b600080600080600060a086880312156126e1576126e061218f565b5b60006126ef888289016121e2565b9550506020612700888289016121e2565b945050604086013567ffffffffffffffff81111561272157612720612194565b5b61272d888289016125e2565b935050606086013567ffffffffffffffff81111561274e5761274d612194565b5b61275a888289016125e2565b925050608086013567ffffffffffffffff81111561277b5761277a612194565b5b61278788828901612697565b9150509295509295909350565b600067ffffffffffffffff8211156127af576127ae6124cd565b5b602082029050602081019050919050565b60006127d36127ce84612794565b61252d565b905080838252602082019050602084028301858111156127f6576127f5612574565b5b835b8181101561281f578061280b88826121e2565b8452602084019350506020810190506127f8565b5050509392505050565b600082601f83011261283e5761283d6124c8565b5b813561284e8482602086016127c0565b91505092915050565b6000806040838503121561286e5761286d61218f565b5b600083013567ffffffffffffffff81111561288c5761288b612194565b5b61289885828601612829565b925050602083013567ffffffffffffffff8111156128b9576128b8612194565b5b6128c5858286016125e2565b9150509250929050565b600081519050919050565b600082825260208201905092915050565b6000819050602082019050919050565b612904816121f7565b82525050565b600061291683836128fb565b60208301905092915050565b6000602082019050919050565b600061293a826128cf565b61294481856128da565b935061294f836128eb565b8060005b83811015612980578151612967888261290a565b975061297283612922565b925050600181019050612953565b5085935050505092915050565b600060208201905081810360008301526129a7818461292f565b905092915050565b600067ffffffffffffffff8211156129ca576129c96124cd565b5b6129d38261245c565b9050602081019050919050565b60006129f36129ee846129af565b61252d565b905082815260208101848484011115612a0f57612a0e612610565b5b612a1a848285612646565b509392505050565b600082601f830112612a3757612a366124c8565b5b8135612a478482602086016129e0565b91505092915050565b60008060408385031215612a6757612a6661218f565b5b6000612a7585828601612218565b925050602083013567ffffffffffffffff811115612a9657612a95612194565b5b612aa285828601612a22565b9150509250929050565b612ab58161231c565b8114612ac057600080fd5b50565b600081359050612ad281612aac565b92915050565b60008060408385031215612aef57612aee61218f565b5b6000612afd858286016121e2565b9250506020612b0e85828601612ac3565b9150509250929050565b6000819050919050565b612b2b81612b18565b82525050565b6000602082019050612b466000830184612b22565b92915050565b60008060408385031215612b6357612b6261218f565b5b6000612b71858286016121e2565b9250506020612b82858286016121e2565b9150509250929050565b600080600080600060a08688031215612ba857612ba761218f565b5b6000612bb6888289016121e2565b9550506020612bc7888289016121e2565b9450506040612bd888828901612218565b9350506060612be988828901612218565b925050608086013567ffffffffffffffff811115612c0a57612c09612194565b5b612c1688828901612697565b9150509295509295909350565b600060208284031215612c3957612c3861218f565b5b6000612c47848285016121e2565b91505092915050565b7f455243313135353a2061646472657373207a65726f206973206e6f742061207660008201527f616c6964206f776e657200000000000000000000000000000000000000000000602082015250565b6000612cac602a83612421565b9150612cb782612c50565b604082019050919050565b60006020820190508181036000830152612cdb81612c9f565b9050919050565b600080fd5b600080fd5b600080fd5b60008083356001602003843603038112612d0e57612d0d612ce2565b5b80840192508235915067ffffffffffffffff821115612d3057612d2f612ce7565b5b602083019250600182023603831315612d4c57612d4b612cec565b5b509250929050565b600081905092915050565b6000612d6b8385612d54565b9350612d78838584612646565b82840190509392505050565b6000612d91828486612d5f565b91508190509392505050565b6000608082019050612db26000830187612b22565b612dbf602083018661226d565b612dcc604083018561226d565b612dd96060830184612b22565b95945050505050565b60008083356001602003843603038112612dff57612dfe612ce2565b5b80840192508235915067ffffffffffffffff821115612e2157612e20612ce7565b5b602083019250600182023603831315612e3d57612e3c612cec565b5b509250929050565b7f4e487b7100000000000000000000000000000000000000000000000000000000600052602260045260246000fd5b60006002820490506001821680612e8c57607f821691505b602082108103612e9f57612e9e612e45565b5b50919050565b7f455243313135353a2063616c6c6572206973206e6f7420746f6b656e206f776e60008201527f6572206e6f7220617070726f7665640000000000000000000000000000000000602082015250565b6000612f01602f83612421565b9150612f0c82612ea5565b604082019050919050565b60006020820190508181036000830152612f3081612ef4565b9050919050565b7f455243313135353a206163636f756e747320616e6420696473206c656e67746860008201527f206d69736d617463680000000000000000000000000000000000000000000000602082015250565b6000612f93602983612421565b9150612f9e82612f37565b604082019050919050565b60006020820190508181036000830152612fc281612f86565b9050919050565b7f4e487b7100000000000000000000000000000000000000000000000000000000600052603260045260246000fd5b7f4e487b7100000000000000000000000000000000000000000000000000000000600052601160045260246000fd5b6000613032826121f7565b91507fffffffffffffffffffffffffffffffffffffffffffffffffffffffffffffffff820361306457613063612ff8565b5b600182019050919050565b60008190508160005260206000209050919050565b60006020601f8301049050919050565b600082821b905092915050565b6000600883026130d17fffffffffffffffffffffffffffffffffffffffffffffffffffffffffffffffff82613094565b6130db8683613094565b95508019841693508086168417925050509392505050565b6000819050919050565b600061311861311361310e846121f7565b6130f3565b6121f7565b9050919050565b6000819050919050565b613132836130fd565b61314661313e8261311f565b8484546130a1565b825550505050565b600090565b61315b61314e565b613166818484613129565b505050565b5b8181101561318a5761317f600082613153565b60018101905061316c565b5050565b601f8211156131cf576131a08161306f565b6131a984613084565b810160208510156131b8578190505b6131cc6131c485613084565b83018261316b565b50505b505050565b600082821c905092915050565b60006131f2600019846008026131d4565b1980831691505092915050565b600061320b83836131e1565b9150826002028217905092915050565b61322482612416565b67ffffffffffffffff81111561323d5761323c6124cd565b5b6132478254612e74565b61325282828561318e565b600060209050601f8311600181146132855760008415613273578287015190505b61327d85826131ff565b8655506132e5565b601f1984166132938661306f565b60005b828110156132bb57848901518255600182019150602085019450602081019050613296565b868310156132d857848901516132d4601f8916826131e1565b8355505b6001600288020188555050505b505050505050565b7f6e6f77206f776e65720000000000000000000000000000000000000000000000600082015250565b6000613323600983612421565b915061332e826132ed565b602082019050919050565b6000602082019050818103600083015261335281613316565b9050919050565b7f736f6c64206f7574000000000000000000000000000000000000000000000000600082015250565b600061338f600883612421565b915061339a82613359565b602082019050919050565b600060208201905081810360008301526133be81613382565b9050919050565b7f4f776e61626c653a206e6577206f776e657220697320746865207a65726f206160008201527f6464726573730000000000000000000000000000000000000000000000000000602082015250565b6000613421602683612421565b915061342c826133c5565b604082019050919050565b6000602082019050818103600083015261345081613414565b9050919050565b7f455243313135353a2069647320616e6420616d6f756e7473206c656e6774682060008201527f6d69736d61746368000000000000000000000000000000000000000000000000602082015250565b60006134b3602883612421565b91506134be82613457565b604082019050919050565b600060208201905081810360008301526134e2816134a6565b9050919050565b7f455243313135353a207472616e7366657220746f20746865207a65726f20616460008201527f6472657373000000000000000000000000000000000000000000000000000000602082015250565b6000613545602583612421565b9150613550826134e9565b604082019050919050565b6000602082019050818103600083015261357481613538565b9050919050565b7f455243313135353a20696e73756666696369656e742062616c616e636520666f60008201527f72207472616e7366657200000000000000000000000000000000000000000000602082015250565b60006135d7602a83612421565b91506135e28261357b565b604082019050919050565b60006020820190508181036000830152613606816135ca565b9050919050565b6000613618826121f7565b9150613623836121f7565b925082820190508082111561363b5761363a612ff8565b5b92915050565b6000604082019050818103600083015261365b818561292f565b9050818103602083015261366f818461292f565b90509392505050565b7f4f776e61626c653a2063616c6c6572206973206e6f7420746865206f776e6572600082015250565b60006136ae602083612421565b91506136b982613678565b602082019050919050565b600060208201905081810360008301526136dd816136a1565b9050919050565b7f455243313135353a2073657474696e6720617070726f76616c2073746174757360008201527f20666f722073656c660000000000000000000000000000000000000000000000602082015250565b6000613740602983612421565b915061374b826136e4565b604082019050919050565b6000602082019050818103600083015261376f81613733565b9050919050565b7f455243313135353a206d696e7420746f20746865207a65726f2061646472657360008201527f7300000000000000000000000000000000000000000000000000000000000000602082015250565b60006137d2602183612421565b91506137dd82613776565b604082019050919050565b60006020820190508181036000830152613801816137c5565b9050919050565b600060408201905061381d600083018561226d565b61382a602083018461226d565b9392505050565b600081905092915050565b7f1901000000000000000000000000000000000000000000000000000000000000600082015250565b6000613872600283613831565b915061387d8261383c565b600282019050919050565b6000819050919050565b6138a361389e82612b18565b613888565b82525050565b60006138b482613865565b91506138c08285613892565b6020820191506138d08284613892565b6020820191508190509392505050565b7f4e487b7100000000000000000000000000000000000000000000000000000000600052602160045260246000fd5b7f45434453413a20696e76616c6964207369676e61747572650000000000000000600082015250565b6000613945601883612421565b91506139508261390f565b602082019050919050565b6000602082019050818103600083015261397481613938565b9050919050565b7f45434453413a20696e76616c6964207369676e6174757265206c656e67746800600082015250565b60006139b1601f83612421565b91506139bc8261397b565b602082019050919050565b600060208201905081810360008301526139e0816139a4565b9050919050565b7f45434453413a20696e76616c6964207369676e6174757265202773272076616c60008201527f7565000000000000000000000000000000000000000000000000000000000000602082015250565b6000613a43602283612421565b9150613a4e826139e7565b604082019050919050565b60006020820190508181036000830152613a7281613a36565b9050919050565b7f45434453413a20696e76616c6964207369676e6174757265202776272076616c60008201527f7565000000000000000000000000000000000000000000000000000000000000602082015250565b6000613ad5602283612421565b9150613ae082613a79565b604082019050919050565b60006020820190508181036000830152613b0481613ac8565b9050919050565b600081519050919050565b600082825260208201905092915050565b6000613b3282613b0b565b613b3c8185613b16565b9350613b4c818560208601612432565b613b558161245c565b840191505092915050565b600060a082019050613b7560008301886123bf565b613b8260208301876123bf565b8181036040830152613b94818661292f565b90508181036060830152613ba8818561292f565b90508181036080830152613bbc8184613b27565b90509695505050505050565b600081519050613bd7816122c3565b92915050565b600060208284031215613bf357613bf261218f565b5b6000613c0184828501613bc8565b91505092915050565b60008160e01c9050919050565b600060033d1115613c365760046000803e613c33600051613c0a565b90505b90565b600060443d10613cc657613c4b612185565b60043d036004823e80513d602482011167ffffffffffffffff82111715613c73575050613cc6565b808201805167ffffffffffffffff811115613c915750505050613cc6565b80602083010160043d038501811115613cae575050505050613cc6565b613cbd826020018501866124fc565b82955050505050505b90565b7f455243313135353a207472616e7366657220746f206e6f6e204552433131353560008201527f526563656976657220696d706c656d656e746572000000000000000000000000602082015250565b6000613d25603483612421565b9150613d3082613cc9565b604082019050919050565b60006020820190508181036000830152613d5481613d18565b9050919050565b7f455243313135353a204552433131353552656365697665722072656a6563746560008201527f6420746f6b656e73000000000000000000000000000000000000000000000000602082015250565b6000613db7602883612421565b9150613dc282613d5b565b604082019050919050565b60006020820190508181036000830152613de681613daa565b9050919050565b600060a082019050613e0260008301886123bf565b613e0f60208301876123bf565b613e1c604083018661226d565b613e29606083018561226d565b8181036080830152613e3b8184613b27565b90509695505050505050565b600060a082019050613e5c6000830188612b22565b613e696020830187612b22565b613e766040830186612b22565b613e83606083018561226d565b613e9060808301846123bf565b9695505050505050565b600060ff82169050919050565b613eb081613e9a565b82525050565b6000608082019050613ecb6000830187612b22565b613ed86020830186613ea7565b613ee56040830185612b22565b613ef26060830184612b22565b9594505050505056fea264697066735822122085665d49228e19177a7e98032d46fd1932ef79f2d0b3f59a6d14cff7ca11441f64736f6c63430008110033",
  "linkReferences": {},
  "deployedLinkReferences": {}
}